{
  "_format": "hh-sol-artifact-1",
  "contractName": "MeetSH",
  "sourceName": "contracts/Meet.sol",
  "abi": [
    {
      "inputs": [],
      "stateMutability": "nonpayable",
      "type": "constructor"
    },
    {
      "anonymous": false,
      "inputs": [
        {
          "indexed": false,
          "internalType": "uint256",
          "name": "index",
          "type": "uint256"
        }
      ],
      "name": "LightLand",
      "type": "event"
    },
    {
      "anonymous": false,
      "inputs": [
        {
          "indexed": true,
          "internalType": "address",
          "name": "previousOwner",
          "type": "address"
        },
        {
          "indexed": true,
          "internalType": "address",
          "name": "newOwner",
          "type": "address"
        }
      ],
      "name": "OwnershipTransferred",
      "type": "event"
    },
    {
      "inputs": [
        {
          "internalType": "uint256",
          "name": "index",
          "type": "uint256"
        }
      ],
      "name": "activityCount",
      "outputs": [
        {
          "internalType": "uint256",
          "name": "",
          "type": "uint256"
        }
      ],
      "stateMutability": "view",
      "type": "function"
    },
    {
      "inputs": [
        {
          "components": [
            {
              "internalType": "address",
              "name": "host",
              "type": "address"
            },
            {
              "internalType": "string",
              "name": "name",
              "type": "string"
            },
            {
              "internalType": "string",
              "name": "url",
              "type": "string"
            },
            {
              "internalType": "enum LandType",
              "name": "typ",
              "type": "uint8"
            },
            {
              "components": [
                {
                  "internalType": "int32",
                  "name": "lng",
                  "type": "int32"
                },
                {
                  "internalType": "int32",
                  "name": "lat",
                  "type": "int32"
                }
              ],
              "internalType": "struct Position",
              "name": "pos",
              "type": "tuple"
            },
            {
              "internalType": "uint256",
              "name": "price",
              "type": "uint256"
            }
          ],
          "internalType": "struct Land[]",
          "name": "lands",
          "type": "tuple[]"
        }
      ],
      "name": "addLands",
      "outputs": [],
      "stateMutability": "nonpayable",
      "type": "function"
    },
    {
      "inputs": [
        {
          "internalType": "uint256",
          "name": "",
          "type": "uint256"
        }
      ],
      "name": "allActivities",
      "outputs": [
        {
          "internalType": "uint256",
          "name": "blkNum",
          "type": "uint256"
        },
        {
          "internalType": "uint256",
          "name": "name",
          "type": "uint256"
        }
      ],
      "stateMutability": "view",
      "type": "function"
    },
    {
      "inputs": [
        {
          "internalType": "uint256",
          "name": "",
          "type": "uint256"
        }
      ],
      "name": "allLands",
      "outputs": [
        {
          "internalType": "address",
          "name": "host",
          "type": "address"
        },
        {
          "internalType": "string",
          "name": "name",
          "type": "string"
        },
        {
          "internalType": "string",
          "name": "url",
          "type": "string"
        },
        {
          "internalType": "enum LandType",
          "name": "typ",
          "type": "uint8"
        },
        {
          "components": [
            {
              "internalType": "int32",
              "name": "lng",
              "type": "int32"
            },
            {
              "internalType": "int32",
              "name": "lat",
              "type": "int32"
            }
          ],
          "internalType": "struct Position",
          "name": "pos",
          "type": "tuple"
        },
        {
          "internalType": "uint256",
          "name": "price",
          "type": "uint256"
        }
      ],
      "stateMutability": "view",
      "type": "function"
    },
    {
      "inputs": [
        {
          "internalType": "uint256",
          "name": "index",
          "type": "uint256"
        },
        {
          "internalType": "string",
          "name": "name",
          "type": "string"
        },
        {
          "internalType": "string",
          "name": "url",
          "type": "string"
        }
      ],
      "name": "buyLand",
      "outputs": [],
      "stateMutability": "payable",
      "type": "function"
    },
    {
      "inputs": [
        {
          "components": [
            {
              "internalType": "int32",
              "name": "lng",
              "type": "int32"
            },
            {
              "internalType": "int32",
              "name": "lat",
              "type": "int32"
            }
          ],
          "internalType": "struct Position",
          "name": "pos",
          "type": "tuple"
        }
      ],
      "name": "center",
      "outputs": [
        {
          "internalType": "int32",
          "name": "lx",
          "type": "int32"
        },
        {
          "internalType": "int32",
          "name": "ly",
          "type": "int32"
        }
      ],
      "stateMutability": "pure",
      "type": "function"
    },
    {
      "inputs": [
        {
          "internalType": "uint256",
          "name": "index",
          "type": "uint256"
        },
        {
          "internalType": "enum LandType",
          "name": "typ",
          "type": "uint8"
        }
      ],
      "name": "changeType",
      "outputs": [],
      "stateMutability": "nonpayable",
      "type": "function"
    },
    {
      "inputs": [
        {
          "components": [
            {
              "internalType": "int32",
              "name": "lng",
              "type": "int32"
            },
            {
              "internalType": "int32",
              "name": "lat",
              "type": "int32"
            }
          ],
          "internalType": "struct Position",
          "name": "pos",
          "type": "tuple"
        },
        {
          "components": [
            {
              "internalType": "int32",
              "name": "lng",
              "type": "int32"
            },
            {
              "internalType": "int32",
              "name": "lat",
              "type": "int32"
            }
          ],
          "internalType": "struct Position",
          "name": "lpos",
          "type": "tuple"
        }
      ],
      "name": "distance",
      "outputs": [
        {
          "internalType": "uint32",
          "name": "dist",
          "type": "uint32"
        }
      ],
      "stateMutability": "pure",
      "type": "function"
    },
    {
      "inputs": [
        {
          "components": [
            {
              "internalType": "int32",
              "name": "lng",
              "type": "int32"
            },
            {
              "internalType": "int32",
              "name": "lat",
              "type": "int32"
            }
          ],
          "internalType": "struct Position",
          "name": "pos",
          "type": "tuple"
        }
      ],
      "name": "hasLand",
      "outputs": [
        {
          "internalType": "bool",
          "name": "has",
          "type": "bool"
        }
      ],
      "stateMutability": "view",
      "type": "function"
    },
    {
      "inputs": [],
      "name": "landEnd",
      "outputs": [
        {
          "internalType": "uint256",
          "name": "",
          "type": "uint256"
        }
      ],
      "stateMutability": "view",
      "type": "function"
    },
    {
      "inputs": [
        {
          "internalType": "uint256",
          "name": "index",
          "type": "uint256"
        }
      ],
      "name": "landGuestCount",
      "outputs": [
        {
          "internalType": "uint256",
          "name": "",
          "type": "uint256"
        }
      ],
      "stateMutability": "view",
      "type": "function"
    },
    {
      "inputs": [
        {
          "internalType": "uint256",
          "name": "",
          "type": "uint256"
        },
        {
          "internalType": "uint256",
          "name": "",
          "type": "uint256"
        }
      ],
      "name": "landGuests",
      "outputs": [
        {
          "internalType": "address",
          "name": "",
          "type": "address"
        }
      ],
      "stateMutability": "view",
      "type": "function"
    },
    {
      "inputs": [],
      "name": "landStart",
      "outputs": [
        {
          "internalType": "uint256",
          "name": "",
          "type": "uint256"
        }
      ],
      "stateMutability": "view",
      "type": "function"
    },
    {
      "inputs": [
        {
          "internalType": "address",
          "name": "",
          "type": "address"
        }
      ],
      "name": "lastLight",
      "outputs": [
        {
          "internalType": "uint256",
          "name": "blkNum",
          "type": "uint256"
        },
        {
          "internalType": "uint256",
          "name": "locIdx",
          "type": "uint256"
        }
      ],
      "stateMutability": "view",
      "type": "function"
    },
    {
      "inputs": [
        {
          "components": [
            {
              "internalType": "int32",
              "name": "lng",
              "type": "int32"
            },
            {
              "internalType": "int32",
              "name": "lat",
              "type": "int32"
            }
          ],
          "internalType": "struct Position",
          "name": "pos",
          "type": "tuple"
        }
      ],
      "name": "lightLand",
      "outputs": [],
      "stateMutability": "nonpayable",
      "type": "function"
    },
    {
      "inputs": [
        {
          "components": [
            {
              "internalType": "int32",
              "name": "lng",
              "type": "int32"
            },
            {
              "internalType": "int32",
              "name": "lat",
              "type": "int32"
            }
          ],
          "internalType": "struct Position",
          "name": "pos",
          "type": "tuple"
        },
        {
          "internalType": "string",
          "name": "name",
          "type": "string"
        },
        {
          "internalType": "string",
          "name": "url",
          "type": "string"
        },
        {
          "internalType": "enum LandType",
          "name": "typ",
          "type": "uint8"
        }
      ],
      "name": "mintLand",
      "outputs": [],
      "stateMutability": "payable",
      "type": "function"
    },
    {
      "inputs": [
        {
          "internalType": "uint256",
          "name": "index",
          "type": "uint256"
        },
        {
          "internalType": "string",
          "name": "name",
          "type": "string"
        },
        {
          "internalType": "string",
          "name": "url",
          "type": "string"
        }
      ],
      "name": "modLand",
      "outputs": [],
      "stateMutability": "nonpayable",
      "type": "function"
    },
    {
      "inputs": [
        {
          "internalType": "uint256",
          "name": "index",
          "type": "uint256"
        },
        {
          "internalType": "uint256",
          "name": "price",
          "type": "uint256"
        }
      ],
      "name": "modPrice",
      "outputs": [],
      "stateMutability": "nonpayable",
      "type": "function"
    },
    {
      "inputs": [],
      "name": "owner",
      "outputs": [
        {
          "internalType": "address",
          "name": "",
          "type": "address"
        }
      ],
      "stateMutability": "view",
      "type": "function"
    },
    {
      "inputs": [
        {
          "internalType": "address",
          "name": "addr",
          "type": "address"
        }
      ],
      "name": "passLandCount",
      "outputs": [
        {
          "internalType": "uint256",
          "name": "",
          "type": "uint256"
        }
      ],
      "stateMutability": "view",
      "type": "function"
    },
    {
      "inputs": [
        {
          "internalType": "address",
          "name": "",
          "type": "address"
        },
        {
          "internalType": "uint256",
          "name": "",
          "type": "uint256"
        }
      ],
      "name": "passLands",
      "outputs": [
        {
          "internalType": "uint256",
          "name": "",
          "type": "uint256"
        }
      ],
      "stateMutability": "view",
      "type": "function"
    },
    {
      "inputs": [
        {
          "internalType": "int32",
          "name": "",
          "type": "int32"
        },
        {
          "internalType": "int32",
          "name": "",
          "type": "int32"
        }
      ],
      "name": "posLand",
      "outputs": [
        {
          "internalType": "uint256",
          "name": "",
          "type": "uint256"
        }
      ],
      "stateMutability": "view",
      "type": "function"
    },
    {
      "inputs": [],
      "name": "renounceOwnership",
      "outputs": [],
      "stateMutability": "nonpayable",
      "type": "function"
    },
    {
      "inputs": [
        {
          "internalType": "address",
          "name": "newOwner",
          "type": "address"
        }
      ],
      "name": "transferOwnership",
      "outputs": [],
      "stateMutability": "nonpayable",
      "type": "function"
    },
    {
      "inputs": [],
      "name": "withdraw",
      "outputs": [],
      "stateMutability": "nonpayable",
      "type": "function"
    },
    {
      "stateMutability": "payable",
      "type": "receive"
    }
  ],
  "bytecode": "0x60806040523480156200001157600080fd5b506200003262000026620002b660201b60201c565b620002be60201b60201c565b60026040518060c001604052803373ffffffffffffffffffffffffffffffffffffffff1681526020016040518060400160405280600c81526020017f4d6565742047656e65736973000000000000000000000000000000000000000081525081526020016040518060400160405280600881526020017f6d6565742e78797a00000000000000000000000000000000000000000000000081525081526020016004600c8111156200010c577f4e487b7100000000000000000000000000000000000000000000000000000000600052602160045260246000fd5b81526020016040518060400160405280600060030b8152602001600060030b815250815260200168056bc75e2d63100000815250908060018154018082558091505060019003906000526020600020906006020160009091909190915060008201518160000160006101000a81548173ffffffffffffffffffffffffffffffffffffffff021916908373ffffffffffffffffffffffffffffffffffffffff1602179055506020820151816001019080519060200190620001ce92919062000382565b506040820151816002019080519060200190620001ed92919062000382565b5060608201518160030160006101000a81548160ff0219169083600c81111562000240577f4e487b7100000000000000000000000000000000000000000000000000000000600052602160045260246000fd5b021790555060808201518160040160008201518160000160006101000a81548163ffffffff021916908360030b63ffffffff16021790555060208201518160000160046101000a81548163ffffffff021916908360030b63ffffffff160217905550505060a08201518160050155505062000497565b600033905090565b60008060009054906101000a900473ffffffffffffffffffffffffffffffffffffffff169050816000806101000a81548173ffffffffffffffffffffffffffffffffffffffff021916908373ffffffffffffffffffffffffffffffffffffffff1602179055508173ffffffffffffffffffffffffffffffffffffffff168173ffffffffffffffffffffffffffffffffffffffff167f8be0079c531659141344cd1fd0a4f28419497f9722a3daafe3b4186f6b6457e060405160405180910390a35050565b828054620003909062000432565b90600052602060002090601f016020900481019282620003b4576000855562000400565b82601f10620003cf57805160ff191683800117855562000400565b8280016001018555821562000400579182015b82811115620003ff578251825591602001919060010190620003e2565b5b5090506200040f919062000413565b5090565b5b808211156200042e57600081600090555060010162000414565b5090565b600060028204905060018216806200044b57607f821691505b6020821081141562000462576200046162000468565b5b50919050565b7f4e487b7100000000000000000000000000000000000000000000000000000000600052602260045260246000fd5b61362d80620004a76000396000f3fe6080604052600436106101695760003560e01c806369f4f5ec116100d1578063ada1c0e71161008a578063e5ab94a611610064578063e5ab94a61461057e578063e9fb376d146105a7578063f2fde38b146105e4578063fcf5ee1a1461060d57610170565b8063ada1c0e7146104da578063dc55527e14610517578063dcba29f51461054057610170565b806369f4f5ec146103b4578063715018a6146103f25780638da5cb5b14610409578063922576b0146104345780639fc1504714610472578063a1e31190146104af57610170565b80633ccfd60b116101235780633ccfd60b1461027b5780634098369e1461029257806341697be0146102cf578063447b860e14610311578063481e7ebe1461034e57806355a511f31461038b57610170565b806216c6f11461017557806314c97afa1461019e57806316aa9da1146101db5780631a52c937146101f75780633295548214610234578063377026c51461025057610170565b3661017057005b600080fd5b34801561018157600080fd5b5061019c60048036038101906101979190612280565b610636565b005b3480156101aa57600080fd5b506101c560048036038101906101c091906121c3565b6109c9565b6040516101d29190612878565b60405180910390f35b6101f560048036038101906101f09190612406565b6109fa565b005b34801561020357600080fd5b5061021e600480360381019061021991906123a1565b610d8c565b60405161022b9190612878565b60405180910390f35b61024e600480360381019061024991906122a9565b610d9b565b005b34801561025c57600080fd5b506102656110c7565b6040516102729190612878565b60405180910390f35b34801561028757600080fd5b506102906110cd565b005b34801561029e57600080fd5b506102b960048036038101906102b49190612244565b611199565b6040516102c69190612878565b60405180910390f35b3480156102db57600080fd5b506102f660048036038101906102f191906123a1565b6111be565b604051610308969594939291906126c5565b60405180910390f35b34801561031d57600080fd5b50610338600480360381019061033391906123a1565b61138b565b6040516103459190612878565b60405180910390f35b34801561035a57600080fd5b506103756004803603810190610370919061219a565b6113ab565b6040516103829190612878565b60405180910390f35b34801561039757600080fd5b506103b260048036038101906103ad9190612485565b6113f7565b005b3480156103c057600080fd5b506103db60048036038101906103d6919061219a565b611569565b6040516103e9929190612893565b60405180910390f35b3480156103fe57600080fd5b5061040761158d565b005b34801561041557600080fd5b5061041e611615565b60405161042b91906126aa565b60405180910390f35b34801561044057600080fd5b5061045b600480360381019061045691906123a1565b61163e565b604051610469929190612893565b60405180910390f35b34801561047e57600080fd5b5061049960048036038101906104949190612365565b611672565b6040516104a691906128bc565b60405180910390f35b3480156104bb57600080fd5b506104c4611717565b6040516104d19190612878565b60405180910390f35b3480156104e657600080fd5b5061050160048036038101906104fc9190612485565b61171d565b60405161050e91906126aa565b60405180910390f35b34801561052357600080fd5b5061053e600480360381019061053991906123ca565b61176b565b005b34801561054c57600080fd5b506105676004803603810190610562919061233c565b6118c9565b60405161057592919061274f565b60405180910390f35b34801561058a57600080fd5b506105a560048036038101906105a09190612406565b6118fb565b005b3480156105b357600080fd5b506105ce60048036038101906105c9919061233c565b611ade565b6040516105db9190612734565b60405180910390f35b3480156105f057600080fd5b5061060b6004803603810190610606919061219a565b611b2d565b005b34801561061957600080fd5b50610634600480360381019061062f91906121ff565b611c25565b005b6000806106528380360381019061064d919061233c565b6118c9565b915091506000600560008460030b60030b815260200190815260200160002060008360030b60030b8152602001908152602001600020549050600081116106ce576040517f08c379a00000000000000000000000000000000000000000000000000000000081526004016106c5906127d8565b60405180910390fd5b6000600860003373ffffffffffffffffffffffffffffffffffffffff1673ffffffffffffffffffffffffffffffffffffffff16815260200190815260200160002060405180604001604052908160008201548152602001600182015481525050905060008160000151146108465760006107eb86803603810190610752919061233c565b6002846020015181548110610790577f4e487b7100000000000000000000000000000000000000000000000000000000600052603260045260246000fd5b90600052602060002090600602016004016040518060400160405290816000820160009054906101000a900460030b60030b60030b81526020016000820160049054906101000a900460030b60030b60030b81525050611672565b90508063ffffffff168260000151436108049190612b5f565b11610844576040517f08c379a000000000000000000000000000000000000000000000000000000000815260040161083b906127f8565b60405180910390fd5b505b600660003373ffffffffffffffffffffffffffffffffffffffff1673ffffffffffffffffffffffffffffffffffffffff16815260200190815260200160002082908060018154018082558091505060019003906000526020600020016000909190919091505560076000838152602001908152602001600020339080600181540180825580915050600190039060005260206000200160009091909190916101000a81548173ffffffffffffffffffffffffffffffffffffffff021916908373ffffffffffffffffffffffffffffffffffffffff160217905550604051806040016040528043815260200183815250600860003373ffffffffffffffffffffffffffffffffffffffff1673ffffffffffffffffffffffffffffffffffffffff16815260200190815260200160002060008201518160000155602082015181600101559050507f7654b9db1446c4908633fa6a29c8a191ee1729e7c962b40901f699dcc79975e2826040516109ba9190612878565b60405180910390a15050505050565b600660205281600052604060002081815481106109e557600080fd5b90600052602060002001600091509150505481565b826004541015610a3f576040517f08c379a0000000000000000000000000000000000000000000000000000000008152600401610a3690612858565b60405180910390fd5b60028381548110610a79577f4e487b7100000000000000000000000000000000000000000000000000000000600052603260045260246000fd5b906000526020600020906006020160050154341015610acd576040517f08c379a0000000000000000000000000000000000000000000000000000000008152600401610ac4906127b8565b60405180910390fd5b60028381548110610b07577f4e487b7100000000000000000000000000000000000000000000000000000000600052603260045260246000fd5b906000526020600020906006020160000160009054906101000a900473ffffffffffffffffffffffffffffffffffffffff1673ffffffffffffffffffffffffffffffffffffffff166108fc600a600934610b619190612a8d565b610b6b9190612a5c565b9081150290604051600060405180830381858888f19350505050158015610b96573d6000803e3d6000fd5b503360028481548110610bd2577f4e487b7100000000000000000000000000000000000000000000000000000000600052603260045260246000fd5b906000526020600020906006020160000160006101000a81548173ffffffffffffffffffffffffffffffffffffffff021916908373ffffffffffffffffffffffffffffffffffffffff1602179055508160028481548110610c5c577f4e487b7100000000000000000000000000000000000000000000000000000000600052603260045260246000fd5b90600052602060002090600602016001019080519060200190610c80929190611f8a565b508060028481548110610cbc577f4e487b7100000000000000000000000000000000000000000000000000000000600052603260045260246000fd5b90600052602060002090600602016002019080519060200190610ce0929190611f8a565b506002808481548110610d1c577f4e487b7100000000000000000000000000000000000000000000000000000000600052603260045260246000fd5b906000526020600020906006020160050154610d389190612a8d565b60028481548110610d72577f4e487b7100000000000000000000000000000000000000000000000000000000600052603260045260246000fd5b906000526020600020906006020160050181905550505050565b60006001805490509050919050565b670de0b6b3a7640000341015610de6576040517f08c379a0000000000000000000000000000000000000000000000000000000008152600401610ddd906127b8565b60405180910390fd5b600080610e0286803603810190610dfd919061233c565b6118c9565b915091506000600560008460030b60030b815260200190815260200160002060008360030b60030b81526020019081526020016000205414610e79576040517f08c379a0000000000000000000000000000000000000000000000000000000008152600401610e7090612798565b60405180910390fd5b600280549050600560008460030b60030b815260200190815260200160002060008360030b60030b81526020019081526020016000208190555060026040518060c001604052803373ffffffffffffffffffffffffffffffffffffffff16815260200187815260200186815260200185600c811115610f21577f4e487b7100000000000000000000000000000000000000000000000000000000600052602160045260246000fd5b815260200188803603810190610f37919061233c565b8152602001671bc16d674ec80000815250908060018154018082558091505060019003906000526020600020906006020160009091909190915060008201518160000160006101000a81548173ffffffffffffffffffffffffffffffffffffffff021916908373ffffffffffffffffffffffffffffffffffffffff1602179055506020820151816001019080519060200190610fd4929190611f8a565b506040820151816002019080519060200190610ff1929190611f8a565b5060608201518160030160006101000a81548160ff0219169083600c811115611043577f4e487b7100000000000000000000000000000000000000000000000000000000600052602160045260246000fd5b021790555060808201518160040160008201518160000160006101000a81548163ffffffff021916908360030b63ffffffff16021790555060208201518160000160046101000a81548163ffffffff021916908360030b63ffffffff160217905550505060a082015181600501555050600280549050600481905550505050505050565b60035481565b6110d5611e46565b73ffffffffffffffffffffffffffffffffffffffff166110f3611615565b73ffffffffffffffffffffffffffffffffffffffff1614611149576040517f08c379a000000000000000000000000000000000000000000000000000000000815260040161114090612818565b60405180910390fd5b611151611615565b73ffffffffffffffffffffffffffffffffffffffff166108fc479081150290604051600060405180830381858888f19350505050158015611196573d6000803e3d6000fd5b50565b6005602052816000526040600020602052806000526040600020600091509150505481565b600281815481106111ce57600080fd5b90600052602060002090600602016000915090508060000160009054906101000a900473ffffffffffffffffffffffffffffffffffffffff169080600101805461121790612eff565b80601f016020809104026020016040519081016040528092919081815260200182805461124390612eff565b80156112905780601f1061126557610100808354040283529160200191611290565b820191906000526020600020905b81548152906001019060200180831161127357829003601f168201915b5050505050908060020180546112a590612eff565b80601f01602080910402602001604051908101604052809291908181526020018280546112d190612eff565b801561131e5780601f106112f35761010080835404028352916020019161131e565b820191906000526020600020905b81548152906001019060200180831161130157829003601f168201915b5050505050908060030160009054906101000a900460ff1690806004016040518060400160405290816000820160009054906101000a900460030b60030b60030b81526020016000820160049054906101000a900460030b60030b60030b81525050908060050154905086565b600060076000838152602001908152602001600020805490509050919050565b6000600660008373ffffffffffffffffffffffffffffffffffffffff1673ffffffffffffffffffffffffffffffffffffffff168152602001908152602001600020805490509050919050565b81600454101561143c576040517f08c379a000000000000000000000000000000000000000000000000000000000815260040161143390612858565b60405180910390fd5b3373ffffffffffffffffffffffffffffffffffffffff166002838154811061148d577f4e487b7100000000000000000000000000000000000000000000000000000000600052603260045260246000fd5b906000526020600020906006020160000160009054906101000a900473ffffffffffffffffffffffffffffffffffffffff1673ffffffffffffffffffffffffffffffffffffffff1614611515576040517f08c379a000000000000000000000000000000000000000000000000000000000815260040161150c90612838565b60405180910390fd5b8060028381548110611550577f4e487b7100000000000000000000000000000000000000000000000000000000600052603260045260246000fd5b9060005260206000209060060201600501819055505050565b60086020528060005260406000206000915090508060000154908060010154905082565b611595611e46565b73ffffffffffffffffffffffffffffffffffffffff166115b3611615565b73ffffffffffffffffffffffffffffffffffffffff1614611609576040517f08c379a000000000000000000000000000000000000000000000000000000000815260040161160090612818565b60405180910390fd5b6116136000611e4e565b565b60008060009054906101000a900473ffffffffffffffffffffffffffffffffffffffff16905090565b6001818154811061164e57600080fd5b90600052602060002090600202016000915090508060000154908060010154905082565b600080826000015160030b846000015160030b136116a3578360000151836000015161169e9190612ae7565b6116b8565b826000015184600001516116b79190612ae7565b5b90506000836020015160030b856020015160030b136116ea57846020015184602001516116e59190612ae7565b6116ff565b836020015185602001516116fe9190612ae7565b5b9050808261170d91906129e4565b9250505092915050565b60045481565b6007602052816000526040600020818154811061173957600080fd5b906000526020600020016000915091509054906101000a900473ffffffffffffffffffffffffffffffffffffffff1681565b611773611e46565b73ffffffffffffffffffffffffffffffffffffffff16611791611615565b73ffffffffffffffffffffffffffffffffffffffff16146117e7576040517f08c379a00000000000000000000000000000000000000000000000000000000081526004016117de90612818565b60405180910390fd5b81600454101561182c576040517f08c379a000000000000000000000000000000000000000000000000000000000815260040161182390612858565b60405180910390fd5b8060028381548110611867577f4e487b7100000000000000000000000000000000000000000000000000000000600052603260045260246000fd5b906000526020600020906006020160030160006101000a81548160ff0219169083600c8111156118c0577f4e487b7100000000000000000000000000000000000000000000000000000000600052602160045260246000fd5b02179055505050565b60008060006118db8460000151611f12565b905060006118ec8560200151611f12565b90508181935093505050915091565b826004541015611940576040517f08c379a000000000000000000000000000000000000000000000000000000000815260040161193790612858565b60405180910390fd5b3373ffffffffffffffffffffffffffffffffffffffff1660028481548110611991577f4e487b7100000000000000000000000000000000000000000000000000000000600052603260045260246000fd5b906000526020600020906006020160000160009054906101000a900473ffffffffffffffffffffffffffffffffffffffff1673ffffffffffffffffffffffffffffffffffffffff1614611a19576040517f08c379a0000000000000000000000000000000000000000000000000000000008152600401611a1090612838565b60405180910390fd5b8160028481548110611a54577f4e487b7100000000000000000000000000000000000000000000000000000000600052603260045260246000fd5b90600052602060002090600602016001019080519060200190611a78929190611f8a565b508060028481548110611ab4577f4e487b7100000000000000000000000000000000000000000000000000000000600052603260045260246000fd5b90600052602060002090600602016002019080519060200190611ad8929190611f8a565b50505050565b6000806000611aec846118c9565b915091506000600560008460030b60030b815260200190815260200160002060008360030b60030b8152602001908152602001600020541192505050919050565b611b35611e46565b73ffffffffffffffffffffffffffffffffffffffff16611b53611615565b73ffffffffffffffffffffffffffffffffffffffff1614611ba9576040517f08c379a0000000000000000000000000000000000000000000000000000000008152600401611ba090612818565b60405180910390fd5b600073ffffffffffffffffffffffffffffffffffffffff168173ffffffffffffffffffffffffffffffffffffffff161415611c19576040517f08c379a0000000000000000000000000000000000000000000000000000000008152600401611c1090612778565b60405180910390fd5b611c2281611e4e565b50565b611c2d611e46565b73ffffffffffffffffffffffffffffffffffffffff16611c4b611615565b73ffffffffffffffffffffffffffffffffffffffff1614611ca1576040517f08c379a0000000000000000000000000000000000000000000000000000000008152600401611c9890612818565b60405180910390fd5b60028054905060038190555060005b82829050811015611e3557600080611d24858585818110611cfa577f4e487b7100000000000000000000000000000000000000000000000000000000600052603260045260246000fd5b9050602002810190611d0c919061292e565b608001803603810190611d1f919061233c565b6118c9565b915091506000600560008460030b60030b815260200190815260200160002060008360030b60030b8152602001908152602001600020541415611e2057600280549050600560008460030b60030b815260200190815260200160002060008360030b60030b8152602001908152602001600020819055506002858585818110611dd6577f4e487b7100000000000000000000000000000000000000000000000000000000600052603260045260246000fd5b9050602002810190611de8919061292e565b90806001815401808255809150506001900390600052602060002090600602016000909190919091508181611e1d9190613502565b50505b50508080611e2d90612f7e565b915050611cb0565b506002805490506004819055505050565b600033905090565b60008060009054906101000a900473ffffffffffffffffffffffffffffffffffffffff169050816000806101000a81548173ffffffffffffffffffffffffffffffffffffffff021916908373ffffffffffffffffffffffffffffffffffffffff1602179055508173ffffffffffffffffffffffffffffffffffffffff168173ffffffffffffffffffffffffffffffffffffffff167f8be0079c531659141344cd1fd0a4f28419497f9722a3daafe3b4186f6b6457e060405160405180910390a35050565b600080600a83611f229190612fe5565b905060038160030b12611f755760078160030b13611f575760058184611f489190612ae7565b611f5291906129e4565b611f70565b600a8184611f659190612ae7565b611f6f91906129e4565b5b611f82565b8083611f819190612ae7565b5b915050919050565b828054611f9690612eff565b90600052602060002090601f016020900481019282611fb85760008555611fff565b82601f10611fd157805160ff1916838001178555611fff565b82800160010185558215611fff579182015b82811115611ffe578251825591602001919060010190611fe3565b5b50905061200c9190612010565b5090565b5b80821115612029576000816000905550600101612011565b5090565b600061204061203b84612977565b612952565b90508281526020810184848401111561205857600080fd5b612063848285612db8565b509392505050565b60008135905061207a8161359d565b92915050565b60008083601f84011261209257600080fd5b8235905067ffffffffffffffff8111156120ab57600080fd5b6020830191508360208202830111156120c357600080fd5b9250929050565b6000813590506120d9816135b4565b92915050565b6000813590506120ee816135c4565b92915050565b600082601f83011261210557600080fd5b813561211584826020860161202d565b91505092915050565b60006040828403121561213057600080fd5b81905092915050565b60006040828403121561214b57600080fd5b6121556040612952565b90506000612165848285016120df565b6000830152506020612179848285016120df565b60208301525092915050565b600081359050612194816135db565b92915050565b6000602082840312156121ac57600080fd5b60006121ba8482850161206b565b91505092915050565b600080604083850312156121d657600080fd5b60006121e48582860161206b565b92505060206121f585828601612185565b9150509250929050565b6000806020838503121561221257600080fd5b600083013567ffffffffffffffff81111561222c57600080fd5b61223885828601612080565b92509250509250929050565b6000806040838503121561225757600080fd5b6000612265858286016120df565b9250506020612276858286016120df565b9150509250929050565b60006040828403121561229257600080fd5b60006122a08482850161211e565b91505092915050565b60008060008060a085870312156122bf57600080fd5b60006122cd8782880161211e565b945050604085013567ffffffffffffffff8111156122ea57600080fd5b6122f6878288016120f4565b935050606085013567ffffffffffffffff81111561231357600080fd5b61231f878288016120f4565b9250506080612330878288016120ca565b91505092959194509250565b60006040828403121561234e57600080fd5b600061235c84828501612139565b91505092915050565b6000806080838503121561237857600080fd5b600061238685828601612139565b925050604061239785828601612139565b9150509250929050565b6000602082840312156123b357600080fd5b60006123c184828501612185565b91505092915050565b600080604083850312156123dd57600080fd5b60006123eb85828601612185565b92505060206123fc858286016120ca565b9150509250929050565b60008060006060848603121561241b57600080fd5b600061242986828701612185565b935050602084013567ffffffffffffffff81111561244657600080fd5b612452868287016120f4565b925050604084013567ffffffffffffffff81111561246f57600080fd5b61247b868287016120f4565b9150509250925092565b6000806040838503121561249857600080fd5b60006124a685828601612185565b92505060206124b785828601612185565b9150509250929050565b6124ca81612b93565b82525050565b6124d981612ba5565b82525050565b6124e881612c52565b82525050565b6124f781612bc4565b82525050565b61250681612bc4565b82525050565b6000612517826129c8565b61252181856129d3565b9350612531818560208601612dc7565b61253a81613181565b840191505092915050565b60006125526026836129d3565b915061255d826131de565b604082019050919050565b60006125756011836129d3565b91506125808261322d565b602082019050919050565b6000612598600e836129d3565b91506125a382613256565b602082019050919050565b60006125bb6007836129d3565b91506125c68261327f565b602082019050919050565b60006125de6009836129d3565b91506125e9826132a8565b602082019050919050565b60006126016020836129d3565b915061260c826132d1565b602082019050919050565b60006126246015836129d3565b915061262f826132fa565b602082019050919050565b6000612647600e836129d3565b915061265282613323565b602082019050919050565b60408201600082015161267360008501826124ee565b50602082015161268660208501826124ee565b50505050565b61269581612bf1565b82525050565b6126a481612bfb565b82525050565b60006020820190506126bf60008301846124c1565b92915050565b600060e0820190506126da60008301896124c1565b81810360208301526126ec818861250c565b90508181036040830152612700818761250c565b905061270f60608301866124df565b61271c608083018561265d565b61272960c083018461268c565b979650505050505050565b600060208201905061274960008301846124d0565b92915050565b600060408201905061276460008301856124fd565b61277160208301846124fd565b9392505050565b6000602082019050818103600083015261279181612545565b9050919050565b600060208201905081810360008301526127b181612568565b9050919050565b600060208201905081810360008301526127d18161258b565b9050919050565b600060208201905081810360008301526127f1816125ae565b9050919050565b60006020820190508181036000830152612811816125d1565b9050919050565b60006020820190508181036000830152612831816125f4565b9050919050565b6000602082019050818103600083015261285181612617565b9050919050565b600060208201905081810360008301526128718161263a565b9050919050565b600060208201905061288d600083018461268c565b92915050565b60006040820190506128a8600083018561268c565b6128b5602083018461268c565b9392505050565b60006020820190506128d1600083018461269b565b92915050565b600080833560016020038436030381126128f057600080fd5b80840192508235915067ffffffffffffffff82111561290e57600080fd5b60208301925060018202360383131561292657600080fd5b509250929050565b60008235600160e00383360303811261294657600080fd5b80830191505092915050565b600061295c61296d565b90506129688282612f4d565b919050565b6000604051905090565b600067ffffffffffffffff821115612992576129916130d2565b5b61299b82613181565b9050602081019050919050565b60008190508160005260206000209050919050565b600082905092915050565b600081519050919050565b600082825260208201905092915050565b60006129ef82612bc4565b91506129fa83612bc4565b925081637fffffff03831360008312151615612a1957612a18613016565b5b817fffffffffffffffffffffffffffffffffffffffffffffffffffffffff80000000038312600083121615612a5157612a50613016565b5b828201905092915050565b6000612a6782612bf1565b9150612a7283612bf1565b925082612a8257612a81613045565b5b828204905092915050565b6000612a9882612bf1565b9150612aa383612bf1565b9250817fffffffffffffffffffffffffffffffffffffffffffffffffffffffffffffffff0483118215151615612adc57612adb613016565b5b828202905092915050565b6000612af282612bc4565b9150612afd83612bc4565b9250827fffffffffffffffffffffffffffffffffffffffffffffffffffffffff8000000001821260008412151615612b3857612b37613016565b5b82637fffffff018213600084121615612b5457612b53613016565b5b828203905092915050565b6000612b6a82612bf1565b9150612b7583612bf1565b925082821015612b8857612b87613016565b5b828203905092915050565b6000612b9e82612bd1565b9050919050565b60008115159050919050565b6000819050612bbf82613589565b919050565b60008160030b9050919050565b600073ffffffffffffffffffffffffffffffffffffffff82169050919050565b6000819050919050565b600063ffffffff82169050919050565b5b81811015612c2a57612c1f6000826131c6565b600181019050612c0c565b5050565b6000612c3982612c76565b9050919050565b6000612c4b82612bb1565b9050919050565b6000612c5d82612bb1565b9050919050565b6000612c6f82612bc4565b9050919050565b6000612c8182612c88565b9050919050565b6000612c9382612bd1565b9050919050565b6000612ca582612bf1565b9050919050565b612cb683836129bd565b67ffffffffffffffff811115612ccf57612cce6130d2565b5b612cd98254612eff565b600080601f8411601f84111715612cf657612cf3856129a8565b90505b601f831115612d29576020601f85010481016020851015612d15578190505b612d276020601f860104830182612c0b565b505b601f841160018114612d565760008515612d44578388013590505b612d4e8682612f31565b875550612dae565b601f1985168260005b82811015612d8457858a01358255600182019150602086019550602081019050612d5f565b87831015612da157858a0135612d9d601f8a1682612fc7565b8355505b6001600289020189555050505b5050505050505050565b82818337600083830152505050565b60005b83811015612de5578082015181840152602081019050612dca565b83811115612df4576000848401525b50505050565b600081016000830180612e0c81613129565b9050612e188184613489565b5050506001810160208301612e2d81856128d7565b612e388183866134f2565b505050506002810160408301612e4e81856128d7565b612e598183866134f2565b50505050600381016060830180612e6f8161313f565b9050612e7b81846134ac565b505050600481016080830180612e918184613510565b5050506005810160c0830180612ea68161316b565b9050612eb2818461351e565b5050505050565b600081016000830180612ecb81613155565b9050612ed781846134cf565b505050600081016020830180612eec81613155565b9050612ef88184613541565b5050505050565b60006002820490506001821680612f1757607f821691505b60208210811415612f2b57612f2a6130a3565b5b50919050565b6000612f3d8383612fc7565b9150826002028217905092915050565b612f5682613181565b810181811067ffffffffffffffff82111715612f7557612f746130d2565b5b80604052505050565b6000612f8982612bf1565b91507fffffffffffffffffffffffffffffffffffffffffffffffffffffffffffffffff821415612fbc57612fbb613016565b5b600182019050919050565b6000612fd8600019846008026131b9565b1980831691505092915050565b6000612ff082612bc4565b9150612ffb83612bc4565b92508261300b5761300a613045565b5b828207905092915050565b7f4e487b7100000000000000000000000000000000000000000000000000000000600052601160045260246000fd5b7f4e487b7100000000000000000000000000000000000000000000000000000000600052601260045260246000fd5b7f4e487b7100000000000000000000000000000000000000000000000000000000600052602160045260246000fd5b7f4e487b7100000000000000000000000000000000000000000000000000000000600052602260045260246000fd5b7f4e487b7100000000000000000000000000000000000000000000000000000000600052604160045260246000fd5b6000819050919050565b6000819050919050565b6000819050919050565b6000819050919050565b600081356131368161359d565b80915050919050565b6000813561314c816135b4565b80915050919050565b60008135613162816135c4565b80915050919050565b60008135613178816135db565b80915050919050565b6000601f19601f8301169050919050565b60008160001b9050919050565b60008160201b9050919050565b600082821b905092915050565b600082821c905092915050565b6131ce6135f2565b6131d9818484613564565b505050565b7f4f776e61626c653a206e6577206f776e657220697320746865207a65726f206160008201527f6464726573730000000000000000000000000000000000000000000000000000602082015250565b7f416c726561647920686173206c616e6421000000000000000000000000000000600082015250565b7f507269636520746f6f206c6f7721000000000000000000000000000000000000600082015250565b7f4e6f204c616e6400000000000000000000000000000000000000000000000000600082015250565b7f546f6f2073686f72740000000000000000000000000000000000000000000000600082015250565b7f4f776e61626c653a2063616c6c6572206973206e6f7420746865206f776e6572600082015250565b7f4f6e6c7920686f73742063616e206d6f64696679210000000000000000000000600082015250565b7f496e64657820746f6f2062696721000000000000000000000000000000000000600082015250565b600060ff61335984613192565b9350801983169250808416831791505092915050565b600073ffffffffffffffffffffffffffffffffffffffff61338f84613192565b9350801983169250808416831791505092915050565b60007fffffffffffffffffffffffffffffffffffffffffffffffffffffffffffffffff6133d184613192565b9350801983169250808416831791505092915050565b600063ffffffff6133f784613192565b9350801983169250808416831791505092915050565b600067ffffffff000000006134218461319f565b9350801983169250808416831791505092915050565b6000600883026134677fffffffffffffffffffffffffffffffffffffffffffffffffffffffffffffffff826131ac565b61347186836131ac565b95508019841693508086168417925050509392505050565b61349282612c2e565b6134a561349e82613101565b835461336f565b8255505050565b6134b582612c40565b6134c86134c18261310b565b835461334c565b8255505050565b6134d882612c64565b6134eb6134e482613115565b83546133e7565b8255505050565b6134fd838383612cac565b505050565b61350c8282612dfa565b5050565b61351a8282612eb9565b5050565b61352782612c9a565b61353a6135338261311f565b83546133a5565b8255505050565b61354a82612c64565b61355d61355682613115565b835461340d565b8255505050565b61356d83612c9a565b6135816135798261311f565b848454613437565b825550505050565b600d811061359a57613599613074565b5b50565b6135a681612b93565b81146135b157600080fd5b50565b600d81106135c157600080fd5b50565b6135cd81612bc4565b81146135d857600080fd5b50565b6135e481612bf1565b81146135ef57600080fd5b50565b60009056fea264697066735822122012235ae701428c742de9acf39ba0629cd64af40b42a31be63c6b4bfb5cb01c8c64736f6c63430008030033",
  "linkReferences": {},
  "deployedLinkReferences": {}
}