{
  "_format": "hh-sol-artifact-1",
  "contractName": "MeetSH",
  "sourceName": "contracts/Meet.sol",
  "abi": [
    {
      "inputs": [],
      "stateMutability": "nonpayable",
      "type": "constructor"
    },
    {
      "anonymous": false,
      "inputs": [
        {
          "indexed": false,
          "internalType": "uint256",
          "name": "index",
          "type": "uint256"
        }
      ],
      "name": "LightLand",
      "type": "event"
    },
    {
      "anonymous": false,
      "inputs": [
        {
          "indexed": true,
          "internalType": "address",
          "name": "previousOwner",
          "type": "address"
        },
        {
          "indexed": true,
          "internalType": "address",
          "name": "newOwner",
          "type": "address"
        }
      ],
      "name": "OwnershipTransferred",
      "type": "event"
    },
    {
      "inputs": [
        {
          "components": [
            {
              "internalType": "address",
              "name": "host",
              "type": "address"
            },
            {
              "internalType": "address[]",
              "name": "guests",
              "type": "address[]"
            },
            {
              "internalType": "string",
              "name": "name",
              "type": "string"
            },
            {
              "internalType": "string",
              "name": "url",
              "type": "string"
            },
            {
              "internalType": "enum LandType",
              "name": "typ",
              "type": "uint8"
            },
            {
              "components": [
                {
                  "internalType": "int32",
                  "name": "lat",
                  "type": "int32"
                },
                {
                  "internalType": "int32",
                  "name": "lng",
                  "type": "int32"
                }
              ],
              "internalType": "struct Position",
              "name": "pos",
              "type": "tuple"
            },
            {
              "internalType": "uint256",
              "name": "price",
              "type": "uint256"
            }
          ],
          "internalType": "struct Land[]",
          "name": "lands",
          "type": "tuple[]"
        }
      ],
      "name": "addLands",
      "outputs": [],
      "stateMutability": "nonpayable",
      "type": "function"
    },
    {
      "inputs": [
        {
          "internalType": "uint256",
          "name": "",
          "type": "uint256"
        }
      ],
      "name": "allLands",
      "outputs": [
        {
          "internalType": "address",
          "name": "host",
          "type": "address"
        },
        {
          "internalType": "string",
          "name": "name",
          "type": "string"
        },
        {
          "internalType": "string",
          "name": "url",
          "type": "string"
        },
        {
          "internalType": "enum LandType",
          "name": "typ",
          "type": "uint8"
        },
        {
          "components": [
            {
              "internalType": "int32",
              "name": "lat",
              "type": "int32"
            },
            {
              "internalType": "int32",
              "name": "lng",
              "type": "int32"
            }
          ],
          "internalType": "struct Position",
          "name": "pos",
          "type": "tuple"
        },
        {
          "internalType": "uint256",
          "name": "price",
          "type": "uint256"
        }
      ],
      "stateMutability": "view",
      "type": "function"
    },
    {
      "inputs": [
        {
          "internalType": "uint256",
          "name": "index",
          "type": "uint256"
        },
        {
          "internalType": "string",
          "name": "name",
          "type": "string"
        },
        {
          "internalType": "string",
          "name": "url",
          "type": "string"
        }
      ],
      "name": "buyLand",
      "outputs": [],
      "stateMutability": "payable",
      "type": "function"
    },
    {
      "inputs": [
        {
          "internalType": "uint256",
          "name": "index",
          "type": "uint256"
        },
        {
          "internalType": "enum LandType",
          "name": "typ",
          "type": "uint8"
        }
      ],
      "name": "changeType",
      "outputs": [],
      "stateMutability": "nonpayable",
      "type": "function"
    },
    {
      "inputs": [],
      "name": "landCount",
      "outputs": [
        {
          "internalType": "uint256",
          "name": "",
          "type": "uint256"
        }
      ],
      "stateMutability": "view",
      "type": "function"
    },
    {
      "inputs": [],
      "name": "landStart",
      "outputs": [
        {
          "internalType": "uint256",
          "name": "",
          "type": "uint256"
        }
      ],
      "stateMutability": "view",
      "type": "function"
    },
    {
      "inputs": [
        {
          "internalType": "address",
          "name": "",
          "type": "address"
        }
      ],
      "name": "lastLight",
      "outputs": [
        {
          "internalType": "uint256",
          "name": "blkNum",
          "type": "uint256"
        },
        {
          "internalType": "uint256",
          "name": "locIdx",
          "type": "uint256"
        }
      ],
      "stateMutability": "view",
      "type": "function"
    },
    {
      "inputs": [
        {
          "components": [
            {
              "internalType": "int32",
              "name": "lat",
              "type": "int32"
            },
            {
              "internalType": "int32",
              "name": "lng",
              "type": "int32"
            }
          ],
          "internalType": "struct Position",
          "name": "pos",
          "type": "tuple"
        }
      ],
      "name": "lightLand",
      "outputs": [],
      "stateMutability": "nonpayable",
      "type": "function"
    },
    {
      "inputs": [
        {
          "components": [
            {
              "internalType": "int32",
              "name": "lat",
              "type": "int32"
            },
            {
              "internalType": "int32",
              "name": "lng",
              "type": "int32"
            }
          ],
          "internalType": "struct Position",
          "name": "pos",
          "type": "tuple"
        },
        {
          "internalType": "string",
          "name": "name",
          "type": "string"
        },
        {
          "internalType": "string",
          "name": "url",
          "type": "string"
        },
        {
          "internalType": "enum LandType",
          "name": "typ",
          "type": "uint8"
        }
      ],
      "name": "mintLand",
      "outputs": [],
      "stateMutability": "payable",
      "type": "function"
    },
    {
      "inputs": [
        {
          "internalType": "uint256",
          "name": "index",
          "type": "uint256"
        },
        {
          "internalType": "string",
          "name": "name",
          "type": "string"
        },
        {
          "internalType": "string",
          "name": "url",
          "type": "string"
        }
      ],
      "name": "modLand",
      "outputs": [],
      "stateMutability": "nonpayable",
      "type": "function"
    },
    {
      "inputs": [
        {
          "internalType": "uint256",
          "name": "index",
          "type": "uint256"
        },
        {
          "internalType": "uint256",
          "name": "price",
          "type": "uint256"
        }
      ],
      "name": "modPrice",
      "outputs": [],
      "stateMutability": "nonpayable",
      "type": "function"
    },
    {
      "inputs": [
        {
          "internalType": "address",
          "name": "",
          "type": "address"
        },
        {
          "internalType": "uint256",
          "name": "",
          "type": "uint256"
        }
      ],
      "name": "ownedLands",
      "outputs": [
        {
          "internalType": "uint256",
          "name": "",
          "type": "uint256"
        }
      ],
      "stateMutability": "view",
      "type": "function"
    },
    {
      "inputs": [],
      "name": "owner",
      "outputs": [
        {
          "internalType": "address",
          "name": "",
          "type": "address"
        }
      ],
      "stateMutability": "view",
      "type": "function"
    },
    {
      "inputs": [
        {
          "internalType": "int32",
          "name": "",
          "type": "int32"
        },
        {
          "internalType": "int32",
          "name": "",
          "type": "int32"
        }
      ],
      "name": "posLand",
      "outputs": [
        {
          "internalType": "uint256",
          "name": "",
          "type": "uint256"
        }
      ],
      "stateMutability": "view",
      "type": "function"
    },
    {
      "inputs": [],
      "name": "renounceOwnership",
      "outputs": [],
      "stateMutability": "nonpayable",
      "type": "function"
    },
    {
      "inputs": [
        {
          "internalType": "address",
          "name": "newOwner",
          "type": "address"
        }
      ],
      "name": "transferOwnership",
      "outputs": [],
      "stateMutability": "nonpayable",
      "type": "function"
    },
    {
      "inputs": [],
      "name": "withdraw",
      "outputs": [],
      "stateMutability": "nonpayable",
      "type": "function"
    },
    {
      "stateMutability": "payable",
      "type": "receive"
    }
  ],
  "bytecode": "0x60806040523480156200001157600080fd5b5062000032620000266200034c60201b60201c565b6200035460201b60201c565b60046040518060e001604052803373ffffffffffffffffffffffffffffffffffffffff168152602001600067ffffffffffffffff8111156200009d577f4e487b7100000000000000000000000000000000000000000000000000000000600052604160045260246000fd5b604051908082528060200260200182016040528015620000cc5781602001602082028036833780820191505090505b5081526020016040518060400160405280600c81526020017f4d6565742047656e65736973000000000000000000000000000000000000000081525081526020016040518060400160405280600881526020017f6d6565742e78797a00000000000000000000000000000000000000000000000081525081526020016004600c81111562000183577f4e487b7100000000000000000000000000000000000000000000000000000000600052602160045260246000fd5b81526020016040518060400160405280600060030b8152602001600060030b815250815260200168056bc75e2d63100000815250908060018154018082558091505060019003906000526020600020906007020160009091909190915060008201518160000160006101000a81548173ffffffffffffffffffffffffffffffffffffffff021916908373ffffffffffffffffffffffffffffffffffffffff16021790555060208201518160010190805190602001906200024592919062000418565b50604082015181600201908051906020019062000264929190620004a7565b50606082015181600301908051906020019062000283929190620004a7565b5060808201518160040160006101000a81548160ff0219169083600c811115620002d6577f4e487b7100000000000000000000000000000000000000000000000000000000600052602160045260246000fd5b021790555060a08201518160050160008201518160000160006101000a81548163ffffffff021916908360030b63ffffffff16021790555060208201518160000160046101000a81548163ffffffff021916908360030b63ffffffff160217905550505060c082015181600601555050620005bc565b600033905090565b60008060009054906101000a900473ffffffffffffffffffffffffffffffffffffffff169050816000806101000a81548173ffffffffffffffffffffffffffffffffffffffff021916908373ffffffffffffffffffffffffffffffffffffffff1602179055508173ffffffffffffffffffffffffffffffffffffffff168173ffffffffffffffffffffffffffffffffffffffff167f8be0079c531659141344cd1fd0a4f28419497f9722a3daafe3b4186f6b6457e060405160405180910390a35050565b82805482825590600052602060002090810192821562000494579160200282015b82811115620004935782518260006101000a81548173ffffffffffffffffffffffffffffffffffffffff021916908373ffffffffffffffffffffffffffffffffffffffff1602179055509160200191906001019062000439565b5b509050620004a3919062000538565b5090565b828054620004b59062000557565b90600052602060002090601f016020900481019282620004d9576000855562000525565b82601f10620004f457805160ff191683800117855562000525565b8280016001018555821562000525579182015b828111156200052457825182559160200191906001019062000507565b5b50905062000534919062000538565b5090565b5b808211156200055357600081600090555060010162000539565b5090565b600060028204905060018216806200057057607f821691505b602082108114156200058757620005866200058d565b5b50919050565b7f4e487b7100000000000000000000000000000000000000000000000000000000600052602260045260246000fd5b61361880620005cc6000396000f3fe6080604052600436106101015760003560e01c806369f4f5ec11610095578063b6f8499111610064578063b6f8499114610301578063d7bce6581461033e578063dc55527e14610369578063e5ab94a614610392578063f2fde38b146103bb57610108565b806369f4f5ec146102585780636eb4ed2d14610296578063715018a6146102bf5780638da5cb5b146102d657610108565b80633ccfd60b116100d15780633ccfd60b146101995780634098369e146101b057806341697be0146101ed57806355a511f31461022f57610108565b806216c6f11461010d57806316aa9da1146101365780633295548214610152578063377026c51461016e57610108565b3661010857005b600080fd5b34801561011957600080fd5b50610134600480360381019061012f919061211f565b6103e4565b005b610150600480360381019061014b9190612269565b6108a4565b005b61016c60048036038101906101679190612148565b610c37565b005b34801561017a57600080fd5b5061018361101f565b604051610190919061266a565b60405180910390f35b3480156101a557600080fd5b506101ae611025565b005b3480156101bc57600080fd5b506101d760048036038101906101d291906120e3565b6110f1565b6040516101e4919061266a565b60405180910390f35b3480156101f957600080fd5b50610214600480360381019061020f9190612204565b611116565b604051610226969594939291906124fb565b60405180910390f35b34801561023b57600080fd5b50610256600480360381019061025191906122e8565b6112e3565b005b34801561026457600080fd5b5061027f600480360381019061027a9190612010565b611455565b60405161028d929190612685565b60405180910390f35b3480156102a257600080fd5b506102bd60048036038101906102b89190612075565b611479565b005b3480156102cb57600080fd5b506102d4611711565b005b3480156102e257600080fd5b506102eb611799565b6040516102f891906124e0565b60405180910390f35b34801561030d57600080fd5b5061032860048036038101906103239190612039565b6117c2565b604051610335919061266a565b60405180910390f35b34801561034a57600080fd5b506103536117f3565b604051610360919061266a565b60405180910390f35b34801561037557600080fd5b50610390600480360381019061038b919061222d565b6117f9565b005b34801561039e57600080fd5b506103b960048036038101906103b49190612269565b611957565b005b3480156103c757600080fd5b506103e260048036038101906103dd9190612010565b611b3a565b005b60006104018260000160208101906103fc91906120ba565b611c32565b9050600061042083602001602081019061041b91906120ba565b611c32565b90506000600360008460030b60030b815260200190815260200160002060008360030b60030b8152602001908152602001600020549050600081141561049b576040517f08c379a00000000000000000000000000000000000000000000000000000000081526004016104929061260a565b60405180910390fd5b6000600260003373ffffffffffffffffffffffffffffffffffffffff1673ffffffffffffffffffffffffffffffffffffffff16815260200190815260200160002060405180604001604052908160008201548152602001600182015481525050905060008160000151146106e95760006004826020015181548110610549577f4e487b7100000000000000000000000000000000000000000000000000000000600052603260045260246000fd5b90600052602060002090600702016005016040518060400160405290816000820160009054906101000a900460030b60030b60030b81526020016000820160049054906101000a900460030b60030b60030b8152505090506000816000015160030b8760000160208101906105be91906120ba565b60030b136105ed578660000160208101906105d991906120ba565b82600001516105e89190612960565b610610565b816000015187600001602081019061060591906120ba565b61060f9190612960565b5b90506000826020015160030b88602001602081019061062f91906120ba565b60030b1361065e5787602001602081019061064a91906120ba565b83602001516106599190612960565b610681565b826020015188602001602081019061067691906120ba565b6106809190612960565b5b9050818261068f919061285d565b63ffffffff168460000151436106a591906129d8565b116106e5576040517f08c379a00000000000000000000000000000000000000000000000000000000081526004016106dc906125ca565b60405180910390fd5b5050505b600160003373ffffffffffffffffffffffffffffffffffffffff1673ffffffffffffffffffffffffffffffffffffffff16815260200190815260200160002082908060018154018082558091505060019003906000526020600020016000909190919091505560048281548110610789577f4e487b7100000000000000000000000000000000000000000000000000000000600052603260045260246000fd5b9060005260206000209060070201600101339080600181540180825580915050600190039060005260206000200160009091909190916101000a81548173ffffffffffffffffffffffffffffffffffffffff021916908373ffffffffffffffffffffffffffffffffffffffff160217905550604051806040016040528043815260200183815250600260003373ffffffffffffffffffffffffffffffffffffffff1673ffffffffffffffffffffffffffffffffffffffff16815260200190815260200160002060008201518160000155602082015181600101559050507f7654b9db1446c4908633fa6a29c8a191ee1729e7c962b40901f699dcc79975e282604051610895919061266a565b60405180910390a15050505050565b8260065410156108e9576040517f08c379a00000000000000000000000000000000000000000000000000000000081526004016108e09061264a565b60405180910390fd5b60048381548110610923577f4e487b7100000000000000000000000000000000000000000000000000000000600052603260045260246000fd5b906000526020600020906007020160060154341015610977576040517f08c379a000000000000000000000000000000000000000000000000000000000815260040161096e906125aa565b60405180910390fd5b600483815481106109b1577f4e487b7100000000000000000000000000000000000000000000000000000000600052603260045260246000fd5b906000526020600020906007020160000160009054906101000a900473ffffffffffffffffffffffffffffffffffffffff1673ffffffffffffffffffffffffffffffffffffffff166108fc600a600934610a0b9190612906565b610a1591906128d5565b9081150290604051600060405180830381858888f19350505050158015610a40573d6000803e3d6000fd5b503360048481548110610a7c577f4e487b7100000000000000000000000000000000000000000000000000000000600052603260045260246000fd5b906000526020600020906007020160000160006101000a81548173ffffffffffffffffffffffffffffffffffffffff021916908373ffffffffffffffffffffffffffffffffffffffff1602179055508160048481548110610b06577f4e487b7100000000000000000000000000000000000000000000000000000000600052603260045260246000fd5b90600052602060002090600702016002019080519060200190610b2a929190611d76565b508060048481548110610b66577f4e487b7100000000000000000000000000000000000000000000000000000000600052603260045260246000fd5b90600052602060002090600702016003019080519060200190610b8a929190611d76565b50600260048481548110610bc7577f4e487b7100000000000000000000000000000000000000000000000000000000600052603260045260246000fd5b906000526020600020906007020160060154610be39190612906565b60048481548110610c1d577f4e487b7100000000000000000000000000000000000000000000000000000000600052603260045260246000fd5b906000526020600020906007020160060181905550505050565b670de0b6b3a7640000341015610c82576040517f08c379a0000000000000000000000000000000000000000000000000000000008152600401610c79906125aa565b60405180910390fd5b6000610c9f856000016020810190610c9a91906120ba565b611c32565b90506000610cbe866020016020810190610cb991906120ba565b611c32565b90506000600360008460030b60030b815260200190815260200160002060008360030b60030b81526020019081526020016000205414610d33576040517f08c379a0000000000000000000000000000000000000000000000000000000008152600401610d2a9061258a565b60405180910390fd5b600480549050600360008460030b60030b815260200190815260200160002060008360030b60030b81526020019081526020016000208190555060046040518060e001604052803373ffffffffffffffffffffffffffffffffffffffff168152602001600067ffffffffffffffff811115610dd7577f4e487b7100000000000000000000000000000000000000000000000000000000600052604160045260246000fd5b604051908082528060200260200182016040528015610e055781602001602082028036833780820191505090505b50815260200187815260200186815260200185600c811115610e50577f4e487b7100000000000000000000000000000000000000000000000000000000600052602160045260246000fd5b815260200188803603810190610e6691906121db565b8152602001671bc16d674ec80000815250908060018154018082558091505060019003906000526020600020906007020160009091909190915060008201518160000160006101000a81548173ffffffffffffffffffffffffffffffffffffffff021916908373ffffffffffffffffffffffffffffffffffffffff1602179055506020820151816001019080519060200190610f03929190611dfc565b506040820151816002019080519060200190610f20929190611d76565b506060820151816003019080519060200190610f3d929190611d76565b5060808201518160040160006101000a81548160ff0219169083600c811115610f8f577f4e487b7100000000000000000000000000000000000000000000000000000000600052602160045260246000fd5b021790555060a08201518160050160008201518160000160006101000a81548163ffffffff021916908360030b63ffffffff16021790555060208201518160000160046101000a81548163ffffffff021916908360030b63ffffffff160217905550505060c082015181600601555050600160048054905061101191906129d8565b600681905550505050505050565b60055481565b61102d611caa565b73ffffffffffffffffffffffffffffffffffffffff1661104b611799565b73ffffffffffffffffffffffffffffffffffffffff16146110a1576040517f08c379a0000000000000000000000000000000000000000000000000000000008152600401611098906125ea565b60405180910390fd5b6110a9611799565b73ffffffffffffffffffffffffffffffffffffffff166108fc479081150290604051600060405180830381858888f193505050501580156110ee573d6000803e3d6000fd5b50565b6003602052816000526040600020602052806000526040600020600091509150505481565b6004818154811061112657600080fd5b90600052602060002090600702016000915090508060000160009054906101000a900473ffffffffffffffffffffffffffffffffffffffff169080600201805461116f90612e0b565b80601f016020809104026020016040519081016040528092919081815260200182805461119b90612e0b565b80156111e85780601f106111bd576101008083540402835291602001916111e8565b820191906000526020600020905b8154815290600101906020018083116111cb57829003601f168201915b5050505050908060030180546111fd90612e0b565b80601f016020809104026020016040519081016040528092919081815260200182805461122990612e0b565b80156112765780601f1061124b57610100808354040283529160200191611276565b820191906000526020600020905b81548152906001019060200180831161125957829003601f168201915b5050505050908060040160009054906101000a900460ff1690806005016040518060400160405290816000820160009054906101000a900460030b60030b60030b81526020016000820160049054906101000a900460030b60030b60030b81525050908060060154905086565b816006541015611328576040517f08c379a000000000000000000000000000000000000000000000000000000000815260040161131f9061264a565b60405180910390fd5b3373ffffffffffffffffffffffffffffffffffffffff1660048381548110611379577f4e487b7100000000000000000000000000000000000000000000000000000000600052603260045260246000fd5b906000526020600020906007020160000160009054906101000a900473ffffffffffffffffffffffffffffffffffffffff1673ffffffffffffffffffffffffffffffffffffffff1614611401576040517f08c379a00000000000000000000000000000000000000000000000000000000081526004016113f89061262a565b60405180910390fd5b806004838154811061143c577f4e487b7100000000000000000000000000000000000000000000000000000000600052603260045260246000fd5b9060005260206000209060070201600601819055505050565b60026020528060005260406000206000915090508060000154908060010154905082565b611481611caa565b73ffffffffffffffffffffffffffffffffffffffff1661149f611799565b73ffffffffffffffffffffffffffffffffffffffff16146114f5576040517f08c379a00000000000000000000000000000000000000000000000000000000081526004016114ec906125ea565b60405180910390fd5b60048054905060058190555060005b828290508110156116f457600061157984848481811061154d577f4e487b7100000000000000000000000000000000000000000000000000000000600052603260045260246000fd5b905060200281019061155f919061275c565b60a001600001602081019061157491906120ba565b611c32565b905060006115e58585858181106115b9577f4e487b7100000000000000000000000000000000000000000000000000000000600052603260045260246000fd5b90506020028101906115cb919061275c565b60a00160200160208101906115e091906120ba565b611c32565b90506000600360008460030b60030b815260200190815260200160002060008360030b60030b81526020019081526020016000205414156116df57600480549050600360008460030b60030b815260200190815260200160002060008360030b60030b8152602001908152602001600020819055506004858585818110611695577f4e487b7100000000000000000000000000000000000000000000000000000000600052603260045260246000fd5b90506020028101906116a7919061275c565b908060018154018082558091505060019003906000526020600020906007020160009091909190915081816116dc91906134c8565b50505b505080806116ec90612e8a565b915050611504565b50600160048054905061170791906129d8565b6006819055505050565b611719611caa565b73ffffffffffffffffffffffffffffffffffffffff16611737611799565b73ffffffffffffffffffffffffffffffffffffffff161461178d576040517f08c379a0000000000000000000000000000000000000000000000000000000008152600401611784906125ea565b60405180910390fd5b6117976000611cb2565b565b60008060009054906101000a900473ffffffffffffffffffffffffffffffffffffffff16905090565b600160205281600052604060002081815481106117de57600080fd5b90600052602060002001600091509150505481565b60065481565b611801611caa565b73ffffffffffffffffffffffffffffffffffffffff1661181f611799565b73ffffffffffffffffffffffffffffffffffffffff1614611875576040517f08c379a000000000000000000000000000000000000000000000000000000000815260040161186c906125ea565b60405180910390fd5b8160065410156118ba576040517f08c379a00000000000000000000000000000000000000000000000000000000081526004016118b19061264a565b60405180910390fd5b80600483815481106118f5577f4e487b7100000000000000000000000000000000000000000000000000000000600052603260045260246000fd5b906000526020600020906007020160040160006101000a81548160ff0219169083600c81111561194e577f4e487b7100000000000000000000000000000000000000000000000000000000600052602160045260246000fd5b02179055505050565b82600654101561199c576040517f08c379a00000000000000000000000000000000000000000000000000000000081526004016119939061264a565b60405180910390fd5b3373ffffffffffffffffffffffffffffffffffffffff16600484815481106119ed577f4e487b7100000000000000000000000000000000000000000000000000000000600052603260045260246000fd5b906000526020600020906007020160000160009054906101000a900473ffffffffffffffffffffffffffffffffffffffff1673ffffffffffffffffffffffffffffffffffffffff1614611a75576040517f08c379a0000000000000000000000000000000000000000000000000000000008152600401611a6c9061262a565b60405180910390fd5b8160048481548110611ab0577f4e487b7100000000000000000000000000000000000000000000000000000000600052603260045260246000fd5b90600052602060002090600702016002019080519060200190611ad4929190611d76565b508060048481548110611b10577f4e487b7100000000000000000000000000000000000000000000000000000000600052603260045260246000fd5b90600052602060002090600702016003019080519060200190611b34929190611d76565b50505050565b611b42611caa565b73ffffffffffffffffffffffffffffffffffffffff16611b60611799565b73ffffffffffffffffffffffffffffffffffffffff1614611bb6576040517f08c379a0000000000000000000000000000000000000000000000000000000008152600401611bad906125ea565b60405180910390fd5b600073ffffffffffffffffffffffffffffffffffffffff168173ffffffffffffffffffffffffffffffffffffffff161415611c26576040517f08c379a0000000000000000000000000000000000000000000000000000000008152600401611c1d9061256a565b60405180910390fd5b611c2f81611cb2565b50565b600080600a83611c429190612ef1565b905060038160030b12611c895760078160030b13611c6b578083611c669190612960565b611c84565b60058184611c799190612960565b611c83919061285d565b5b611ca2565b60058184611c979190612960565b611ca19190612960565b5b915050919050565b600033905090565b60008060009054906101000a900473ffffffffffffffffffffffffffffffffffffffff169050816000806101000a81548173ffffffffffffffffffffffffffffffffffffffff021916908373ffffffffffffffffffffffffffffffffffffffff1602179055508173ffffffffffffffffffffffffffffffffffffffff168173ffffffffffffffffffffffffffffffffffffffff167f8be0079c531659141344cd1fd0a4f28419497f9722a3daafe3b4186f6b6457e060405160405180910390a35050565b828054611d8290612e0b565b90600052602060002090601f016020900481019282611da45760008555611deb565b82601f10611dbd57805160ff1916838001178555611deb565b82800160010185558215611deb579182015b82811115611dea578251825591602001919060010190611dcf565b5b509050611df89190611e86565b5090565b828054828255906000526020600020908101928215611e75579160200282015b82811115611e745782518260006101000a81548173ffffffffffffffffffffffffffffffffffffffff021916908373ffffffffffffffffffffffffffffffffffffffff16021790555091602001919060010190611e1c565b5b509050611e829190611e86565b5090565b5b80821115611e9f576000816000905550600101611e87565b5090565b6000611eb6611eb1846127a6565b612781565b905082815260208101848484011115611ece57600080fd5b611ed9848285612ca3565b509392505050565b600081359050611ef081613588565b92915050565b60008083601f840112611f0857600080fd5b8235905067ffffffffffffffff811115611f2157600080fd5b602083019150836020820283011115611f3957600080fd5b9250929050565b600081359050611f4f8161359f565b92915050565b600081359050611f64816135af565b92915050565b600082601f830112611f7b57600080fd5b8135611f8b848260208601611ea3565b91505092915050565b600060408284031215611fa657600080fd5b81905092915050565b600060408284031215611fc157600080fd5b611fcb6040612781565b90506000611fdb84828501611f55565b6000830152506020611fef84828501611f55565b60208301525092915050565b60008135905061200a816135c6565b92915050565b60006020828403121561202257600080fd5b600061203084828501611ee1565b91505092915050565b6000806040838503121561204c57600080fd5b600061205a85828601611ee1565b925050602061206b85828601611ffb565b9150509250929050565b6000806020838503121561208857600080fd5b600083013567ffffffffffffffff8111156120a257600080fd5b6120ae85828601611ef6565b92509250509250929050565b6000602082840312156120cc57600080fd5b60006120da84828501611f55565b91505092915050565b600080604083850312156120f657600080fd5b600061210485828601611f55565b925050602061211585828601611f55565b9150509250929050565b60006040828403121561213157600080fd5b600061213f84828501611f94565b91505092915050565b60008060008060a0858703121561215e57600080fd5b600061216c87828801611f94565b945050604085013567ffffffffffffffff81111561218957600080fd5b61219587828801611f6a565b935050606085013567ffffffffffffffff8111156121b257600080fd5b6121be87828801611f6a565b92505060806121cf87828801611f40565b91505092959194509250565b6000604082840312156121ed57600080fd5b60006121fb84828501611faf565b91505092915050565b60006020828403121561221657600080fd5b600061222484828501611ffb565b91505092915050565b6000806040838503121561224057600080fd5b600061224e85828601611ffb565b925050602061225f85828601611f40565b9150509250929050565b60008060006060848603121561227e57600080fd5b600061228c86828701611ffb565b935050602084013567ffffffffffffffff8111156122a957600080fd5b6122b586828701611f6a565b925050604084013567ffffffffffffffff8111156122d257600080fd5b6122de86828701611f6a565b9150509250925092565b600080604083850312156122fb57600080fd5b600061230985828601611ffb565b925050602061231a85828601611ffb565b9150509250929050565b61232d81612a0c565b82525050565b61233c81612ad2565b82525050565b61234b81612a31565b82525050565b600061235c82612841565b612366818561284c565b9350612376818560208601612cb2565b61237f816130f1565b840191505092915050565b600061239760268361284c565b91506123a28261314e565b604082019050919050565b60006123ba60118361284c565b91506123c58261319d565b602082019050919050565b60006123dd600e8361284c565b91506123e8826131c6565b602082019050919050565b600061240060098361284c565b915061240b826131ef565b602082019050919050565b600061242360208361284c565b915061242e82613218565b602082019050919050565b600061244660078361284c565b915061245182613241565b602082019050919050565b600061246960158361284c565b91506124748261326a565b602082019050919050565b600061248c600e8361284c565b915061249782613293565b602082019050919050565b6040820160008201516124b86000850182612342565b5060208201516124cb6020850182612342565b50505050565b6124da81612a5e565b82525050565b60006020820190506124f56000830184612324565b92915050565b600060e0820190506125106000830189612324565b81810360208301526125228188612351565b905081810360408301526125368187612351565b90506125456060830186612333565b61255260808301856124a2565b61255f60c08301846124d1565b979650505050505050565b600060208201905081810360008301526125838161238a565b9050919050565b600060208201905081810360008301526125a3816123ad565b9050919050565b600060208201905081810360008301526125c3816123d0565b9050919050565b600060208201905081810360008301526125e3816123f3565b9050919050565b6000602082019050818103600083015261260381612416565b9050919050565b6000602082019050818103600083015261262381612439565b9050919050565b600060208201905081810360008301526126438161245c565b9050919050565b600060208201905081810360008301526126638161247f565b9050919050565b600060208201905061267f60008301846124d1565b92915050565b600060408201905061269a60008301856124d1565b6126a760208301846124d1565b9392505050565b600080833560016020038436030381126126c757600080fd5b80840192508235915067ffffffffffffffff8211156126e557600080fd5b6020830192506020820236038313156126fd57600080fd5b509250929050565b6000808335600160200384360303811261271e57600080fd5b80840192508235915067ffffffffffffffff82111561273c57600080fd5b60208301925060018202360383131561275457600080fd5b509250929050565b6000823560016101000383360303811261277557600080fd5b80830191505092915050565b600061278b61279c565b90506127978282612e59565b919050565b6000604051905090565b600067ffffffffffffffff8211156127c1576127c0612fde565b5b6127ca826130f1565b9050602081019050919050565b60008190506001806001038301049050919050565b6000819050919050565b60008190508160005260206000209050919050565b60008190508160005260206000209050919050565b600082905092915050565b600081549050919050565b600082905092915050565b600081519050919050565b600082825260208201905092915050565b600061286882612a31565b915061287383612a31565b925081637fffffff0383136000831215161561289257612891612f22565b5b817fffffffffffffffffffffffffffffffffffffffffffffffffffffffff800000000383126000831216156128ca576128c9612f22565b5b828201905092915050565b60006128e082612a5e565b91506128eb83612a5e565b9250826128fb576128fa612f51565b5b828204905092915050565b600061291182612a5e565b915061291c83612a5e565b9250817fffffffffffffffffffffffffffffffffffffffffffffffffffffffffffffffff048311821515161561295557612954612f22565b5b828202905092915050565b600061296b82612a31565b915061297683612a31565b9250827fffffffffffffffffffffffffffffffffffffffffffffffffffffffff80000000018212600084121516156129b1576129b0612f22565b5b82637fffffff0182136000841216156129cd576129cc612f22565b5b828203905092915050565b60006129e382612a5e565b91506129ee83612a5e565b925082821015612a0157612a00612f22565b5b828203905092915050565b6000612a1782612a3e565b9050919050565b6000819050612a2c82613574565b919050565b60008160030b9050919050565b600073ffffffffffffffffffffffffffffffffffffffff82169050919050565b6000819050919050565b5b81811015612a8757612a7c600082613136565b600181019050612a69565b5050565b5b81811015612aaa57612a9f600082613136565b600181019050612a8c565b5050565b6000612ab982612af6565b9050919050565b6000612acb82612a1e565b9050919050565b6000612add82612a1e565b9050919050565b6000612aef82612a31565b9050919050565b6000612b0182612b08565b9050919050565b6000612b1382612a3e565b9050919050565b6000612b2582612a5e565b9050919050565b612b368383612820565b612b40818361308d565b612b49836127ec565b612b52836127f6565b6000805b84811015612b8d5783612b6881613035565b9050612b7581848661352a565b60208501945060018401935050600181019050612b56565b5050505050505050565b612ba18383612836565b67ffffffffffffffff811115612bba57612bb9612fde565b5b612bc48254612e0b565b600080601f8411601f84111715612be157612bde8561280b565b90505b601f831115612c14576020601f85010481016020851015612c00578190505b612c126020601f860104830182612a8b565b505b601f841160018114612c415760008515612c2f578388013590505b612c398682612e3d565b875550612c99565b601f1985168260005b82811015612c6f57858a01358255600182019150602086019550602081019050612c4a565b87831015612c8c57858a0135612c88601f8a1682612ed3565b8355505b6001600289020189555050505b5050505050505050565b82818337600083830152505050565b60005b83811015612cd0578082015181840152602081019050612cb5565b83811115612cdf576000848401525b50505050565b600081016000830180612cf781613035565b9050612d03818461343f565b5050506001810160208301612d1881856126ae565b612d23818386613462565b505050506002810160408301612d398185612705565b612d448183866134b8565b505050506003810160608301612d5a8185612705565b612d658183866134b8565b50505050600481016080830180612d7b8161304b565b9050612d878184613472565b5050506005810160a0830180612d9d81846134d6565b5050506006810160e0830180612db281613077565b9050612dbe81846134e4565b5050505050565b600081016000830180612dd781613061565b9050612de38184613495565b505050600081016020830180612df881613061565b9050612e048184613507565b5050505050565b60006002820490506001821680612e2357607f821691505b60208210811415612e3757612e36612faf565b5b50919050565b6000612e498383612ed3565b9150826002028217905092915050565b612e62826130f1565b810181811067ffffffffffffffff82111715612e8157612e80612fde565b5b80604052505050565b6000612e9582612a5e565b91507fffffffffffffffffffffffffffffffffffffffffffffffffffffffffffffffff821415612ec857612ec7612f22565b5b600182019050919050565b6000612ee460001984600802613129565b1980831691505092915050565b6000612efc82612a31565b9150612f0783612a31565b925082612f1757612f16612f51565b5b828207905092915050565b7f4e487b7100000000000000000000000000000000000000000000000000000000600052601160045260246000fd5b7f4e487b7100000000000000000000000000000000000000000000000000000000600052601260045260246000fd5b7f4e487b7100000000000000000000000000000000000000000000000000000000600052602160045260246000fd5b7f4e487b7100000000000000000000000000000000000000000000000000000000600052602260045260246000fd5b7f4e487b7100000000000000000000000000000000000000000000000000000000600052604160045260246000fd5b6000819050919050565b6000819050919050565b6000819050919050565b6000819050919050565b6000813561304281613588565b80915050919050565b600081356130588161359f565b80915050919050565b6000813561306e816135af565b80915050919050565b60008135613084816135c6565b80915050919050565b680100000000000000008211156130a7576130a6612fde565b5b6130b08161282b565b828255808310156130ec576130c4816127d7565b6130cd846127d7565b6130d6846127f6565b8181018382016130e68183612a68565b50505050505b505050565b6000601f19601f8301169050919050565b60008160001b9050919050565b60008160201b9050919050565b600082821b905092915050565b600082821c905092915050565b61313e6135dd565b61314981848461354f565b505050565b7f4f776e61626c653a206e6577206f776e657220697320746865207a65726f206160008201527f6464726573730000000000000000000000000000000000000000000000000000602082015250565b7f416c726561647920686173206c616e6421000000000000000000000000000000600082015250565b7f507269636520746f6f206c6f7721000000000000000000000000000000000000600082015250565b7f546f6f2073686f72740000000000000000000000000000000000000000000000600082015250565b7f4f776e61626c653a2063616c6c6572206973206e6f7420746865206f776e6572600082015250565b7f4e6f206c616e6400000000000000000000000000000000000000000000000000600082015250565b7f4f6e6c7920686f73742063616e206d6f64696679210000000000000000000000600082015250565b7f496e64657820746f6f2062696721000000000000000000000000000000000000600082015250565b600060ff6132c984613102565b9350801983169250808416831791505092915050565b600073ffffffffffffffffffffffffffffffffffffffff6132ff84613102565b9350801983169250808416831791505092915050565b60007fffffffffffffffffffffffffffffffffffffffffffffffffffffffffffffffff61334184613102565b9350801983169250808416831791505092915050565b600063ffffffff61336784613102565b9350801983169250808416831791505092915050565b600067ffffffff000000006133918461310f565b9350801983169250808416831791505092915050565b6000600883026133cb73ffffffffffffffffffffffffffffffffffffffff8261311c565b6133d5868361311c565b95508019841693508086168417925050509392505050565b60006008830261341d7fffffffffffffffffffffffffffffffffffffffffffffffffffffffffffffffff8261311c565b613427868361311c565b95508019841693508086168417925050509392505050565b61344882612aae565b61345b6134548261300d565b83546132df565b8255505050565b61346d838383612b2c565b505050565b61347b82612ac0565b61348e61348782613017565b83546132bc565b8255505050565b61349e82612ae4565b6134b16134aa82613021565b8354613357565b8255505050565b6134c3838383612b97565b505050565b6134d28282612ce5565b5050565b6134e08282612dc5565b5050565b6134ed82612b1a565b6135006134f98261302b565b8354613315565b8255505050565b61351082612ae4565b61352361351c82613021565b835461337d565b8255505050565b61353383612aae565b61354761353f8261300d565b8484546133a7565b825550505050565b61355883612b1a565b61356c6135648261302b565b8484546133ed565b825550505050565b600d811061358557613584612f80565b5b50565b61359181612a0c565b811461359c57600080fd5b50565b600d81106135ac57600080fd5b50565b6135b881612a31565b81146135c357600080fd5b50565b6135cf81612a5e565b81146135da57600080fd5b50565b60009056fea264697066735822122031498cdefc4132d76cf48e34715c197b119a05ef4814c65492e78859d7e076d264736f6c63430008030033",
  "linkReferences": {},
  "deployedLinkReferences": {}
}