{
  "_format": "hh-sol-artifact-1",
  "contractName": "MeetSH",
  "sourceName": "contracts/Meet.sol",
  "abi": [
    {
      "inputs": [],
      "stateMutability": "nonpayable",
      "type": "constructor"
    },
    {
      "anonymous": false,
      "inputs": [
        {
          "indexed": false,
          "internalType": "uint256",
          "name": "index",
          "type": "uint256"
        }
      ],
      "name": "LightLand",
      "type": "event"
    },
    {
      "anonymous": false,
      "inputs": [
        {
          "indexed": true,
          "internalType": "address",
          "name": "previousOwner",
          "type": "address"
        },
        {
          "indexed": true,
          "internalType": "address",
          "name": "newOwner",
          "type": "address"
        }
      ],
      "name": "OwnershipTransferred",
      "type": "event"
    },
    {
      "inputs": [
        {
          "components": [
            {
              "internalType": "address",
              "name": "host",
              "type": "address"
            },
            {
              "internalType": "address[]",
              "name": "guests",
              "type": "address[]"
            },
            {
              "internalType": "string",
              "name": "name",
              "type": "string"
            },
            {
              "internalType": "string",
              "name": "url",
              "type": "string"
            },
            {
              "internalType": "enum LandType",
              "name": "typ",
              "type": "uint8"
            },
            {
              "components": [
                {
                  "internalType": "int32",
                  "name": "lng",
                  "type": "int32"
                },
                {
                  "internalType": "int32",
                  "name": "lat",
                  "type": "int32"
                }
              ],
              "internalType": "struct Position",
              "name": "pos",
              "type": "tuple"
            },
            {
              "internalType": "uint256",
              "name": "price",
              "type": "uint256"
            }
          ],
          "internalType": "struct Land[]",
          "name": "lands",
          "type": "tuple[]"
        }
      ],
      "name": "addLands",
      "outputs": [],
      "stateMutability": "nonpayable",
      "type": "function"
    },
    {
      "inputs": [
        {
          "internalType": "uint256",
          "name": "",
          "type": "uint256"
        }
      ],
      "name": "allLands",
      "outputs": [
        {
          "internalType": "address",
          "name": "host",
          "type": "address"
        },
        {
          "internalType": "string",
          "name": "name",
          "type": "string"
        },
        {
          "internalType": "string",
          "name": "url",
          "type": "string"
        },
        {
          "internalType": "enum LandType",
          "name": "typ",
          "type": "uint8"
        },
        {
          "components": [
            {
              "internalType": "int32",
              "name": "lng",
              "type": "int32"
            },
            {
              "internalType": "int32",
              "name": "lat",
              "type": "int32"
            }
          ],
          "internalType": "struct Position",
          "name": "pos",
          "type": "tuple"
        },
        {
          "internalType": "uint256",
          "name": "price",
          "type": "uint256"
        }
      ],
      "stateMutability": "view",
      "type": "function"
    },
    {
      "inputs": [
        {
          "internalType": "uint256",
          "name": "index",
          "type": "uint256"
        },
        {
          "internalType": "string",
          "name": "name",
          "type": "string"
        },
        {
          "internalType": "string",
          "name": "url",
          "type": "string"
        }
      ],
      "name": "buyLand",
      "outputs": [],
      "stateMutability": "payable",
      "type": "function"
    },
    {
      "inputs": [
        {
          "components": [
            {
              "internalType": "int32",
              "name": "lng",
              "type": "int32"
            },
            {
              "internalType": "int32",
              "name": "lat",
              "type": "int32"
            }
          ],
          "internalType": "struct Position",
          "name": "pos",
          "type": "tuple"
        }
      ],
      "name": "center",
      "outputs": [
        {
          "internalType": "int32",
          "name": "lx",
          "type": "int32"
        },
        {
          "internalType": "int32",
          "name": "ly",
          "type": "int32"
        }
      ],
      "stateMutability": "pure",
      "type": "function"
    },
    {
      "inputs": [
        {
          "internalType": "uint256",
          "name": "index",
          "type": "uint256"
        },
        {
          "internalType": "enum LandType",
          "name": "typ",
          "type": "uint8"
        }
      ],
      "name": "changeType",
      "outputs": [],
      "stateMutability": "nonpayable",
      "type": "function"
    },
    {
      "inputs": [
        {
          "components": [
            {
              "internalType": "int32",
              "name": "lng",
              "type": "int32"
            },
            {
              "internalType": "int32",
              "name": "lat",
              "type": "int32"
            }
          ],
          "internalType": "struct Position",
          "name": "pos",
          "type": "tuple"
        },
        {
          "components": [
            {
              "internalType": "int32",
              "name": "lng",
              "type": "int32"
            },
            {
              "internalType": "int32",
              "name": "lat",
              "type": "int32"
            }
          ],
          "internalType": "struct Position",
          "name": "lpos",
          "type": "tuple"
        }
      ],
      "name": "distance",
      "outputs": [
        {
          "internalType": "uint32",
          "name": "dist",
          "type": "uint32"
        }
      ],
      "stateMutability": "pure",
      "type": "function"
    },
    {
      "inputs": [
        {
          "components": [
            {
              "internalType": "int32",
              "name": "lng",
              "type": "int32"
            },
            {
              "internalType": "int32",
              "name": "lat",
              "type": "int32"
            }
          ],
          "internalType": "struct Position",
          "name": "pos",
          "type": "tuple"
        }
      ],
      "name": "hasLand",
      "outputs": [
        {
          "internalType": "bool",
          "name": "has",
          "type": "bool"
        }
      ],
      "stateMutability": "view",
      "type": "function"
    },
    {
      "inputs": [],
      "name": "landCount",
      "outputs": [
        {
          "internalType": "uint256",
          "name": "",
          "type": "uint256"
        }
      ],
      "stateMutability": "view",
      "type": "function"
    },
    {
      "inputs": [],
      "name": "landStart",
      "outputs": [
        {
          "internalType": "uint256",
          "name": "",
          "type": "uint256"
        }
      ],
      "stateMutability": "view",
      "type": "function"
    },
    {
      "inputs": [
        {
          "internalType": "address",
          "name": "",
          "type": "address"
        }
      ],
      "name": "lastLight",
      "outputs": [
        {
          "internalType": "uint256",
          "name": "blkNum",
          "type": "uint256"
        },
        {
          "internalType": "uint256",
          "name": "locIdx",
          "type": "uint256"
        }
      ],
      "stateMutability": "view",
      "type": "function"
    },
    {
      "inputs": [
        {
          "components": [
            {
              "internalType": "int32",
              "name": "lng",
              "type": "int32"
            },
            {
              "internalType": "int32",
              "name": "lat",
              "type": "int32"
            }
          ],
          "internalType": "struct Position",
          "name": "pos",
          "type": "tuple"
        }
      ],
      "name": "lightLand",
      "outputs": [],
      "stateMutability": "nonpayable",
      "type": "function"
    },
    {
      "inputs": [
        {
          "components": [
            {
              "internalType": "int32",
              "name": "lng",
              "type": "int32"
            },
            {
              "internalType": "int32",
              "name": "lat",
              "type": "int32"
            }
          ],
          "internalType": "struct Position",
          "name": "pos",
          "type": "tuple"
        },
        {
          "internalType": "string",
          "name": "name",
          "type": "string"
        },
        {
          "internalType": "string",
          "name": "url",
          "type": "string"
        },
        {
          "internalType": "enum LandType",
          "name": "typ",
          "type": "uint8"
        }
      ],
      "name": "mintLand",
      "outputs": [],
      "stateMutability": "payable",
      "type": "function"
    },
    {
      "inputs": [
        {
          "internalType": "uint256",
          "name": "index",
          "type": "uint256"
        },
        {
          "internalType": "string",
          "name": "name",
          "type": "string"
        },
        {
          "internalType": "string",
          "name": "url",
          "type": "string"
        }
      ],
      "name": "modLand",
      "outputs": [],
      "stateMutability": "nonpayable",
      "type": "function"
    },
    {
      "inputs": [
        {
          "internalType": "uint256",
          "name": "index",
          "type": "uint256"
        },
        {
          "internalType": "uint256",
          "name": "price",
          "type": "uint256"
        }
      ],
      "name": "modPrice",
      "outputs": [],
      "stateMutability": "nonpayable",
      "type": "function"
    },
    {
      "inputs": [],
      "name": "owner",
      "outputs": [
        {
          "internalType": "address",
          "name": "",
          "type": "address"
        }
      ],
      "stateMutability": "view",
      "type": "function"
    },
    {
      "inputs": [
        {
          "internalType": "address",
          "name": "",
          "type": "address"
        },
        {
          "internalType": "uint256",
          "name": "",
          "type": "uint256"
        }
      ],
      "name": "passLands",
      "outputs": [
        {
          "internalType": "uint256",
          "name": "",
          "type": "uint256"
        }
      ],
      "stateMutability": "view",
      "type": "function"
    },
    {
      "inputs": [
        {
          "internalType": "int32",
          "name": "",
          "type": "int32"
        },
        {
          "internalType": "int32",
          "name": "",
          "type": "int32"
        }
      ],
      "name": "posLand",
      "outputs": [
        {
          "internalType": "uint256",
          "name": "",
          "type": "uint256"
        }
      ],
      "stateMutability": "view",
      "type": "function"
    },
    {
      "inputs": [],
      "name": "renounceOwnership",
      "outputs": [],
      "stateMutability": "nonpayable",
      "type": "function"
    },
    {
      "inputs": [
        {
          "internalType": "address",
          "name": "newOwner",
          "type": "address"
        }
      ],
      "name": "transferOwnership",
      "outputs": [],
      "stateMutability": "nonpayable",
      "type": "function"
    },
    {
      "inputs": [],
      "name": "withdraw",
      "outputs": [],
      "stateMutability": "nonpayable",
      "type": "function"
    },
    {
      "stateMutability": "payable",
      "type": "receive"
    }
  ],
  "bytecode": "0x60806040523480156200001157600080fd5b5062000032620000266200034c60201b60201c565b6200035460201b60201c565b60046040518060e001604052803373ffffffffffffffffffffffffffffffffffffffff168152602001600067ffffffffffffffff8111156200009d577f4e487b7100000000000000000000000000000000000000000000000000000000600052604160045260246000fd5b604051908082528060200260200182016040528015620000cc5781602001602082028036833780820191505090505b5081526020016040518060400160405280600c81526020017f4d6565742047656e65736973000000000000000000000000000000000000000081525081526020016040518060400160405280600881526020017f6d6565742e78797a00000000000000000000000000000000000000000000000081525081526020016004600c81111562000183577f4e487b7100000000000000000000000000000000000000000000000000000000600052602160045260246000fd5b81526020016040518060400160405280600060030b8152602001600060030b815250815260200168056bc75e2d63100000815250908060018154018082558091505060019003906000526020600020906007020160009091909190915060008201518160000160006101000a81548173ffffffffffffffffffffffffffffffffffffffff021916908373ffffffffffffffffffffffffffffffffffffffff16021790555060208201518160010190805190602001906200024592919062000418565b50604082015181600201908051906020019062000264929190620004a7565b50606082015181600301908051906020019062000283929190620004a7565b5060808201518160040160006101000a81548160ff0219169083600c811115620002d6577f4e487b7100000000000000000000000000000000000000000000000000000000600052602160045260246000fd5b021790555060a08201518160050160008201518160000160006101000a81548163ffffffff021916908360030b63ffffffff16021790555060208201518160000160046101000a81548163ffffffff021916908360030b63ffffffff160217905550505060c082015181600601555050620005bc565b600033905090565b60008060009054906101000a900473ffffffffffffffffffffffffffffffffffffffff169050816000806101000a81548173ffffffffffffffffffffffffffffffffffffffff021916908373ffffffffffffffffffffffffffffffffffffffff1602179055508173ffffffffffffffffffffffffffffffffffffffff168173ffffffffffffffffffffffffffffffffffffffff167f8be0079c531659141344cd1fd0a4f28419497f9722a3daafe3b4186f6b6457e060405160405180910390a35050565b82805482825590600052602060002090810192821562000494579160200282015b82811115620004935782518260006101000a81548173ffffffffffffffffffffffffffffffffffffffff021916908373ffffffffffffffffffffffffffffffffffffffff1602179055509160200191906001019062000439565b5b509050620004a3919062000538565b5090565b828054620004b59062000557565b90600052602060002090601f016020900481019282620004d9576000855562000525565b82601f10620004f457805160ff191683800117855562000525565b8280016001018555821562000525579182015b828111156200052457825182559160200191906001019062000507565b5b50905062000534919062000538565b5090565b5b808211156200055357600081600090555060010162000539565b5090565b600060028204905060018216806200057057607f821691505b602082108114156200058757620005866200058d565b5b50919050565b7f4e487b7100000000000000000000000000000000000000000000000000000000600052602260045260246000fd5b61375480620005cc6000396000f3fe6080604052600436106101225760003560e01c80636eb4ed2d116100a0578063dc55527e11610064578063dc55527e146103c7578063dcba29f5146103f0578063e5ab94a61461042e578063e9fb376d14610457578063f2fde38b1461049457610129565b80636eb4ed2d146102f4578063715018a61461031d5780638da5cb5b146103345780639fc150471461035f578063d7bce6581461039c57610129565b80633ccfd60b116100e75780633ccfd60b146101f75780634098369e1461020e57806341697be01461024b57806355a511f31461028d57806369f4f5ec146102b657610129565b806216c6f11461012e57806314c97afa1461015757806316aa9da11461019457806332955482146101b0578063377026c5146101cc57610129565b3661012957005b600080fd5b34801561013a57600080fd5b5061015560048036038101906101509190612177565b6104bd565b005b34801561016357600080fd5b5061017e600480360381019061017991906120ba565b610888565b60405161018b919061276f565b60405180910390f35b6101ae60048036038101906101a991906122fd565b6108b9565b005b6101ca60048036038101906101c591906121a0565b610c4c565b005b3480156101d857600080fd5b506101e1611016565b6040516101ee919061276f565b60405180910390f35b34801561020357600080fd5b5061020c61101c565b005b34801561021a57600080fd5b506102356004803603810190610230919061213b565b6110e8565b604051610242919061276f565b60405180910390f35b34801561025757600080fd5b50610272600480360381019061026d9190612298565b61110d565b604051610284969594939291906125bc565b60405180910390f35b34801561029957600080fd5b506102b460048036038101906102af919061237c565b6112da565b005b3480156102c257600080fd5b506102dd60048036038101906102d89190612091565b61144c565b6040516102eb92919061278a565b60405180910390f35b34801561030057600080fd5b5061031b600480360381019061031691906120f6565b611470565b005b34801561032957600080fd5b5061033261169d565b005b34801561034057600080fd5b50610349611725565b60405161035691906125a1565b60405180910390f35b34801561036b57600080fd5b506103866004803603810190610381919061225c565b61174e565b60405161039391906127b3565b60405180910390f35b3480156103a857600080fd5b506103b16117f3565b6040516103be919061276f565b60405180910390f35b3480156103d357600080fd5b506103ee60048036038101906103e991906122c1565b6117f9565b005b3480156103fc57600080fd5b5061041760048036038101906104129190612233565b611957565b604051610425929190612646565b60405180910390f35b34801561043a57600080fd5b50610455600480360381019061045091906122fd565b611989565b005b34801561046357600080fd5b5061047e60048036038101906104799190612233565b611b6c565b60405161048b919061262b565b60405180910390f35b3480156104a057600080fd5b506104bb60048036038101906104b69190612091565b611bbb565b005b6000806104d9838036038101906104d49190612233565b611957565b915091506000600360008460030b60030b815260200190815260200160002060008360030b60030b815260200190815260200160002054905060008111610555576040517f08c379a000000000000000000000000000000000000000000000000000000000815260040161054c906126cf565b60405180910390fd5b6000600260003373ffffffffffffffffffffffffffffffffffffffff1673ffffffffffffffffffffffffffffffffffffffff16815260200190815260200160002060405180604001604052908160008201548152602001600182015481525050905060008160000151146106cd576000610672868036038101906105d99190612233565b6004846020015181548110610617577f4e487b7100000000000000000000000000000000000000000000000000000000600052603260045260246000fd5b90600052602060002090600702016005016040518060400160405290816000820160009054906101000a900460030b60030b60030b81526020016000820160049054906101000a900460030b60030b60030b8152505061174e565b90508063ffffffff1682600001514361068b9190612af8565b116106cb576040517f08c379a00000000000000000000000000000000000000000000000000000000081526004016106c2906126ef565b60405180910390fd5b505b600160003373ffffffffffffffffffffffffffffffffffffffff1673ffffffffffffffffffffffffffffffffffffffff1681526020019081526020016000208290806001815401808255809150506001900390600052602060002001600090919091909150556004828154811061076d577f4e487b7100000000000000000000000000000000000000000000000000000000600052603260045260246000fd5b9060005260206000209060070201600101339080600181540180825580915050600190039060005260206000200160009091909190916101000a81548173ffffffffffffffffffffffffffffffffffffffff021916908373ffffffffffffffffffffffffffffffffffffffff160217905550604051806040016040528043815260200183815250600260003373ffffffffffffffffffffffffffffffffffffffff1673ffffffffffffffffffffffffffffffffffffffff16815260200190815260200160002060008201518160000155602082015181600101559050507f7654b9db1446c4908633fa6a29c8a191ee1729e7c962b40901f699dcc79975e282604051610879919061276f565b60405180910390a15050505050565b600160205281600052604060002081815481106108a457600080fd5b90600052602060002001600091509150505481565b8260065410156108fe576040517f08c379a00000000000000000000000000000000000000000000000000000000081526004016108f59061274f565b60405180910390fd5b60048381548110610938577f4e487b7100000000000000000000000000000000000000000000000000000000600052603260045260246000fd5b90600052602060002090600702016006015434101561098c576040517f08c379a0000000000000000000000000000000000000000000000000000000008152600401610983906126af565b60405180910390fd5b600483815481106109c6577f4e487b7100000000000000000000000000000000000000000000000000000000600052603260045260246000fd5b906000526020600020906007020160000160009054906101000a900473ffffffffffffffffffffffffffffffffffffffff1673ffffffffffffffffffffffffffffffffffffffff166108fc600a600934610a209190612a26565b610a2a91906129f5565b9081150290604051600060405180830381858888f19350505050158015610a55573d6000803e3d6000fd5b503360048481548110610a91577f4e487b7100000000000000000000000000000000000000000000000000000000600052603260045260246000fd5b906000526020600020906007020160000160006101000a81548173ffffffffffffffffffffffffffffffffffffffff021916908373ffffffffffffffffffffffffffffffffffffffff1602179055508160048481548110610b1b577f4e487b7100000000000000000000000000000000000000000000000000000000600052603260045260246000fd5b90600052602060002090600702016002019080519060200190610b3f929190611df7565b508060048481548110610b7b577f4e487b7100000000000000000000000000000000000000000000000000000000600052603260045260246000fd5b90600052602060002090600702016003019080519060200190610b9f929190611df7565b50600260048481548110610bdc577f4e487b7100000000000000000000000000000000000000000000000000000000600052603260045260246000fd5b906000526020600020906007020160060154610bf89190612a26565b60048481548110610c32577f4e487b7100000000000000000000000000000000000000000000000000000000600052603260045260246000fd5b906000526020600020906007020160060181905550505050565b670de0b6b3a7640000341015610c97576040517f08c379a0000000000000000000000000000000000000000000000000000000008152600401610c8e906126af565b60405180910390fd5b600080610cb386803603810190610cae9190612233565b611957565b915091506000600360008460030b60030b815260200190815260200160002060008360030b60030b81526020019081526020016000205414610d2a576040517f08c379a0000000000000000000000000000000000000000000000000000000008152600401610d219061268f565b60405180910390fd5b600480549050600360008460030b60030b815260200190815260200160002060008360030b60030b81526020019081526020016000208190555060046040518060e001604052803373ffffffffffffffffffffffffffffffffffffffff168152602001600067ffffffffffffffff811115610dce577f4e487b7100000000000000000000000000000000000000000000000000000000600052604160045260246000fd5b604051908082528060200260200182016040528015610dfc5781602001602082028036833780820191505090505b50815260200187815260200186815260200185600c811115610e47577f4e487b7100000000000000000000000000000000000000000000000000000000600052602160045260246000fd5b815260200188803603810190610e5d9190612233565b8152602001671bc16d674ec80000815250908060018154018082558091505060019003906000526020600020906007020160009091909190915060008201518160000160006101000a81548173ffffffffffffffffffffffffffffffffffffffff021916908373ffffffffffffffffffffffffffffffffffffffff1602179055506020820151816001019080519060200190610efa929190611e7d565b506040820151816002019080519060200190610f17929190611df7565b506060820151816003019080519060200190610f34929190611df7565b5060808201518160040160006101000a81548160ff0219169083600c811115610f86577f4e487b7100000000000000000000000000000000000000000000000000000000600052602160045260246000fd5b021790555060a08201518160050160008201518160000160006101000a81548163ffffffff021916908360030b63ffffffff16021790555060208201518160000160046101000a81548163ffffffff021916908360030b63ffffffff160217905550505060c08201518160060155505060016004805490506110089190612af8565b600681905550505050505050565b60055481565b611024611cb3565b73ffffffffffffffffffffffffffffffffffffffff16611042611725565b73ffffffffffffffffffffffffffffffffffffffff1614611098576040517f08c379a000000000000000000000000000000000000000000000000000000000815260040161108f9061270f565b60405180910390fd5b6110a0611725565b73ffffffffffffffffffffffffffffffffffffffff166108fc479081150290604051600060405180830381858888f193505050501580156110e5573d6000803e3d6000fd5b50565b6003602052816000526040600020602052806000526040600020600091509150505481565b6004818154811061111d57600080fd5b90600052602060002090600702016000915090508060000160009054906101000a900473ffffffffffffffffffffffffffffffffffffffff169080600201805461116690612f47565b80601f016020809104026020016040519081016040528092919081815260200182805461119290612f47565b80156111df5780601f106111b4576101008083540402835291602001916111df565b820191906000526020600020905b8154815290600101906020018083116111c257829003601f168201915b5050505050908060030180546111f490612f47565b80601f016020809104026020016040519081016040528092919081815260200182805461122090612f47565b801561126d5780601f106112425761010080835404028352916020019161126d565b820191906000526020600020905b81548152906001019060200180831161125057829003601f168201915b5050505050908060040160009054906101000a900460ff1690806005016040518060400160405290816000820160009054906101000a900460030b60030b60030b81526020016000820160049054906101000a900460030b60030b60030b81525050908060060154905086565b81600654101561131f576040517f08c379a00000000000000000000000000000000000000000000000000000000081526004016113169061274f565b60405180910390fd5b3373ffffffffffffffffffffffffffffffffffffffff1660048381548110611370577f4e487b7100000000000000000000000000000000000000000000000000000000600052603260045260246000fd5b906000526020600020906007020160000160009054906101000a900473ffffffffffffffffffffffffffffffffffffffff1673ffffffffffffffffffffffffffffffffffffffff16146113f8576040517f08c379a00000000000000000000000000000000000000000000000000000000081526004016113ef9061272f565b60405180910390fd5b8060048381548110611433577f4e487b7100000000000000000000000000000000000000000000000000000000600052603260045260246000fd5b9060005260206000209060070201600601819055505050565b60026020528060005260406000206000915090508060000154908060010154905082565b611478611cb3565b73ffffffffffffffffffffffffffffffffffffffff16611496611725565b73ffffffffffffffffffffffffffffffffffffffff16146114ec576040517f08c379a00000000000000000000000000000000000000000000000000000000081526004016114e39061270f565b60405180910390fd5b60048054905060058190555060005b828290508110156116805760008061156f858585818110611545577f4e487b7100000000000000000000000000000000000000000000000000000000600052603260045260246000fd5b9050602002810190611557919061287c565b60a00180360381019061156a9190612233565b611957565b915091506000600360008460030b60030b815260200190815260200160002060008360030b60030b815260200190815260200160002054141561166b57600480549050600360008460030b60030b815260200190815260200160002060008360030b60030b8152602001908152602001600020819055506004858585818110611621577f4e487b7100000000000000000000000000000000000000000000000000000000600052603260045260246000fd5b9050602002810190611633919061287c565b908060018154018082558091505060019003906000526020600020906007020160009091909190915081816116689190613604565b50505b5050808061167890612fc6565b9150506114fb565b5060016004805490506116939190612af8565b6006819055505050565b6116a5611cb3565b73ffffffffffffffffffffffffffffffffffffffff166116c3611725565b73ffffffffffffffffffffffffffffffffffffffff1614611719576040517f08c379a00000000000000000000000000000000000000000000000000000000081526004016117109061270f565b60405180910390fd5b6117236000611cbb565b565b60008060009054906101000a900473ffffffffffffffffffffffffffffffffffffffff16905090565b600080826000015160030b846000015160030b1361177f578360000151836000015161177a9190612a80565b611794565b826000015184600001516117939190612a80565b5b90506000836020015160030b856020015160030b136117c657846020015184602001516117c19190612a80565b6117db565b836020015185602001516117da9190612a80565b5b905080826117e9919061297d565b9250505092915050565b60065481565b611801611cb3565b73ffffffffffffffffffffffffffffffffffffffff1661181f611725565b73ffffffffffffffffffffffffffffffffffffffff1614611875576040517f08c379a000000000000000000000000000000000000000000000000000000000815260040161186c9061270f565b60405180910390fd5b8160065410156118ba576040517f08c379a00000000000000000000000000000000000000000000000000000000081526004016118b19061274f565b60405180910390fd5b80600483815481106118f5577f4e487b7100000000000000000000000000000000000000000000000000000000600052603260045260246000fd5b906000526020600020906007020160040160006101000a81548160ff0219169083600c81111561194e577f4e487b7100000000000000000000000000000000000000000000000000000000600052602160045260246000fd5b02179055505050565b60008060006119698460000151611d7f565b9050600061197a8560200151611d7f565b90508181935093505050915091565b8260065410156119ce576040517f08c379a00000000000000000000000000000000000000000000000000000000081526004016119c59061274f565b60405180910390fd5b3373ffffffffffffffffffffffffffffffffffffffff1660048481548110611a1f577f4e487b7100000000000000000000000000000000000000000000000000000000600052603260045260246000fd5b906000526020600020906007020160000160009054906101000a900473ffffffffffffffffffffffffffffffffffffffff1673ffffffffffffffffffffffffffffffffffffffff1614611aa7576040517f08c379a0000000000000000000000000000000000000000000000000000000008152600401611a9e9061272f565b60405180910390fd5b8160048481548110611ae2577f4e487b7100000000000000000000000000000000000000000000000000000000600052603260045260246000fd5b90600052602060002090600702016002019080519060200190611b06929190611df7565b508060048481548110611b42577f4e487b7100000000000000000000000000000000000000000000000000000000600052603260045260246000fd5b90600052602060002090600702016003019080519060200190611b66929190611df7565b50505050565b6000806000611b7a84611957565b915091506000600360008460030b60030b815260200190815260200160002060008360030b60030b8152602001908152602001600020541192505050919050565b611bc3611cb3565b73ffffffffffffffffffffffffffffffffffffffff16611be1611725565b73ffffffffffffffffffffffffffffffffffffffff1614611c37576040517f08c379a0000000000000000000000000000000000000000000000000000000008152600401611c2e9061270f565b60405180910390fd5b600073ffffffffffffffffffffffffffffffffffffffff168173ffffffffffffffffffffffffffffffffffffffff161415611ca7576040517f08c379a0000000000000000000000000000000000000000000000000000000008152600401611c9e9061266f565b60405180910390fd5b611cb081611cbb565b50565b600033905090565b60008060009054906101000a900473ffffffffffffffffffffffffffffffffffffffff169050816000806101000a81548173ffffffffffffffffffffffffffffffffffffffff021916908373ffffffffffffffffffffffffffffffffffffffff1602179055508173ffffffffffffffffffffffffffffffffffffffff168173ffffffffffffffffffffffffffffffffffffffff167f8be0079c531659141344cd1fd0a4f28419497f9722a3daafe3b4186f6b6457e060405160405180910390a35050565b600080600a83611d8f919061302d565b905060038160030b12611de25760078160030b13611dc45760058184611db59190612a80565b611dbf919061297d565b611ddd565b600a8184611dd29190612a80565b611ddc919061297d565b5b611def565b8083611dee9190612a80565b5b915050919050565b828054611e0390612f47565b90600052602060002090601f016020900481019282611e255760008555611e6c565b82601f10611e3e57805160ff1916838001178555611e6c565b82800160010185558215611e6c579182015b82811115611e6b578251825591602001919060010190611e50565b5b509050611e799190611f07565b5090565b828054828255906000526020600020908101928215611ef6579160200282015b82811115611ef55782518260006101000a81548173ffffffffffffffffffffffffffffffffffffffff021916908373ffffffffffffffffffffffffffffffffffffffff16021790555091602001919060010190611e9d565b5b509050611f039190611f07565b5090565b5b80821115611f20576000816000905550600101611f08565b5090565b6000611f37611f32846128c6565b6128a1565b905082815260208101848484011115611f4f57600080fd5b611f5a848285612ddf565b509392505050565b600081359050611f71816136c4565b92915050565b60008083601f840112611f8957600080fd5b8235905067ffffffffffffffff811115611fa257600080fd5b602083019150836020820283011115611fba57600080fd5b9250929050565b600081359050611fd0816136db565b92915050565b600081359050611fe5816136eb565b92915050565b600082601f830112611ffc57600080fd5b813561200c848260208601611f24565b91505092915050565b60006040828403121561202757600080fd5b81905092915050565b60006040828403121561204257600080fd5b61204c60406128a1565b9050600061205c84828501611fd6565b600083015250602061207084828501611fd6565b60208301525092915050565b60008135905061208b81613702565b92915050565b6000602082840312156120a357600080fd5b60006120b184828501611f62565b91505092915050565b600080604083850312156120cd57600080fd5b60006120db85828601611f62565b92505060206120ec8582860161207c565b9150509250929050565b6000806020838503121561210957600080fd5b600083013567ffffffffffffffff81111561212357600080fd5b61212f85828601611f77565b92509250509250929050565b6000806040838503121561214e57600080fd5b600061215c85828601611fd6565b925050602061216d85828601611fd6565b9150509250929050565b60006040828403121561218957600080fd5b600061219784828501612015565b91505092915050565b60008060008060a085870312156121b657600080fd5b60006121c487828801612015565b945050604085013567ffffffffffffffff8111156121e157600080fd5b6121ed87828801611feb565b935050606085013567ffffffffffffffff81111561220a57600080fd5b61221687828801611feb565b925050608061222787828801611fc1565b91505092959194509250565b60006040828403121561224557600080fd5b600061225384828501612030565b91505092915050565b6000806080838503121561226f57600080fd5b600061227d85828601612030565b925050604061228e85828601612030565b9150509250929050565b6000602082840312156122aa57600080fd5b60006122b88482850161207c565b91505092915050565b600080604083850312156122d457600080fd5b60006122e28582860161207c565b92505060206122f385828601611fc1565b9150509250929050565b60008060006060848603121561231257600080fd5b60006123208682870161207c565b935050602084013567ffffffffffffffff81111561233d57600080fd5b61234986828701611feb565b925050604084013567ffffffffffffffff81111561236657600080fd5b61237286828701611feb565b9150509250925092565b6000806040838503121561238f57600080fd5b600061239d8582860161207c565b92505060206123ae8582860161207c565b9150509250929050565b6123c181612b2c565b82525050565b6123d081612b3e565b82525050565b6123df81612c0e565b82525050565b6123ee81612b5d565b82525050565b6123fd81612b5d565b82525050565b600061240e82612961565b612418818561296c565b9350612428818560208601612dee565b6124318161322d565b840191505092915050565b600061244960268361296c565b91506124548261328a565b604082019050919050565b600061246c60118361296c565b9150612477826132d9565b602082019050919050565b600061248f600e8361296c565b915061249a82613302565b602082019050919050565b60006124b260078361296c565b91506124bd8261332b565b602082019050919050565b60006124d560098361296c565b91506124e082613354565b602082019050919050565b60006124f860208361296c565b91506125038261337d565b602082019050919050565b600061251b60158361296c565b9150612526826133a6565b602082019050919050565b600061253e600e8361296c565b9150612549826133cf565b602082019050919050565b60408201600082015161256a60008501826123e5565b50602082015161257d60208501826123e5565b50505050565b61258c81612b8a565b82525050565b61259b81612b94565b82525050565b60006020820190506125b660008301846123b8565b92915050565b600060e0820190506125d160008301896123b8565b81810360208301526125e38188612403565b905081810360408301526125f78187612403565b905061260660608301866123d6565b6126136080830185612554565b61262060c0830184612583565b979650505050505050565b600060208201905061264060008301846123c7565b92915050565b600060408201905061265b60008301856123f4565b61266860208301846123f4565b9392505050565b600060208201905081810360008301526126888161243c565b9050919050565b600060208201905081810360008301526126a88161245f565b9050919050565b600060208201905081810360008301526126c881612482565b9050919050565b600060208201905081810360008301526126e8816124a5565b9050919050565b60006020820190508181036000830152612708816124c8565b9050919050565b60006020820190508181036000830152612728816124eb565b9050919050565b600060208201905081810360008301526127488161250e565b9050919050565b6000602082019050818103600083015261276881612531565b9050919050565b60006020820190506127846000830184612583565b92915050565b600060408201905061279f6000830185612583565b6127ac6020830184612583565b9392505050565b60006020820190506127c86000830184612592565b92915050565b600080833560016020038436030381126127e757600080fd5b80840192508235915067ffffffffffffffff82111561280557600080fd5b60208301925060208202360383131561281d57600080fd5b509250929050565b6000808335600160200384360303811261283e57600080fd5b80840192508235915067ffffffffffffffff82111561285c57600080fd5b60208301925060018202360383131561287457600080fd5b509250929050565b6000823560016101000383360303811261289557600080fd5b80830191505092915050565b60006128ab6128bc565b90506128b78282612f95565b919050565b6000604051905090565b600067ffffffffffffffff8211156128e1576128e061311a565b5b6128ea8261322d565b9050602081019050919050565b60008190506001806001038301049050919050565b6000819050919050565b60008190508160005260206000209050919050565b60008190508160005260206000209050919050565b600082905092915050565b600081549050919050565b600082905092915050565b600081519050919050565b600082825260208201905092915050565b600061298882612b5d565b915061299383612b5d565b925081637fffffff038313600083121516156129b2576129b161305e565b5b817fffffffffffffffffffffffffffffffffffffffffffffffffffffffff800000000383126000831216156129ea576129e961305e565b5b828201905092915050565b6000612a0082612b8a565b9150612a0b83612b8a565b925082612a1b57612a1a61308d565b5b828204905092915050565b6000612a3182612b8a565b9150612a3c83612b8a565b9250817fffffffffffffffffffffffffffffffffffffffffffffffffffffffffffffffff0483118215151615612a7557612a7461305e565b5b828202905092915050565b6000612a8b82612b5d565b9150612a9683612b5d565b9250827fffffffffffffffffffffffffffffffffffffffffffffffffffffffff8000000001821260008412151615612ad157612ad061305e565b5b82637fffffff018213600084121615612aed57612aec61305e565b5b828203905092915050565b6000612b0382612b8a565b9150612b0e83612b8a565b925082821015612b2157612b2061305e565b5b828203905092915050565b6000612b3782612b6a565b9050919050565b60008115159050919050565b6000819050612b58826136b0565b919050565b60008160030b9050919050565b600073ffffffffffffffffffffffffffffffffffffffff82169050919050565b6000819050919050565b600063ffffffff82169050919050565b5b81811015612bc357612bb8600082613272565b600181019050612ba5565b5050565b5b81811015612be657612bdb600082613272565b600181019050612bc8565b5050565b6000612bf582612c32565b9050919050565b6000612c0782612b4a565b9050919050565b6000612c1982612b4a565b9050919050565b6000612c2b82612b5d565b9050919050565b6000612c3d82612c44565b9050919050565b6000612c4f82612b6a565b9050919050565b6000612c6182612b8a565b9050919050565b612c728383612940565b612c7c81836131c9565b612c858361290c565b612c8e83612916565b6000805b84811015612cc95783612ca481613171565b9050612cb1818486613666565b60208501945060018401935050600181019050612c92565b5050505050505050565b612cdd8383612956565b67ffffffffffffffff811115612cf657612cf561311a565b5b612d008254612f47565b600080601f8411601f84111715612d1d57612d1a8561292b565b90505b601f831115612d50576020601f85010481016020851015612d3c578190505b612d4e6020601f860104830182612bc7565b505b601f841160018114612d7d5760008515612d6b578388013590505b612d758682612f79565b875550612dd5565b601f1985168260005b82811015612dab57858a01358255600182019150602086019550602081019050612d86565b87831015612dc857858a0135612dc4601f8a168261300f565b8355505b6001600289020189555050505b5050505050505050565b82818337600083830152505050565b60005b83811015612e0c578082015181840152602081019050612df1565b83811115612e1b576000848401525b50505050565b600081016000830180612e3381613171565b9050612e3f818461357b565b5050506001810160208301612e5481856127ce565b612e5f81838661359e565b505050506002810160408301612e758185612825565b612e808183866135f4565b505050506003810160608301612e968185612825565b612ea18183866135f4565b50505050600481016080830180612eb781613187565b9050612ec381846135ae565b5050506005810160a0830180612ed98184613612565b5050506006810160e0830180612eee816131b3565b9050612efa8184613620565b5050505050565b600081016000830180612f138161319d565b9050612f1f81846135d1565b505050600081016020830180612f348161319d565b9050612f408184613643565b5050505050565b60006002820490506001821680612f5f57607f821691505b60208210811415612f7357612f726130eb565b5b50919050565b6000612f85838361300f565b9150826002028217905092915050565b612f9e8261322d565b810181811067ffffffffffffffff82111715612fbd57612fbc61311a565b5b80604052505050565b6000612fd182612b8a565b91507fffffffffffffffffffffffffffffffffffffffffffffffffffffffffffffffff8214156130045761300361305e565b5b600182019050919050565b600061302060001984600802613265565b1980831691505092915050565b600061303882612b5d565b915061304383612b5d565b9250826130535761305261308d565b5b828207905092915050565b7f4e487b7100000000000000000000000000000000000000000000000000000000600052601160045260246000fd5b7f4e487b7100000000000000000000000000000000000000000000000000000000600052601260045260246000fd5b7f4e487b7100000000000000000000000000000000000000000000000000000000600052602160045260246000fd5b7f4e487b7100000000000000000000000000000000000000000000000000000000600052602260045260246000fd5b7f4e487b7100000000000000000000000000000000000000000000000000000000600052604160045260246000fd5b6000819050919050565b6000819050919050565b6000819050919050565b6000819050919050565b6000813561317e816136c4565b80915050919050565b60008135613194816136db565b80915050919050565b600081356131aa816136eb565b80915050919050565b600081356131c081613702565b80915050919050565b680100000000000000008211156131e3576131e261311a565b5b6131ec8161294b565b8282558083101561322857613200816128f7565b613209846128f7565b61321284612916565b8181018382016132228183612ba4565b50505050505b505050565b6000601f19601f8301169050919050565b60008160001b9050919050565b60008160201b9050919050565b600082821b905092915050565b600082821c905092915050565b61327a613719565b61328581848461368b565b505050565b7f4f776e61626c653a206e6577206f776e657220697320746865207a65726f206160008201527f6464726573730000000000000000000000000000000000000000000000000000602082015250565b7f416c726561647920686173206c616e6421000000000000000000000000000000600082015250565b7f507269636520746f6f206c6f7721000000000000000000000000000000000000600082015250565b7f4e6f204c616e6400000000000000000000000000000000000000000000000000600082015250565b7f546f6f2073686f72740000000000000000000000000000000000000000000000600082015250565b7f4f776e61626c653a2063616c6c6572206973206e6f7420746865206f776e6572600082015250565b7f4f6e6c7920686f73742063616e206d6f64696679210000000000000000000000600082015250565b7f496e64657820746f6f2062696721000000000000000000000000000000000000600082015250565b600060ff6134058461323e565b9350801983169250808416831791505092915050565b600073ffffffffffffffffffffffffffffffffffffffff61343b8461323e565b9350801983169250808416831791505092915050565b60007fffffffffffffffffffffffffffffffffffffffffffffffffffffffffffffffff61347d8461323e565b9350801983169250808416831791505092915050565b600063ffffffff6134a38461323e565b9350801983169250808416831791505092915050565b600067ffffffff000000006134cd8461324b565b9350801983169250808416831791505092915050565b60006008830261350773ffffffffffffffffffffffffffffffffffffffff82613258565b6135118683613258565b95508019841693508086168417925050509392505050565b6000600883026135597fffffffffffffffffffffffffffffffffffffffffffffffffffffffffffffffff82613258565b6135638683613258565b95508019841693508086168417925050509392505050565b61358482612bea565b61359761359082613149565b835461341b565b8255505050565b6135a9838383612c68565b505050565b6135b782612bfc565b6135ca6135c382613153565b83546133f8565b8255505050565b6135da82612c20565b6135ed6135e68261315d565b8354613493565b8255505050565b6135ff838383612cd3565b505050565b61360e8282612e21565b5050565b61361c8282612f01565b5050565b61362982612c56565b61363c61363582613167565b8354613451565b8255505050565b61364c82612c20565b61365f6136588261315d565b83546134b9565b8255505050565b61366f83612bea565b61368361367b82613149565b8484546134e3565b825550505050565b61369483612c56565b6136a86136a082613167565b848454613529565b825550505050565b600d81106136c1576136c06130bc565b5b50565b6136cd81612b2c565b81146136d857600080fd5b50565b600d81106136e857600080fd5b50565b6136f481612b5d565b81146136ff57600080fd5b50565b61370b81612b8a565b811461371657600080fd5b50565b60009056fea2646970667358221220876fd9d360f0f66b6536d80c49e539b894de09c2ed0b2bb60ccb52f4d75c1b3264736f6c63430008030033",
  "linkReferences": {},
  "deployedLinkReferences": {}
}