{
  "contracts/Meet.sol": {
    "MeetSH": {
      "abi": [
        {
          "inputs": [],
          "stateMutability": "nonpayable",
          "type": "constructor"
        },
        {
          "anonymous": false,
          "inputs": [
            {
              "indexed": false,
              "internalType": "uint256",
              "name": "index",
              "type": "uint256"
            }
          ],
          "name": "LightLand",
          "type": "event"
        },
        {
          "anonymous": false,
          "inputs": [
            {
              "indexed": true,
              "internalType": "address",
              "name": "previousOwner",
              "type": "address"
            },
            {
              "indexed": true,
              "internalType": "address",
              "name": "newOwner",
              "type": "address"
            }
          ],
          "name": "OwnershipTransferred",
          "type": "event"
        },
        {
          "inputs": [
            {
              "components": [
                {
                  "internalType": "address",
                  "name": "lord",
                  "type": "address"
                },
                {
                  "internalType": "string",
                  "name": "name",
                  "type": "string"
                },
                {
                  "components": [
                    {
                      "internalType": "int32",
                      "name": "x",
                      "type": "int32"
                    },
                    {
                      "internalType": "int32",
                      "name": "y",
                      "type": "int32"
                    }
                  ],
                  "internalType": "struct Position",
                  "name": "pos",
                  "type": "tuple"
                }
              ],
              "internalType": "struct Location[]",
              "name": "locs",
              "type": "tuple[]"
            }
          ],
          "name": "addLocation",
          "outputs": [],
          "stateMutability": "nonpayable",
          "type": "function"
        },
        {
          "inputs": [
            {
              "internalType": "int32",
              "name": "",
              "type": "int32"
            },
            {
              "internalType": "int32",
              "name": "",
              "type": "int32"
            }
          ],
          "name": "hasLocation",
          "outputs": [
            {
              "internalType": "uint256",
              "name": "",
              "type": "uint256"
            }
          ],
          "stateMutability": "view",
          "type": "function"
        },
        {
          "inputs": [
            {
              "internalType": "address",
              "name": "",
              "type": "address"
            }
          ],
          "name": "lastLight",
          "outputs": [
            {
              "internalType": "uint256",
              "name": "bNum",
              "type": "uint256"
            },
            {
              "internalType": "uint256",
              "name": "iLoc",
              "type": "uint256"
            }
          ],
          "stateMutability": "view",
          "type": "function"
        },
        {
          "inputs": [
            {
              "components": [
                {
                  "internalType": "int32",
                  "name": "x",
                  "type": "int32"
                },
                {
                  "internalType": "int32",
                  "name": "y",
                  "type": "int32"
                }
              ],
              "internalType": "struct Position",
              "name": "pos",
              "type": "tuple"
            }
          ],
          "name": "lightLocation",
          "outputs": [],
          "stateMutability": "nonpayable",
          "type": "function"
        },
        {
          "inputs": [
            {
              "internalType": "uint256",
              "name": "",
              "type": "uint256"
            }
          ],
          "name": "locations",
          "outputs": [
            {
              "internalType": "address",
              "name": "lord",
              "type": "address"
            },
            {
              "internalType": "string",
              "name": "name",
              "type": "string"
            },
            {
              "components": [
                {
                  "internalType": "int32",
                  "name": "x",
                  "type": "int32"
                },
                {
                  "internalType": "int32",
                  "name": "y",
                  "type": "int32"
                }
              ],
              "internalType": "struct Position",
              "name": "pos",
              "type": "tuple"
            }
          ],
          "stateMutability": "view",
          "type": "function"
        },
        {
          "inputs": [
            {
              "internalType": "address",
              "name": "",
              "type": "address"
            },
            {
              "internalType": "uint256",
              "name": "",
              "type": "uint256"
            }
          ],
          "name": "ownedLocations",
          "outputs": [
            {
              "internalType": "uint256",
              "name": "",
              "type": "uint256"
            }
          ],
          "stateMutability": "view",
          "type": "function"
        },
        {
          "inputs": [],
          "name": "owner",
          "outputs": [
            {
              "internalType": "address",
              "name": "",
              "type": "address"
            }
          ],
          "stateMutability": "view",
          "type": "function"
        },
        {
          "inputs": [],
          "name": "renounceOwnership",
          "outputs": [],
          "stateMutability": "nonpayable",
          "type": "function"
        },
        {
          "inputs": [
            {
              "internalType": "address",
              "name": "newOwner",
              "type": "address"
            }
          ],
          "name": "transferOwnership",
          "outputs": [],
          "stateMutability": "nonpayable",
          "type": "function"
        }
      ],
      "evm": {
        "bytecode": {
          "linkReferences": {},
          "object": "60806040523480156200001157600080fd5b506200003262000026620001ac60201b60201c565b620001b460201b60201c565b600460405180606001604052803373ffffffffffffffffffffffffffffffffffffffff1681526020016040518060400160405280600481526020017f4d6565740000000000000000000000000000000000000000000000000000000081525081526020016040518060400160405280600060030b8152602001600060030b815250815250908060018154018082558091505060019003906000526020600020906003020160009091909190915060008201518160000160006101000a81548173ffffffffffffffffffffffffffffffffffffffff021916908373ffffffffffffffffffffffffffffffffffffffff16021790555060208201518160010190805190602001906200014492919062000278565b5060408201518160020160008201518160000160006101000a81548163ffffffff021916908360030b63ffffffff16021790555060208201518160000160046101000a81548163ffffffff021916908360030b63ffffffff160217905550505050506200038d565b600033905090565b60008060009054906101000a900473ffffffffffffffffffffffffffffffffffffffff169050816000806101000a81548173ffffffffffffffffffffffffffffffffffffffff021916908373ffffffffffffffffffffffffffffffffffffffff1602179055508173ffffffffffffffffffffffffffffffffffffffff168173ffffffffffffffffffffffffffffffffffffffff167f8be0079c531659141344cd1fd0a4f28419497f9722a3daafe3b4186f6b6457e060405160405180910390a35050565b828054620002869062000328565b90600052602060002090601f016020900481019282620002aa5760008555620002f6565b82601f10620002c557805160ff1916838001178555620002f6565b82800160010185558215620002f6579182015b82811115620002f5578251825591602001919060010190620002d8565b5b50905062000305919062000309565b5090565b5b80821115620003245760008160009055506001016200030a565b5090565b600060028204905060018216806200034157607f821691505b602082108114156200035857620003576200035e565b5b50919050565b7f4e487b7100000000000000000000000000000000000000000000000000000000600052602260045260246000fd5b611c30806200039d6000396000f3fe608060405234801561001057600080fd5b50600436106100935760003560e01c80638da5cb5b116100665780638da5cb5b1461010b578063aa577d7214610129578063adba9b8014610159578063b9e0db3514610189578063f2fde38b146101bb57610093565b80631018e77c1461009857806369f4f5ec146100b4578063715018a6146100e55780638199eb21146100ef575b600080fd5b6100b260048036038101906100ad9190610f4f565b6101d7565b005b6100ce60048036038101906100c99190610eea565b610457565b6040516100dc929190611260565b60405180910390f35b6100ed61047b565b005b61010960048036038101906101049190610ff9565b610503565b005b610113610a65565b604051610120919061116c565b60405180910390f35b610143600480360381019061013e9190610f13565b610a8e565b6040516101509190611245565b60405180910390f35b610173600480360381019061016e9190610fbd565b610abf565b6040516101809190611245565b60405180910390f35b6101a3600480360381019061019e9190611022565b610ae4565b6040516101b293929190611187565b60405180910390f35b6101d560048036038101906101d09190610eea565b610c0a565b005b6101df610d02565b73ffffffffffffffffffffffffffffffffffffffff166101fd610a65565b73ffffffffffffffffffffffffffffffffffffffff1614610253576040517f08c379a000000000000000000000000000000000000000000000000000000000815260040161024a90611205565b60405180910390fd5b60005b828290508110156104525760006102cb84848481811061029f577f4e487b7100000000000000000000000000000000000000000000000000000000600052603260045260246000fd5b90506020028101906102b191906112e0565b60400160000160208101906102c69190610f94565b610d0a565b9050600061033785858581811061030b577f4e487b7100000000000000000000000000000000000000000000000000000000600052603260045260246000fd5b905060200281019061031d91906112e0565b60400160200160208101906103329190610f94565b610d0a565b90506000600360008460030b60030b815260200190815260200160002060008360030b60030b815260200190815260200160002054141561043d5760048585858181106103ad577f4e487b7100000000000000000000000000000000000000000000000000000000600052603260045260246000fd5b90506020028101906103bf91906112e0565b908060018154018082558091505060019003906000526020600020906003020160009091909190915081816103f49190611b4c565b505060016004805490506104089190611430565b600360008460030b60030b815260200190815260200160002060008360030b60030b8152602001908152602001600020819055505b5050808061044a90611759565b915050610256565b505050565b60026020528060005260406000206000915090508060000154908060010154905082565b610483610d02565b73ffffffffffffffffffffffffffffffffffffffff166104a1610a65565b73ffffffffffffffffffffffffffffffffffffffff16146104f7576040517f08c379a00000000000000000000000000000000000000000000000000000000081526004016104ee90611205565b60405180910390fd5b6105016000610d82565b565b600061052082600001602081019061051b9190610f94565b610d0a565b9050600061053f83602001602081019061053a9190610f94565b610d0a565b90506000600360008460030b60030b815260200190815260200160002060008360030b60030b815260200190815260200160002054905060008114156105ba576040517f08c379a00000000000000000000000000000000000000000000000000000000081526004016105b190611225565b60405180910390fd5b6000600260003373ffffffffffffffffffffffffffffffffffffffff1673ffffffffffffffffffffffffffffffffffffffff1681526020019081526020016000206040518060400160405290816000820154815260200160018201548152505090506000600482602001518154811061065c577f4e487b7100000000000000000000000000000000000000000000000000000000600052603260045260246000fd5b90600052602060002090600302016002016040518060400160405290816000820160009054906101000a900460030b60030b60030b81526020016000820160049054906101000a900460030b60030b60030b8152505090506000816000015160030b8760000160208101906106d19190610f94565b60030b13610700578660000160208101906106ec9190610f94565b82600001516106fb91906113b8565b610723565b81600001518760000160208101906107189190610f94565b61072291906113b8565b5b90506000826020015160030b8860200160208101906107429190610f94565b60030b136107715787602001602081019061075d9190610f94565b836020015161076c91906113b8565b610794565b82602001518860200160208101906107899190610f94565b61079391906113b8565b5b905081826107a29190611340565b63ffffffff168460000151436107b89190611430565b116107f8576040517f08c379a00000000000000000000000000000000000000000000000000000000081526004016107ef906111e5565b60405180910390fd5b600160003373ffffffffffffffffffffffffffffffffffffffff1673ffffffffffffffffffffffffffffffffffffffff16815260200190815260200160002085908060018154018082558091505060019003906000526020600020016000909190919091505560006004868154811061089a577f4e487b7100000000000000000000000000000000000000000000000000000000600052603260045260246000fd5b90600052602060002090600302016040518060600160405290816000820160009054906101000a900473ffffffffffffffffffffffffffffffffffffffff1673ffffffffffffffffffffffffffffffffffffffff1673ffffffffffffffffffffffffffffffffffffffff1681526020016001820180546109199061170b565b80601f01602080910402602001604051908101604052809291908181526020018280546109459061170b565b80156109925780601f1061096757610100808354040283529160200191610992565b820191906000526020600020905b81548152906001019060200180831161097557829003601f168201915b50505050508152602001600282016040518060400160405290816000820160009054906101000a900460030b60030b60030b81526020016000820160049054906101000a900460030b60030b60030b8152505081525050905033816000019073ffffffffffffffffffffffffffffffffffffffff16908173ffffffffffffffffffffffffffffffffffffffff16815250507f7654b9db1446c4908633fa6a29c8a191ee1729e7c962b40901f699dcc79975e286604051610a529190611245565b60405180910390a1505050505050505050565b60008060009054906101000a900473ffffffffffffffffffffffffffffffffffffffff16905090565b60016020528160005260406000208181548110610aaa57600080fd5b90600052602060002001600091509150505481565b6003602052816000526040600020602052806000526040600020600091509150505481565b60048181548110610af457600080fd5b90600052602060002090600302016000915090508060000160009054906101000a900473ffffffffffffffffffffffffffffffffffffffff1690806001018054610b3d9061170b565b80601f0160208091040260200160405190810160405280929190818152602001828054610b699061170b565b8015610bb65780601f10610b8b57610100808354040283529160200191610bb6565b820191906000526020600020905b815481529060010190602001808311610b9957829003601f168201915b505050505090806002016040518060400160405290816000820160009054906101000a900460030b60030b60030b81526020016000820160049054906101000a900460030b60030b60030b81525050905083565b610c12610d02565b73ffffffffffffffffffffffffffffffffffffffff16610c30610a65565b73ffffffffffffffffffffffffffffffffffffffff1614610c86576040517f08c379a0000000000000000000000000000000000000000000000000000000008152600401610c7d90611205565b60405180910390fd5b600073ffffffffffffffffffffffffffffffffffffffff168173ffffffffffffffffffffffffffffffffffffffff161415610cf6576040517f08c379a0000000000000000000000000000000000000000000000000000000008152600401610ced906111c5565b60405180910390fd5b610cff81610d82565b50565b600033905090565b600080600a83610d1a91906117c0565b905060038160030b12610d615760078160030b13610d43578083610d3e91906113b8565b610d5c565b60058184610d5191906113b8565b610d5b9190611340565b5b610d7a565b60058184610d6f91906113b8565b610d7991906113b8565b5b915050919050565b60008060009054906101000a900473ffffffffffffffffffffffffffffffffffffffff169050816000806101000a81548173ffffffffffffffffffffffffffffffffffffffff021916908373ffffffffffffffffffffffffffffffffffffffff1602179055508173ffffffffffffffffffffffffffffffffffffffff168173ffffffffffffffffffffffffffffffffffffffff167f8be0079c531659141344cd1fd0a4f28419497f9722a3daafe3b4186f6b6457e060405160405180910390a35050565b600081359050610e5581611bb0565b92915050565b60008083601f840112610e6d57600080fd5b8235905067ffffffffffffffff811115610e8657600080fd5b602083019150836020820283011115610e9e57600080fd5b9250929050565b600081359050610eb481611bc7565b92915050565b600060408284031215610ecc57600080fd5b81905092915050565b600081359050610ee481611bde565b92915050565b600060208284031215610efc57600080fd5b6000610f0a84828501610e46565b91505092915050565b60008060408385031215610f2657600080fd5b6000610f3485828601610e46565b9250506020610f4585828601610ed5565b9150509250929050565b60008060208385031215610f6257600080fd5b600083013567ffffffffffffffff811115610f7c57600080fd5b610f8885828601610e5b565b92509250509250929050565b600060208284031215610fa657600080fd5b6000610fb484828501610ea5565b91505092915050565b60008060408385031215610fd057600080fd5b6000610fde85828601610ea5565b9250506020610fef85828601610ea5565b9150509250929050565b60006040828403121561100b57600080fd5b600061101984828501610eba565b91505092915050565b60006020828403121561103457600080fd5b600061104284828501610ed5565b91505092915050565b61105481611464565b82525050565b61106381611476565b82525050565b600061107482611324565b61107e818561132f565b935061108e818560208601611636565b611097816118f7565b840191505092915050565b60006110af60268361132f565b91506110ba82611954565b604082019050919050565b60006110d260098361132f565b91506110dd826119a3565b602082019050919050565b60006110f560208361132f565b9150611100826119cc565b602082019050919050565b600061111860078361132f565b9150611123826119f5565b602082019050919050565b604082016000820151611144600085018261105a565b506020820151611157602085018261105a565b50505050565b611166816114a3565b82525050565b6000602082019050611181600083018461104b565b92915050565b600060808201905061119c600083018661104b565b81810360208301526111ae8185611069565b90506111bd604083018461112e565b949350505050565b600060208201905081810360008301526111de816110a2565b9050919050565b600060208201905081810360008301526111fe816110c5565b9050919050565b6000602082019050818103600083015261121e816110e8565b9050919050565b6000602082019050818103600083015261123e8161110b565b9050919050565b600060208201905061125a600083018461115d565b92915050565b6000604082019050611275600083018561115d565b611282602083018461115d565b9392505050565b600080833560016020038436030381126112a257600080fd5b80840192508235915067ffffffffffffffff8211156112c057600080fd5b6020830192506001820236038313156112d857600080fd5b509250929050565b6000823560016080038336030381126112f857600080fd5b80830191505092915050565b60008190508160005260206000209050919050565b600082905092915050565b600081519050919050565b600082825260208201905092915050565b600061134b82611476565b915061135683611476565b925081637fffffff03831360008312151615611375576113746117f1565b5b817fffffffffffffffffffffffffffffffffffffffffffffffffffffffff800000000383126000831216156113ad576113ac6117f1565b5b828201905092915050565b60006113c382611476565b91506113ce83611476565b9250827fffffffffffffffffffffffffffffffffffffffffffffffffffffffff8000000001821260008412151615611409576114086117f1565b5b82637fffffff018213600084121615611425576114246117f1565b5b828203905092915050565b600061143b826114a3565b9150611446836114a3565b925082821015611459576114586117f1565b5b828203905092915050565b600061146f82611483565b9050919050565b60008160030b9050919050565b600073ffffffffffffffffffffffffffffffffffffffff82169050919050565b6000819050919050565b5b818110156114cc576114c160008261193c565b6001810190506114ae565b5050565b60006114db826114f4565b9050919050565b60006114ed82611476565b9050919050565b60006114ff82611506565b9050919050565b600061151182611483565b9050919050565b6000611523826114a3565b9050919050565b6115348383611319565b67ffffffffffffffff81111561154d5761154c61187e565b5b611557825461170b565b600080601f8411601f841117156115745761157185611304565b90505b601f8311156115a7576020601f85010481016020851015611593578190505b6115a56020601f8601048301826114ad565b505b601f8411600181146115d457600085156115c2578388013590505b6115cc868261173d565b87555061162c565b601f1985168260005b8281101561160257858a013582556001820191506020860195506020810190506115dd565b8783101561161f57858a013561161b601f8a16826117a2565b8355505b6001600289020189555050505b5050505050505050565b60005b83811015611654578082015181840152602081019050611639565b83811115611663576000848401525b50505050565b60008101600083018061167b816118cb565b90506116878184611af6565b505050600181016020830161169c8185611289565b6116a7818386611b3c565b505050506002810160408301806116be8184611b5a565b5050505050565b6000810160008301806116d7816118e1565b90506116e38184611b19565b5050506000810160208301806116f8816118e1565b90506117048184611b68565b5050505050565b6000600282049050600182168061172357607f821691505b602082108114156117375761173661184f565b5b50919050565b600061174983836117a2565b9150826002028217905092915050565b6000611764826114a3565b91507fffffffffffffffffffffffffffffffffffffffffffffffffffffffffffffffff821415611797576117966117f1565b5b600182019050919050565b60006117b36000198460080261192f565b1980831691505092915050565b60006117cb82611476565b91506117d683611476565b9250826117e6576117e5611820565b5b828207905092915050565b7f4e487b7100000000000000000000000000000000000000000000000000000000600052601160045260246000fd5b7f4e487b7100000000000000000000000000000000000000000000000000000000600052601260045260246000fd5b7f4e487b7100000000000000000000000000000000000000000000000000000000600052602260045260246000fd5b7f4e487b7100000000000000000000000000000000000000000000000000000000600052604160045260246000fd5b6000819050919050565b6000819050919050565b6000819050919050565b600081356118d881611bb0565b80915050919050565b600081356118ee81611bc7565b80915050919050565b6000601f19601f8301169050919050565b60008160001b9050919050565b60008160201b9050919050565b600082821b905092915050565b600082821c905092915050565b611944611bf5565b61194f818484611b8b565b505050565b7f4f776e61626c653a206e6577206f776e657220697320746865207a65726f206160008201527f6464726573730000000000000000000000000000000000000000000000000000602082015250565b7f546f6f2073686f72740000000000000000000000000000000000000000000000600082015250565b7f4f776e61626c653a2063616c6c6572206973206e6f7420746865206f776e6572600082015250565b7f4e6f206c616e6400000000000000000000000000000000000000000000000000600082015250565b600073ffffffffffffffffffffffffffffffffffffffff611a3e84611908565b9350801983169250808416831791505092915050565b600063ffffffff611a6484611908565b9350801983169250808416831791505092915050565b600067ffffffff00000000611a8e84611915565b9350801983169250808416831791505092915050565b600060088302611ad47fffffffffffffffffffffffffffffffffffffffffffffffffffffffffffffffff82611922565b611ade8683611922565b95508019841693508086168417925050509392505050565b611aff826114d0565b611b12611b0b826118ad565b8354611a1e565b8255505050565b611b22826114e2565b611b35611b2e826118b7565b8354611a54565b8255505050565b611b4783838361152a565b505050565b611b568282611669565b5050565b611b6482826116c5565b5050565b611b71826114e2565b611b84611b7d826118b7565b8354611a7a565b8255505050565b611b9483611518565b611ba8611ba0826118c1565b848454611aa4565b825550505050565b611bb981611464565b8114611bc457600080fd5b50565b611bd081611476565b8114611bdb57600080fd5b50565b611be7816114a3565b8114611bf257600080fd5b50565b60009056fea264697066735822122052fe2a2d7d9562ebeaf7b3502fe4925eeed6f56b37c3ab3e41efb04eb8bda00e64736f6c63430008030033",
          "opcodes": "PUSH1 0x80 PUSH1 0x40 MSTORE CALLVALUE DUP1 ISZERO PUSH3 0x11 JUMPI PUSH1 0x0 DUP1 REVERT JUMPDEST POP PUSH3 0x32 PUSH3 0x26 PUSH3 0x1AC PUSH1 0x20 SHL PUSH1 0x20 SHR JUMP JUMPDEST PUSH3 0x1B4 PUSH1 0x20 SHL PUSH1 0x20 SHR JUMP JUMPDEST PUSH1 0x4 PUSH1 0x40 MLOAD DUP1 PUSH1 0x60 ADD PUSH1 0x40 MSTORE DUP1 CALLER PUSH20 0xFFFFFFFFFFFFFFFFFFFFFFFFFFFFFFFFFFFFFFFF AND DUP2 MSTORE PUSH1 0x20 ADD PUSH1 0x40 MLOAD DUP1 PUSH1 0x40 ADD PUSH1 0x40 MSTORE DUP1 PUSH1 0x4 DUP2 MSTORE PUSH1 0x20 ADD PUSH32 0x4D65657400000000000000000000000000000000000000000000000000000000 DUP2 MSTORE POP DUP2 MSTORE PUSH1 0x20 ADD PUSH1 0x40 MLOAD DUP1 PUSH1 0x40 ADD PUSH1 0x40 MSTORE DUP1 PUSH1 0x0 PUSH1 0x3 SIGNEXTEND DUP2 MSTORE PUSH1 0x20 ADD PUSH1 0x0 PUSH1 0x3 SIGNEXTEND DUP2 MSTORE POP DUP2 MSTORE POP SWAP1 DUP1 PUSH1 0x1 DUP2 SLOAD ADD DUP1 DUP3 SSTORE DUP1 SWAP2 POP POP PUSH1 0x1 SWAP1 SUB SWAP1 PUSH1 0x0 MSTORE PUSH1 0x20 PUSH1 0x0 KECCAK256 SWAP1 PUSH1 0x3 MUL ADD PUSH1 0x0 SWAP1 SWAP2 SWAP1 SWAP2 SWAP1 SWAP2 POP PUSH1 0x0 DUP3 ADD MLOAD DUP2 PUSH1 0x0 ADD PUSH1 0x0 PUSH2 0x100 EXP DUP2 SLOAD DUP2 PUSH20 0xFFFFFFFFFFFFFFFFFFFFFFFFFFFFFFFFFFFFFFFF MUL NOT AND SWAP1 DUP4 PUSH20 0xFFFFFFFFFFFFFFFFFFFFFFFFFFFFFFFFFFFFFFFF AND MUL OR SWAP1 SSTORE POP PUSH1 0x20 DUP3 ADD MLOAD DUP2 PUSH1 0x1 ADD SWAP1 DUP1 MLOAD SWAP1 PUSH1 0x20 ADD SWAP1 PUSH3 0x144 SWAP3 SWAP2 SWAP1 PUSH3 0x278 JUMP JUMPDEST POP PUSH1 0x40 DUP3 ADD MLOAD DUP2 PUSH1 0x2 ADD PUSH1 0x0 DUP3 ADD MLOAD DUP2 PUSH1 0x0 ADD PUSH1 0x0 PUSH2 0x100 EXP DUP2 SLOAD DUP2 PUSH4 0xFFFFFFFF MUL NOT AND SWAP1 DUP4 PUSH1 0x3 SIGNEXTEND PUSH4 0xFFFFFFFF AND MUL OR SWAP1 SSTORE POP PUSH1 0x20 DUP3 ADD MLOAD DUP2 PUSH1 0x0 ADD PUSH1 0x4 PUSH2 0x100 EXP DUP2 SLOAD DUP2 PUSH4 0xFFFFFFFF MUL NOT AND SWAP1 DUP4 PUSH1 0x3 SIGNEXTEND PUSH4 0xFFFFFFFF AND MUL OR SWAP1 SSTORE POP POP POP POP POP PUSH3 0x38D JUMP JUMPDEST PUSH1 0x0 CALLER SWAP1 POP SWAP1 JUMP JUMPDEST PUSH1 0x0 DUP1 PUSH1 0x0 SWAP1 SLOAD SWAP1 PUSH2 0x100 EXP SWAP1 DIV PUSH20 0xFFFFFFFFFFFFFFFFFFFFFFFFFFFFFFFFFFFFFFFF AND SWAP1 POP DUP2 PUSH1 0x0 DUP1 PUSH2 0x100 EXP DUP2 SLOAD DUP2 PUSH20 0xFFFFFFFFFFFFFFFFFFFFFFFFFFFFFFFFFFFFFFFF MUL NOT AND SWAP1 DUP4 PUSH20 0xFFFFFFFFFFFFFFFFFFFFFFFFFFFFFFFFFFFFFFFF AND MUL OR SWAP1 SSTORE POP DUP2 PUSH20 0xFFFFFFFFFFFFFFFFFFFFFFFFFFFFFFFFFFFFFFFF AND DUP2 PUSH20 0xFFFFFFFFFFFFFFFFFFFFFFFFFFFFFFFFFFFFFFFF AND PUSH32 0x8BE0079C531659141344CD1FD0A4F28419497F9722A3DAAFE3B4186F6B6457E0 PUSH1 0x40 MLOAD PUSH1 0x40 MLOAD DUP1 SWAP2 SUB SWAP1 LOG3 POP POP JUMP JUMPDEST DUP3 DUP1 SLOAD PUSH3 0x286 SWAP1 PUSH3 0x328 JUMP JUMPDEST SWAP1 PUSH1 0x0 MSTORE PUSH1 0x20 PUSH1 0x0 KECCAK256 SWAP1 PUSH1 0x1F ADD PUSH1 0x20 SWAP1 DIV DUP2 ADD SWAP3 DUP3 PUSH3 0x2AA JUMPI PUSH1 0x0 DUP6 SSTORE PUSH3 0x2F6 JUMP JUMPDEST DUP3 PUSH1 0x1F LT PUSH3 0x2C5 JUMPI DUP1 MLOAD PUSH1 0xFF NOT AND DUP4 DUP1 ADD OR DUP6 SSTORE PUSH3 0x2F6 JUMP JUMPDEST DUP3 DUP1 ADD PUSH1 0x1 ADD DUP6 SSTORE DUP3 ISZERO PUSH3 0x2F6 JUMPI SWAP2 DUP3 ADD JUMPDEST DUP3 DUP2 GT ISZERO PUSH3 0x2F5 JUMPI DUP3 MLOAD DUP3 SSTORE SWAP2 PUSH1 0x20 ADD SWAP2 SWAP1 PUSH1 0x1 ADD SWAP1 PUSH3 0x2D8 JUMP JUMPDEST JUMPDEST POP SWAP1 POP PUSH3 0x305 SWAP2 SWAP1 PUSH3 0x309 JUMP JUMPDEST POP SWAP1 JUMP JUMPDEST JUMPDEST DUP1 DUP3 GT ISZERO PUSH3 0x324 JUMPI PUSH1 0x0 DUP2 PUSH1 0x0 SWAP1 SSTORE POP PUSH1 0x1 ADD PUSH3 0x30A JUMP JUMPDEST POP SWAP1 JUMP JUMPDEST PUSH1 0x0 PUSH1 0x2 DUP3 DIV SWAP1 POP PUSH1 0x1 DUP3 AND DUP1 PUSH3 0x341 JUMPI PUSH1 0x7F DUP3 AND SWAP2 POP JUMPDEST PUSH1 0x20 DUP3 LT DUP2 EQ ISZERO PUSH3 0x358 JUMPI PUSH3 0x357 PUSH3 0x35E JUMP JUMPDEST JUMPDEST POP SWAP2 SWAP1 POP JUMP JUMPDEST PUSH32 0x4E487B7100000000000000000000000000000000000000000000000000000000 PUSH1 0x0 MSTORE PUSH1 0x22 PUSH1 0x4 MSTORE PUSH1 0x24 PUSH1 0x0 REVERT JUMPDEST PUSH2 0x1C30 DUP1 PUSH3 0x39D PUSH1 0x0 CODECOPY PUSH1 0x0 RETURN INVALID PUSH1 0x80 PUSH1 0x40 MSTORE CALLVALUE DUP1 ISZERO PUSH2 0x10 JUMPI PUSH1 0x0 DUP1 REVERT JUMPDEST POP PUSH1 0x4 CALLDATASIZE LT PUSH2 0x93 JUMPI PUSH1 0x0 CALLDATALOAD PUSH1 0xE0 SHR DUP1 PUSH4 0x8DA5CB5B GT PUSH2 0x66 JUMPI DUP1 PUSH4 0x8DA5CB5B EQ PUSH2 0x10B JUMPI DUP1 PUSH4 0xAA577D72 EQ PUSH2 0x129 JUMPI DUP1 PUSH4 0xADBA9B80 EQ PUSH2 0x159 JUMPI DUP1 PUSH4 0xB9E0DB35 EQ PUSH2 0x189 JUMPI DUP1 PUSH4 0xF2FDE38B EQ PUSH2 0x1BB JUMPI PUSH2 0x93 JUMP JUMPDEST DUP1 PUSH4 0x1018E77C EQ PUSH2 0x98 JUMPI DUP1 PUSH4 0x69F4F5EC EQ PUSH2 0xB4 JUMPI DUP1 PUSH4 0x715018A6 EQ PUSH2 0xE5 JUMPI DUP1 PUSH4 0x8199EB21 EQ PUSH2 0xEF JUMPI JUMPDEST PUSH1 0x0 DUP1 REVERT JUMPDEST PUSH2 0xB2 PUSH1 0x4 DUP1 CALLDATASIZE SUB DUP2 ADD SWAP1 PUSH2 0xAD SWAP2 SWAP1 PUSH2 0xF4F JUMP JUMPDEST PUSH2 0x1D7 JUMP JUMPDEST STOP JUMPDEST PUSH2 0xCE PUSH1 0x4 DUP1 CALLDATASIZE SUB DUP2 ADD SWAP1 PUSH2 0xC9 SWAP2 SWAP1 PUSH2 0xEEA JUMP JUMPDEST PUSH2 0x457 JUMP JUMPDEST PUSH1 0x40 MLOAD PUSH2 0xDC SWAP3 SWAP2 SWAP1 PUSH2 0x1260 JUMP JUMPDEST PUSH1 0x40 MLOAD DUP1 SWAP2 SUB SWAP1 RETURN JUMPDEST PUSH2 0xED PUSH2 0x47B JUMP JUMPDEST STOP JUMPDEST PUSH2 0x109 PUSH1 0x4 DUP1 CALLDATASIZE SUB DUP2 ADD SWAP1 PUSH2 0x104 SWAP2 SWAP1 PUSH2 0xFF9 JUMP JUMPDEST PUSH2 0x503 JUMP JUMPDEST STOP JUMPDEST PUSH2 0x113 PUSH2 0xA65 JUMP JUMPDEST PUSH1 0x40 MLOAD PUSH2 0x120 SWAP2 SWAP1 PUSH2 0x116C JUMP JUMPDEST PUSH1 0x40 MLOAD DUP1 SWAP2 SUB SWAP1 RETURN JUMPDEST PUSH2 0x143 PUSH1 0x4 DUP1 CALLDATASIZE SUB DUP2 ADD SWAP1 PUSH2 0x13E SWAP2 SWAP1 PUSH2 0xF13 JUMP JUMPDEST PUSH2 0xA8E JUMP JUMPDEST PUSH1 0x40 MLOAD PUSH2 0x150 SWAP2 SWAP1 PUSH2 0x1245 JUMP JUMPDEST PUSH1 0x40 MLOAD DUP1 SWAP2 SUB SWAP1 RETURN JUMPDEST PUSH2 0x173 PUSH1 0x4 DUP1 CALLDATASIZE SUB DUP2 ADD SWAP1 PUSH2 0x16E SWAP2 SWAP1 PUSH2 0xFBD JUMP JUMPDEST PUSH2 0xABF JUMP JUMPDEST PUSH1 0x40 MLOAD PUSH2 0x180 SWAP2 SWAP1 PUSH2 0x1245 JUMP JUMPDEST PUSH1 0x40 MLOAD DUP1 SWAP2 SUB SWAP1 RETURN JUMPDEST PUSH2 0x1A3 PUSH1 0x4 DUP1 CALLDATASIZE SUB DUP2 ADD SWAP1 PUSH2 0x19E SWAP2 SWAP1 PUSH2 0x1022 JUMP JUMPDEST PUSH2 0xAE4 JUMP JUMPDEST PUSH1 0x40 MLOAD PUSH2 0x1B2 SWAP4 SWAP3 SWAP2 SWAP1 PUSH2 0x1187 JUMP JUMPDEST PUSH1 0x40 MLOAD DUP1 SWAP2 SUB SWAP1 RETURN JUMPDEST PUSH2 0x1D5 PUSH1 0x4 DUP1 CALLDATASIZE SUB DUP2 ADD SWAP1 PUSH2 0x1D0 SWAP2 SWAP1 PUSH2 0xEEA JUMP JUMPDEST PUSH2 0xC0A JUMP JUMPDEST STOP JUMPDEST PUSH2 0x1DF PUSH2 0xD02 JUMP JUMPDEST PUSH20 0xFFFFFFFFFFFFFFFFFFFFFFFFFFFFFFFFFFFFFFFF AND PUSH2 0x1FD PUSH2 0xA65 JUMP JUMPDEST PUSH20 0xFFFFFFFFFFFFFFFFFFFFFFFFFFFFFFFFFFFFFFFF AND EQ PUSH2 0x253 JUMPI PUSH1 0x40 MLOAD PUSH32 0x8C379A000000000000000000000000000000000000000000000000000000000 DUP2 MSTORE PUSH1 0x4 ADD PUSH2 0x24A SWAP1 PUSH2 0x1205 JUMP JUMPDEST PUSH1 0x40 MLOAD DUP1 SWAP2 SUB SWAP1 REVERT JUMPDEST PUSH1 0x0 JUMPDEST DUP3 DUP3 SWAP1 POP DUP2 LT ISZERO PUSH2 0x452 JUMPI PUSH1 0x0 PUSH2 0x2CB DUP5 DUP5 DUP5 DUP2 DUP2 LT PUSH2 0x29F JUMPI PUSH32 0x4E487B7100000000000000000000000000000000000000000000000000000000 PUSH1 0x0 MSTORE PUSH1 0x32 PUSH1 0x4 MSTORE PUSH1 0x24 PUSH1 0x0 REVERT JUMPDEST SWAP1 POP PUSH1 0x20 MUL DUP2 ADD SWAP1 PUSH2 0x2B1 SWAP2 SWAP1 PUSH2 0x12E0 JUMP JUMPDEST PUSH1 0x40 ADD PUSH1 0x0 ADD PUSH1 0x20 DUP2 ADD SWAP1 PUSH2 0x2C6 SWAP2 SWAP1 PUSH2 0xF94 JUMP JUMPDEST PUSH2 0xD0A JUMP JUMPDEST SWAP1 POP PUSH1 0x0 PUSH2 0x337 DUP6 DUP6 DUP6 DUP2 DUP2 LT PUSH2 0x30B JUMPI PUSH32 0x4E487B7100000000000000000000000000000000000000000000000000000000 PUSH1 0x0 MSTORE PUSH1 0x32 PUSH1 0x4 MSTORE PUSH1 0x24 PUSH1 0x0 REVERT JUMPDEST SWAP1 POP PUSH1 0x20 MUL DUP2 ADD SWAP1 PUSH2 0x31D SWAP2 SWAP1 PUSH2 0x12E0 JUMP JUMPDEST PUSH1 0x40 ADD PUSH1 0x20 ADD PUSH1 0x20 DUP2 ADD SWAP1 PUSH2 0x332 SWAP2 SWAP1 PUSH2 0xF94 JUMP JUMPDEST PUSH2 0xD0A JUMP JUMPDEST SWAP1 POP PUSH1 0x0 PUSH1 0x3 PUSH1 0x0 DUP5 PUSH1 0x3 SIGNEXTEND PUSH1 0x3 SIGNEXTEND DUP2 MSTORE PUSH1 0x20 ADD SWAP1 DUP2 MSTORE PUSH1 0x20 ADD PUSH1 0x0 KECCAK256 PUSH1 0x0 DUP4 PUSH1 0x3 SIGNEXTEND PUSH1 0x3 SIGNEXTEND DUP2 MSTORE PUSH1 0x20 ADD SWAP1 DUP2 MSTORE PUSH1 0x20 ADD PUSH1 0x0 KECCAK256 SLOAD EQ ISZERO PUSH2 0x43D JUMPI PUSH1 0x4 DUP6 DUP6 DUP6 DUP2 DUP2 LT PUSH2 0x3AD JUMPI PUSH32 0x4E487B7100000000000000000000000000000000000000000000000000000000 PUSH1 0x0 MSTORE PUSH1 0x32 PUSH1 0x4 MSTORE PUSH1 0x24 PUSH1 0x0 REVERT JUMPDEST SWAP1 POP PUSH1 0x20 MUL DUP2 ADD SWAP1 PUSH2 0x3BF SWAP2 SWAP1 PUSH2 0x12E0 JUMP JUMPDEST SWAP1 DUP1 PUSH1 0x1 DUP2 SLOAD ADD DUP1 DUP3 SSTORE DUP1 SWAP2 POP POP PUSH1 0x1 SWAP1 SUB SWAP1 PUSH1 0x0 MSTORE PUSH1 0x20 PUSH1 0x0 KECCAK256 SWAP1 PUSH1 0x3 MUL ADD PUSH1 0x0 SWAP1 SWAP2 SWAP1 SWAP2 SWAP1 SWAP2 POP DUP2 DUP2 PUSH2 0x3F4 SWAP2 SWAP1 PUSH2 0x1B4C JUMP JUMPDEST POP POP PUSH1 0x1 PUSH1 0x4 DUP1 SLOAD SWAP1 POP PUSH2 0x408 SWAP2 SWAP1 PUSH2 0x1430 JUMP JUMPDEST PUSH1 0x3 PUSH1 0x0 DUP5 PUSH1 0x3 SIGNEXTEND PUSH1 0x3 SIGNEXTEND DUP2 MSTORE PUSH1 0x20 ADD SWAP1 DUP2 MSTORE PUSH1 0x20 ADD PUSH1 0x0 KECCAK256 PUSH1 0x0 DUP4 PUSH1 0x3 SIGNEXTEND PUSH1 0x3 SIGNEXTEND DUP2 MSTORE PUSH1 0x20 ADD SWAP1 DUP2 MSTORE PUSH1 0x20 ADD PUSH1 0x0 KECCAK256 DUP2 SWAP1 SSTORE POP JUMPDEST POP POP DUP1 DUP1 PUSH2 0x44A SWAP1 PUSH2 0x1759 JUMP JUMPDEST SWAP2 POP POP PUSH2 0x256 JUMP JUMPDEST POP POP POP JUMP JUMPDEST PUSH1 0x2 PUSH1 0x20 MSTORE DUP1 PUSH1 0x0 MSTORE PUSH1 0x40 PUSH1 0x0 KECCAK256 PUSH1 0x0 SWAP2 POP SWAP1 POP DUP1 PUSH1 0x0 ADD SLOAD SWAP1 DUP1 PUSH1 0x1 ADD SLOAD SWAP1 POP DUP3 JUMP JUMPDEST PUSH2 0x483 PUSH2 0xD02 JUMP JUMPDEST PUSH20 0xFFFFFFFFFFFFFFFFFFFFFFFFFFFFFFFFFFFFFFFF AND PUSH2 0x4A1 PUSH2 0xA65 JUMP JUMPDEST PUSH20 0xFFFFFFFFFFFFFFFFFFFFFFFFFFFFFFFFFFFFFFFF AND EQ PUSH2 0x4F7 JUMPI PUSH1 0x40 MLOAD PUSH32 0x8C379A000000000000000000000000000000000000000000000000000000000 DUP2 MSTORE PUSH1 0x4 ADD PUSH2 0x4EE SWAP1 PUSH2 0x1205 JUMP JUMPDEST PUSH1 0x40 MLOAD DUP1 SWAP2 SUB SWAP1 REVERT JUMPDEST PUSH2 0x501 PUSH1 0x0 PUSH2 0xD82 JUMP JUMPDEST JUMP JUMPDEST PUSH1 0x0 PUSH2 0x520 DUP3 PUSH1 0x0 ADD PUSH1 0x20 DUP2 ADD SWAP1 PUSH2 0x51B SWAP2 SWAP1 PUSH2 0xF94 JUMP JUMPDEST PUSH2 0xD0A JUMP JUMPDEST SWAP1 POP PUSH1 0x0 PUSH2 0x53F DUP4 PUSH1 0x20 ADD PUSH1 0x20 DUP2 ADD SWAP1 PUSH2 0x53A SWAP2 SWAP1 PUSH2 0xF94 JUMP JUMPDEST PUSH2 0xD0A JUMP JUMPDEST SWAP1 POP PUSH1 0x0 PUSH1 0x3 PUSH1 0x0 DUP5 PUSH1 0x3 SIGNEXTEND PUSH1 0x3 SIGNEXTEND DUP2 MSTORE PUSH1 0x20 ADD SWAP1 DUP2 MSTORE PUSH1 0x20 ADD PUSH1 0x0 KECCAK256 PUSH1 0x0 DUP4 PUSH1 0x3 SIGNEXTEND PUSH1 0x3 SIGNEXTEND DUP2 MSTORE PUSH1 0x20 ADD SWAP1 DUP2 MSTORE PUSH1 0x20 ADD PUSH1 0x0 KECCAK256 SLOAD SWAP1 POP PUSH1 0x0 DUP2 EQ ISZERO PUSH2 0x5BA JUMPI PUSH1 0x40 MLOAD PUSH32 0x8C379A000000000000000000000000000000000000000000000000000000000 DUP2 MSTORE PUSH1 0x4 ADD PUSH2 0x5B1 SWAP1 PUSH2 0x1225 JUMP JUMPDEST PUSH1 0x40 MLOAD DUP1 SWAP2 SUB SWAP1 REVERT JUMPDEST PUSH1 0x0 PUSH1 0x2 PUSH1 0x0 CALLER PUSH20 0xFFFFFFFFFFFFFFFFFFFFFFFFFFFFFFFFFFFFFFFF AND PUSH20 0xFFFFFFFFFFFFFFFFFFFFFFFFFFFFFFFFFFFFFFFF AND DUP2 MSTORE PUSH1 0x20 ADD SWAP1 DUP2 MSTORE PUSH1 0x20 ADD PUSH1 0x0 KECCAK256 PUSH1 0x40 MLOAD DUP1 PUSH1 0x40 ADD PUSH1 0x40 MSTORE SWAP1 DUP2 PUSH1 0x0 DUP3 ADD SLOAD DUP2 MSTORE PUSH1 0x20 ADD PUSH1 0x1 DUP3 ADD SLOAD DUP2 MSTORE POP POP SWAP1 POP PUSH1 0x0 PUSH1 0x4 DUP3 PUSH1 0x20 ADD MLOAD DUP2 SLOAD DUP2 LT PUSH2 0x65C JUMPI PUSH32 0x4E487B7100000000000000000000000000000000000000000000000000000000 PUSH1 0x0 MSTORE PUSH1 0x32 PUSH1 0x4 MSTORE PUSH1 0x24 PUSH1 0x0 REVERT JUMPDEST SWAP1 PUSH1 0x0 MSTORE PUSH1 0x20 PUSH1 0x0 KECCAK256 SWAP1 PUSH1 0x3 MUL ADD PUSH1 0x2 ADD PUSH1 0x40 MLOAD DUP1 PUSH1 0x40 ADD PUSH1 0x40 MSTORE SWAP1 DUP2 PUSH1 0x0 DUP3 ADD PUSH1 0x0 SWAP1 SLOAD SWAP1 PUSH2 0x100 EXP SWAP1 DIV PUSH1 0x3 SIGNEXTEND PUSH1 0x3 SIGNEXTEND PUSH1 0x3 SIGNEXTEND DUP2 MSTORE PUSH1 0x20 ADD PUSH1 0x0 DUP3 ADD PUSH1 0x4 SWAP1 SLOAD SWAP1 PUSH2 0x100 EXP SWAP1 DIV PUSH1 0x3 SIGNEXTEND PUSH1 0x3 SIGNEXTEND PUSH1 0x3 SIGNEXTEND DUP2 MSTORE POP POP SWAP1 POP PUSH1 0x0 DUP2 PUSH1 0x0 ADD MLOAD PUSH1 0x3 SIGNEXTEND DUP8 PUSH1 0x0 ADD PUSH1 0x20 DUP2 ADD SWAP1 PUSH2 0x6D1 SWAP2 SWAP1 PUSH2 0xF94 JUMP JUMPDEST PUSH1 0x3 SIGNEXTEND SGT PUSH2 0x700 JUMPI DUP7 PUSH1 0x0 ADD PUSH1 0x20 DUP2 ADD SWAP1 PUSH2 0x6EC SWAP2 SWAP1 PUSH2 0xF94 JUMP JUMPDEST DUP3 PUSH1 0x0 ADD MLOAD PUSH2 0x6FB SWAP2 SWAP1 PUSH2 0x13B8 JUMP JUMPDEST PUSH2 0x723 JUMP JUMPDEST DUP2 PUSH1 0x0 ADD MLOAD DUP8 PUSH1 0x0 ADD PUSH1 0x20 DUP2 ADD SWAP1 PUSH2 0x718 SWAP2 SWAP1 PUSH2 0xF94 JUMP JUMPDEST PUSH2 0x722 SWAP2 SWAP1 PUSH2 0x13B8 JUMP JUMPDEST JUMPDEST SWAP1 POP PUSH1 0x0 DUP3 PUSH1 0x20 ADD MLOAD PUSH1 0x3 SIGNEXTEND DUP9 PUSH1 0x20 ADD PUSH1 0x20 DUP2 ADD SWAP1 PUSH2 0x742 SWAP2 SWAP1 PUSH2 0xF94 JUMP JUMPDEST PUSH1 0x3 SIGNEXTEND SGT PUSH2 0x771 JUMPI DUP8 PUSH1 0x20 ADD PUSH1 0x20 DUP2 ADD SWAP1 PUSH2 0x75D SWAP2 SWAP1 PUSH2 0xF94 JUMP JUMPDEST DUP4 PUSH1 0x20 ADD MLOAD PUSH2 0x76C SWAP2 SWAP1 PUSH2 0x13B8 JUMP JUMPDEST PUSH2 0x794 JUMP JUMPDEST DUP3 PUSH1 0x20 ADD MLOAD DUP9 PUSH1 0x20 ADD PUSH1 0x20 DUP2 ADD SWAP1 PUSH2 0x789 SWAP2 SWAP1 PUSH2 0xF94 JUMP JUMPDEST PUSH2 0x793 SWAP2 SWAP1 PUSH2 0x13B8 JUMP JUMPDEST JUMPDEST SWAP1 POP DUP2 DUP3 PUSH2 0x7A2 SWAP2 SWAP1 PUSH2 0x1340 JUMP JUMPDEST PUSH4 0xFFFFFFFF AND DUP5 PUSH1 0x0 ADD MLOAD NUMBER PUSH2 0x7B8 SWAP2 SWAP1 PUSH2 0x1430 JUMP JUMPDEST GT PUSH2 0x7F8 JUMPI PUSH1 0x40 MLOAD PUSH32 0x8C379A000000000000000000000000000000000000000000000000000000000 DUP2 MSTORE PUSH1 0x4 ADD PUSH2 0x7EF SWAP1 PUSH2 0x11E5 JUMP JUMPDEST PUSH1 0x40 MLOAD DUP1 SWAP2 SUB SWAP1 REVERT JUMPDEST PUSH1 0x1 PUSH1 0x0 CALLER PUSH20 0xFFFFFFFFFFFFFFFFFFFFFFFFFFFFFFFFFFFFFFFF AND PUSH20 0xFFFFFFFFFFFFFFFFFFFFFFFFFFFFFFFFFFFFFFFF AND DUP2 MSTORE PUSH1 0x20 ADD SWAP1 DUP2 MSTORE PUSH1 0x20 ADD PUSH1 0x0 KECCAK256 DUP6 SWAP1 DUP1 PUSH1 0x1 DUP2 SLOAD ADD DUP1 DUP3 SSTORE DUP1 SWAP2 POP POP PUSH1 0x1 SWAP1 SUB SWAP1 PUSH1 0x0 MSTORE PUSH1 0x20 PUSH1 0x0 KECCAK256 ADD PUSH1 0x0 SWAP1 SWAP2 SWAP1 SWAP2 SWAP1 SWAP2 POP SSTORE PUSH1 0x0 PUSH1 0x4 DUP7 DUP2 SLOAD DUP2 LT PUSH2 0x89A JUMPI PUSH32 0x4E487B7100000000000000000000000000000000000000000000000000000000 PUSH1 0x0 MSTORE PUSH1 0x32 PUSH1 0x4 MSTORE PUSH1 0x24 PUSH1 0x0 REVERT JUMPDEST SWAP1 PUSH1 0x0 MSTORE PUSH1 0x20 PUSH1 0x0 KECCAK256 SWAP1 PUSH1 0x3 MUL ADD PUSH1 0x40 MLOAD DUP1 PUSH1 0x60 ADD PUSH1 0x40 MSTORE SWAP1 DUP2 PUSH1 0x0 DUP3 ADD PUSH1 0x0 SWAP1 SLOAD SWAP1 PUSH2 0x100 EXP SWAP1 DIV PUSH20 0xFFFFFFFFFFFFFFFFFFFFFFFFFFFFFFFFFFFFFFFF AND PUSH20 0xFFFFFFFFFFFFFFFFFFFFFFFFFFFFFFFFFFFFFFFF AND PUSH20 0xFFFFFFFFFFFFFFFFFFFFFFFFFFFFFFFFFFFFFFFF AND DUP2 MSTORE PUSH1 0x20 ADD PUSH1 0x1 DUP3 ADD DUP1 SLOAD PUSH2 0x919 SWAP1 PUSH2 0x170B JUMP JUMPDEST DUP1 PUSH1 0x1F ADD PUSH1 0x20 DUP1 SWAP2 DIV MUL PUSH1 0x20 ADD PUSH1 0x40 MLOAD SWAP1 DUP2 ADD PUSH1 0x40 MSTORE DUP1 SWAP3 SWAP2 SWAP1 DUP2 DUP2 MSTORE PUSH1 0x20 ADD DUP3 DUP1 SLOAD PUSH2 0x945 SWAP1 PUSH2 0x170B JUMP JUMPDEST DUP1 ISZERO PUSH2 0x992 JUMPI DUP1 PUSH1 0x1F LT PUSH2 0x967 JUMPI PUSH2 0x100 DUP1 DUP4 SLOAD DIV MUL DUP4 MSTORE SWAP2 PUSH1 0x20 ADD SWAP2 PUSH2 0x992 JUMP JUMPDEST DUP3 ADD SWAP2 SWAP1 PUSH1 0x0 MSTORE PUSH1 0x20 PUSH1 0x0 KECCAK256 SWAP1 JUMPDEST DUP2 SLOAD DUP2 MSTORE SWAP1 PUSH1 0x1 ADD SWAP1 PUSH1 0x20 ADD DUP1 DUP4 GT PUSH2 0x975 JUMPI DUP3 SWAP1 SUB PUSH1 0x1F AND DUP3 ADD SWAP2 JUMPDEST POP POP POP POP POP DUP2 MSTORE PUSH1 0x20 ADD PUSH1 0x2 DUP3 ADD PUSH1 0x40 MLOAD DUP1 PUSH1 0x40 ADD PUSH1 0x40 MSTORE SWAP1 DUP2 PUSH1 0x0 DUP3 ADD PUSH1 0x0 SWAP1 SLOAD SWAP1 PUSH2 0x100 EXP SWAP1 DIV PUSH1 0x3 SIGNEXTEND PUSH1 0x3 SIGNEXTEND PUSH1 0x3 SIGNEXTEND DUP2 MSTORE PUSH1 0x20 ADD PUSH1 0x0 DUP3 ADD PUSH1 0x4 SWAP1 SLOAD SWAP1 PUSH2 0x100 EXP SWAP1 DIV PUSH1 0x3 SIGNEXTEND PUSH1 0x3 SIGNEXTEND PUSH1 0x3 SIGNEXTEND DUP2 MSTORE POP POP DUP2 MSTORE POP POP SWAP1 POP CALLER DUP2 PUSH1 0x0 ADD SWAP1 PUSH20 0xFFFFFFFFFFFFFFFFFFFFFFFFFFFFFFFFFFFFFFFF AND SWAP1 DUP2 PUSH20 0xFFFFFFFFFFFFFFFFFFFFFFFFFFFFFFFFFFFFFFFF AND DUP2 MSTORE POP POP PUSH32 0x7654B9DB1446C4908633FA6A29C8A191EE1729E7C962B40901F699DCC79975E2 DUP7 PUSH1 0x40 MLOAD PUSH2 0xA52 SWAP2 SWAP1 PUSH2 0x1245 JUMP JUMPDEST PUSH1 0x40 MLOAD DUP1 SWAP2 SUB SWAP1 LOG1 POP POP POP POP POP POP POP POP POP JUMP JUMPDEST PUSH1 0x0 DUP1 PUSH1 0x0 SWAP1 SLOAD SWAP1 PUSH2 0x100 EXP SWAP1 DIV PUSH20 0xFFFFFFFFFFFFFFFFFFFFFFFFFFFFFFFFFFFFFFFF AND SWAP1 POP SWAP1 JUMP JUMPDEST PUSH1 0x1 PUSH1 0x20 MSTORE DUP2 PUSH1 0x0 MSTORE PUSH1 0x40 PUSH1 0x0 KECCAK256 DUP2 DUP2 SLOAD DUP2 LT PUSH2 0xAAA JUMPI PUSH1 0x0 DUP1 REVERT JUMPDEST SWAP1 PUSH1 0x0 MSTORE PUSH1 0x20 PUSH1 0x0 KECCAK256 ADD PUSH1 0x0 SWAP2 POP SWAP2 POP POP SLOAD DUP2 JUMP JUMPDEST PUSH1 0x3 PUSH1 0x20 MSTORE DUP2 PUSH1 0x0 MSTORE PUSH1 0x40 PUSH1 0x0 KECCAK256 PUSH1 0x20 MSTORE DUP1 PUSH1 0x0 MSTORE PUSH1 0x40 PUSH1 0x0 KECCAK256 PUSH1 0x0 SWAP2 POP SWAP2 POP POP SLOAD DUP2 JUMP JUMPDEST PUSH1 0x4 DUP2 DUP2 SLOAD DUP2 LT PUSH2 0xAF4 JUMPI PUSH1 0x0 DUP1 REVERT JUMPDEST SWAP1 PUSH1 0x0 MSTORE PUSH1 0x20 PUSH1 0x0 KECCAK256 SWAP1 PUSH1 0x3 MUL ADD PUSH1 0x0 SWAP2 POP SWAP1 POP DUP1 PUSH1 0x0 ADD PUSH1 0x0 SWAP1 SLOAD SWAP1 PUSH2 0x100 EXP SWAP1 DIV PUSH20 0xFFFFFFFFFFFFFFFFFFFFFFFFFFFFFFFFFFFFFFFF AND SWAP1 DUP1 PUSH1 0x1 ADD DUP1 SLOAD PUSH2 0xB3D SWAP1 PUSH2 0x170B JUMP JUMPDEST DUP1 PUSH1 0x1F ADD PUSH1 0x20 DUP1 SWAP2 DIV MUL PUSH1 0x20 ADD PUSH1 0x40 MLOAD SWAP1 DUP2 ADD PUSH1 0x40 MSTORE DUP1 SWAP3 SWAP2 SWAP1 DUP2 DUP2 MSTORE PUSH1 0x20 ADD DUP3 DUP1 SLOAD PUSH2 0xB69 SWAP1 PUSH2 0x170B JUMP JUMPDEST DUP1 ISZERO PUSH2 0xBB6 JUMPI DUP1 PUSH1 0x1F LT PUSH2 0xB8B JUMPI PUSH2 0x100 DUP1 DUP4 SLOAD DIV MUL DUP4 MSTORE SWAP2 PUSH1 0x20 ADD SWAP2 PUSH2 0xBB6 JUMP JUMPDEST DUP3 ADD SWAP2 SWAP1 PUSH1 0x0 MSTORE PUSH1 0x20 PUSH1 0x0 KECCAK256 SWAP1 JUMPDEST DUP2 SLOAD DUP2 MSTORE SWAP1 PUSH1 0x1 ADD SWAP1 PUSH1 0x20 ADD DUP1 DUP4 GT PUSH2 0xB99 JUMPI DUP3 SWAP1 SUB PUSH1 0x1F AND DUP3 ADD SWAP2 JUMPDEST POP POP POP POP POP SWAP1 DUP1 PUSH1 0x2 ADD PUSH1 0x40 MLOAD DUP1 PUSH1 0x40 ADD PUSH1 0x40 MSTORE SWAP1 DUP2 PUSH1 0x0 DUP3 ADD PUSH1 0x0 SWAP1 SLOAD SWAP1 PUSH2 0x100 EXP SWAP1 DIV PUSH1 0x3 SIGNEXTEND PUSH1 0x3 SIGNEXTEND PUSH1 0x3 SIGNEXTEND DUP2 MSTORE PUSH1 0x20 ADD PUSH1 0x0 DUP3 ADD PUSH1 0x4 SWAP1 SLOAD SWAP1 PUSH2 0x100 EXP SWAP1 DIV PUSH1 0x3 SIGNEXTEND PUSH1 0x3 SIGNEXTEND PUSH1 0x3 SIGNEXTEND DUP2 MSTORE POP POP SWAP1 POP DUP4 JUMP JUMPDEST PUSH2 0xC12 PUSH2 0xD02 JUMP JUMPDEST PUSH20 0xFFFFFFFFFFFFFFFFFFFFFFFFFFFFFFFFFFFFFFFF AND PUSH2 0xC30 PUSH2 0xA65 JUMP JUMPDEST PUSH20 0xFFFFFFFFFFFFFFFFFFFFFFFFFFFFFFFFFFFFFFFF AND EQ PUSH2 0xC86 JUMPI PUSH1 0x40 MLOAD PUSH32 0x8C379A000000000000000000000000000000000000000000000000000000000 DUP2 MSTORE PUSH1 0x4 ADD PUSH2 0xC7D SWAP1 PUSH2 0x1205 JUMP JUMPDEST PUSH1 0x40 MLOAD DUP1 SWAP2 SUB SWAP1 REVERT JUMPDEST PUSH1 0x0 PUSH20 0xFFFFFFFFFFFFFFFFFFFFFFFFFFFFFFFFFFFFFFFF AND DUP2 PUSH20 0xFFFFFFFFFFFFFFFFFFFFFFFFFFFFFFFFFFFFFFFF AND EQ ISZERO PUSH2 0xCF6 JUMPI PUSH1 0x40 MLOAD PUSH32 0x8C379A000000000000000000000000000000000000000000000000000000000 DUP2 MSTORE PUSH1 0x4 ADD PUSH2 0xCED SWAP1 PUSH2 0x11C5 JUMP JUMPDEST PUSH1 0x40 MLOAD DUP1 SWAP2 SUB SWAP1 REVERT JUMPDEST PUSH2 0xCFF DUP2 PUSH2 0xD82 JUMP JUMPDEST POP JUMP JUMPDEST PUSH1 0x0 CALLER SWAP1 POP SWAP1 JUMP JUMPDEST PUSH1 0x0 DUP1 PUSH1 0xA DUP4 PUSH2 0xD1A SWAP2 SWAP1 PUSH2 0x17C0 JUMP JUMPDEST SWAP1 POP PUSH1 0x3 DUP2 PUSH1 0x3 SIGNEXTEND SLT PUSH2 0xD61 JUMPI PUSH1 0x7 DUP2 PUSH1 0x3 SIGNEXTEND SGT PUSH2 0xD43 JUMPI DUP1 DUP4 PUSH2 0xD3E SWAP2 SWAP1 PUSH2 0x13B8 JUMP JUMPDEST PUSH2 0xD5C JUMP JUMPDEST PUSH1 0x5 DUP2 DUP5 PUSH2 0xD51 SWAP2 SWAP1 PUSH2 0x13B8 JUMP JUMPDEST PUSH2 0xD5B SWAP2 SWAP1 PUSH2 0x1340 JUMP JUMPDEST JUMPDEST PUSH2 0xD7A JUMP JUMPDEST PUSH1 0x5 DUP2 DUP5 PUSH2 0xD6F SWAP2 SWAP1 PUSH2 0x13B8 JUMP JUMPDEST PUSH2 0xD79 SWAP2 SWAP1 PUSH2 0x13B8 JUMP JUMPDEST JUMPDEST SWAP2 POP POP SWAP2 SWAP1 POP JUMP JUMPDEST PUSH1 0x0 DUP1 PUSH1 0x0 SWAP1 SLOAD SWAP1 PUSH2 0x100 EXP SWAP1 DIV PUSH20 0xFFFFFFFFFFFFFFFFFFFFFFFFFFFFFFFFFFFFFFFF AND SWAP1 POP DUP2 PUSH1 0x0 DUP1 PUSH2 0x100 EXP DUP2 SLOAD DUP2 PUSH20 0xFFFFFFFFFFFFFFFFFFFFFFFFFFFFFFFFFFFFFFFF MUL NOT AND SWAP1 DUP4 PUSH20 0xFFFFFFFFFFFFFFFFFFFFFFFFFFFFFFFFFFFFFFFF AND MUL OR SWAP1 SSTORE POP DUP2 PUSH20 0xFFFFFFFFFFFFFFFFFFFFFFFFFFFFFFFFFFFFFFFF AND DUP2 PUSH20 0xFFFFFFFFFFFFFFFFFFFFFFFFFFFFFFFFFFFFFFFF AND PUSH32 0x8BE0079C531659141344CD1FD0A4F28419497F9722A3DAAFE3B4186F6B6457E0 PUSH1 0x40 MLOAD PUSH1 0x40 MLOAD DUP1 SWAP2 SUB SWAP1 LOG3 POP POP JUMP JUMPDEST PUSH1 0x0 DUP2 CALLDATALOAD SWAP1 POP PUSH2 0xE55 DUP2 PUSH2 0x1BB0 JUMP JUMPDEST SWAP3 SWAP2 POP POP JUMP JUMPDEST PUSH1 0x0 DUP1 DUP4 PUSH1 0x1F DUP5 ADD SLT PUSH2 0xE6D JUMPI PUSH1 0x0 DUP1 REVERT JUMPDEST DUP3 CALLDATALOAD SWAP1 POP PUSH8 0xFFFFFFFFFFFFFFFF DUP2 GT ISZERO PUSH2 0xE86 JUMPI PUSH1 0x0 DUP1 REVERT JUMPDEST PUSH1 0x20 DUP4 ADD SWAP2 POP DUP4 PUSH1 0x20 DUP3 MUL DUP4 ADD GT ISZERO PUSH2 0xE9E JUMPI PUSH1 0x0 DUP1 REVERT JUMPDEST SWAP3 POP SWAP3 SWAP1 POP JUMP JUMPDEST PUSH1 0x0 DUP2 CALLDATALOAD SWAP1 POP PUSH2 0xEB4 DUP2 PUSH2 0x1BC7 JUMP JUMPDEST SWAP3 SWAP2 POP POP JUMP JUMPDEST PUSH1 0x0 PUSH1 0x40 DUP3 DUP5 SUB SLT ISZERO PUSH2 0xECC JUMPI PUSH1 0x0 DUP1 REVERT JUMPDEST DUP2 SWAP1 POP SWAP3 SWAP2 POP POP JUMP JUMPDEST PUSH1 0x0 DUP2 CALLDATALOAD SWAP1 POP PUSH2 0xEE4 DUP2 PUSH2 0x1BDE JUMP JUMPDEST SWAP3 SWAP2 POP POP JUMP JUMPDEST PUSH1 0x0 PUSH1 0x20 DUP3 DUP5 SUB SLT ISZERO PUSH2 0xEFC JUMPI PUSH1 0x0 DUP1 REVERT JUMPDEST PUSH1 0x0 PUSH2 0xF0A DUP5 DUP3 DUP6 ADD PUSH2 0xE46 JUMP JUMPDEST SWAP2 POP POP SWAP3 SWAP2 POP POP JUMP JUMPDEST PUSH1 0x0 DUP1 PUSH1 0x40 DUP4 DUP6 SUB SLT ISZERO PUSH2 0xF26 JUMPI PUSH1 0x0 DUP1 REVERT JUMPDEST PUSH1 0x0 PUSH2 0xF34 DUP6 DUP3 DUP7 ADD PUSH2 0xE46 JUMP JUMPDEST SWAP3 POP POP PUSH1 0x20 PUSH2 0xF45 DUP6 DUP3 DUP7 ADD PUSH2 0xED5 JUMP JUMPDEST SWAP2 POP POP SWAP3 POP SWAP3 SWAP1 POP JUMP JUMPDEST PUSH1 0x0 DUP1 PUSH1 0x20 DUP4 DUP6 SUB SLT ISZERO PUSH2 0xF62 JUMPI PUSH1 0x0 DUP1 REVERT JUMPDEST PUSH1 0x0 DUP4 ADD CALLDATALOAD PUSH8 0xFFFFFFFFFFFFFFFF DUP2 GT ISZERO PUSH2 0xF7C JUMPI PUSH1 0x0 DUP1 REVERT JUMPDEST PUSH2 0xF88 DUP6 DUP3 DUP7 ADD PUSH2 0xE5B JUMP JUMPDEST SWAP3 POP SWAP3 POP POP SWAP3 POP SWAP3 SWAP1 POP JUMP JUMPDEST PUSH1 0x0 PUSH1 0x20 DUP3 DUP5 SUB SLT ISZERO PUSH2 0xFA6 JUMPI PUSH1 0x0 DUP1 REVERT JUMPDEST PUSH1 0x0 PUSH2 0xFB4 DUP5 DUP3 DUP6 ADD PUSH2 0xEA5 JUMP JUMPDEST SWAP2 POP POP SWAP3 SWAP2 POP POP JUMP JUMPDEST PUSH1 0x0 DUP1 PUSH1 0x40 DUP4 DUP6 SUB SLT ISZERO PUSH2 0xFD0 JUMPI PUSH1 0x0 DUP1 REVERT JUMPDEST PUSH1 0x0 PUSH2 0xFDE DUP6 DUP3 DUP7 ADD PUSH2 0xEA5 JUMP JUMPDEST SWAP3 POP POP PUSH1 0x20 PUSH2 0xFEF DUP6 DUP3 DUP7 ADD PUSH2 0xEA5 JUMP JUMPDEST SWAP2 POP POP SWAP3 POP SWAP3 SWAP1 POP JUMP JUMPDEST PUSH1 0x0 PUSH1 0x40 DUP3 DUP5 SUB SLT ISZERO PUSH2 0x100B JUMPI PUSH1 0x0 DUP1 REVERT JUMPDEST PUSH1 0x0 PUSH2 0x1019 DUP5 DUP3 DUP6 ADD PUSH2 0xEBA JUMP JUMPDEST SWAP2 POP POP SWAP3 SWAP2 POP POP JUMP JUMPDEST PUSH1 0x0 PUSH1 0x20 DUP3 DUP5 SUB SLT ISZERO PUSH2 0x1034 JUMPI PUSH1 0x0 DUP1 REVERT JUMPDEST PUSH1 0x0 PUSH2 0x1042 DUP5 DUP3 DUP6 ADD PUSH2 0xED5 JUMP JUMPDEST SWAP2 POP POP SWAP3 SWAP2 POP POP JUMP JUMPDEST PUSH2 0x1054 DUP2 PUSH2 0x1464 JUMP JUMPDEST DUP3 MSTORE POP POP JUMP JUMPDEST PUSH2 0x1063 DUP2 PUSH2 0x1476 JUMP JUMPDEST DUP3 MSTORE POP POP JUMP JUMPDEST PUSH1 0x0 PUSH2 0x1074 DUP3 PUSH2 0x1324 JUMP JUMPDEST PUSH2 0x107E DUP2 DUP6 PUSH2 0x132F JUMP JUMPDEST SWAP4 POP PUSH2 0x108E DUP2 DUP6 PUSH1 0x20 DUP7 ADD PUSH2 0x1636 JUMP JUMPDEST PUSH2 0x1097 DUP2 PUSH2 0x18F7 JUMP JUMPDEST DUP5 ADD SWAP2 POP POP SWAP3 SWAP2 POP POP JUMP JUMPDEST PUSH1 0x0 PUSH2 0x10AF PUSH1 0x26 DUP4 PUSH2 0x132F JUMP JUMPDEST SWAP2 POP PUSH2 0x10BA DUP3 PUSH2 0x1954 JUMP JUMPDEST PUSH1 0x40 DUP3 ADD SWAP1 POP SWAP2 SWAP1 POP JUMP JUMPDEST PUSH1 0x0 PUSH2 0x10D2 PUSH1 0x9 DUP4 PUSH2 0x132F JUMP JUMPDEST SWAP2 POP PUSH2 0x10DD DUP3 PUSH2 0x19A3 JUMP JUMPDEST PUSH1 0x20 DUP3 ADD SWAP1 POP SWAP2 SWAP1 POP JUMP JUMPDEST PUSH1 0x0 PUSH2 0x10F5 PUSH1 0x20 DUP4 PUSH2 0x132F JUMP JUMPDEST SWAP2 POP PUSH2 0x1100 DUP3 PUSH2 0x19CC JUMP JUMPDEST PUSH1 0x20 DUP3 ADD SWAP1 POP SWAP2 SWAP1 POP JUMP JUMPDEST PUSH1 0x0 PUSH2 0x1118 PUSH1 0x7 DUP4 PUSH2 0x132F JUMP JUMPDEST SWAP2 POP PUSH2 0x1123 DUP3 PUSH2 0x19F5 JUMP JUMPDEST PUSH1 0x20 DUP3 ADD SWAP1 POP SWAP2 SWAP1 POP JUMP JUMPDEST PUSH1 0x40 DUP3 ADD PUSH1 0x0 DUP3 ADD MLOAD PUSH2 0x1144 PUSH1 0x0 DUP6 ADD DUP3 PUSH2 0x105A JUMP JUMPDEST POP PUSH1 0x20 DUP3 ADD MLOAD PUSH2 0x1157 PUSH1 0x20 DUP6 ADD DUP3 PUSH2 0x105A JUMP JUMPDEST POP POP POP POP JUMP JUMPDEST PUSH2 0x1166 DUP2 PUSH2 0x14A3 JUMP JUMPDEST DUP3 MSTORE POP POP JUMP JUMPDEST PUSH1 0x0 PUSH1 0x20 DUP3 ADD SWAP1 POP PUSH2 0x1181 PUSH1 0x0 DUP4 ADD DUP5 PUSH2 0x104B JUMP JUMPDEST SWAP3 SWAP2 POP POP JUMP JUMPDEST PUSH1 0x0 PUSH1 0x80 DUP3 ADD SWAP1 POP PUSH2 0x119C PUSH1 0x0 DUP4 ADD DUP7 PUSH2 0x104B JUMP JUMPDEST DUP2 DUP2 SUB PUSH1 0x20 DUP4 ADD MSTORE PUSH2 0x11AE DUP2 DUP6 PUSH2 0x1069 JUMP JUMPDEST SWAP1 POP PUSH2 0x11BD PUSH1 0x40 DUP4 ADD DUP5 PUSH2 0x112E JUMP JUMPDEST SWAP5 SWAP4 POP POP POP POP JUMP JUMPDEST PUSH1 0x0 PUSH1 0x20 DUP3 ADD SWAP1 POP DUP2 DUP2 SUB PUSH1 0x0 DUP4 ADD MSTORE PUSH2 0x11DE DUP2 PUSH2 0x10A2 JUMP JUMPDEST SWAP1 POP SWAP2 SWAP1 POP JUMP JUMPDEST PUSH1 0x0 PUSH1 0x20 DUP3 ADD SWAP1 POP DUP2 DUP2 SUB PUSH1 0x0 DUP4 ADD MSTORE PUSH2 0x11FE DUP2 PUSH2 0x10C5 JUMP JUMPDEST SWAP1 POP SWAP2 SWAP1 POP JUMP JUMPDEST PUSH1 0x0 PUSH1 0x20 DUP3 ADD SWAP1 POP DUP2 DUP2 SUB PUSH1 0x0 DUP4 ADD MSTORE PUSH2 0x121E DUP2 PUSH2 0x10E8 JUMP JUMPDEST SWAP1 POP SWAP2 SWAP1 POP JUMP JUMPDEST PUSH1 0x0 PUSH1 0x20 DUP3 ADD SWAP1 POP DUP2 DUP2 SUB PUSH1 0x0 DUP4 ADD MSTORE PUSH2 0x123E DUP2 PUSH2 0x110B JUMP JUMPDEST SWAP1 POP SWAP2 SWAP1 POP JUMP JUMPDEST PUSH1 0x0 PUSH1 0x20 DUP3 ADD SWAP1 POP PUSH2 0x125A PUSH1 0x0 DUP4 ADD DUP5 PUSH2 0x115D JUMP JUMPDEST SWAP3 SWAP2 POP POP JUMP JUMPDEST PUSH1 0x0 PUSH1 0x40 DUP3 ADD SWAP1 POP PUSH2 0x1275 PUSH1 0x0 DUP4 ADD DUP6 PUSH2 0x115D JUMP JUMPDEST PUSH2 0x1282 PUSH1 0x20 DUP4 ADD DUP5 PUSH2 0x115D JUMP JUMPDEST SWAP4 SWAP3 POP POP POP JUMP JUMPDEST PUSH1 0x0 DUP1 DUP4 CALLDATALOAD PUSH1 0x1 PUSH1 0x20 SUB DUP5 CALLDATASIZE SUB SUB DUP2 SLT PUSH2 0x12A2 JUMPI PUSH1 0x0 DUP1 REVERT JUMPDEST DUP1 DUP5 ADD SWAP3 POP DUP3 CALLDATALOAD SWAP2 POP PUSH8 0xFFFFFFFFFFFFFFFF DUP3 GT ISZERO PUSH2 0x12C0 JUMPI PUSH1 0x0 DUP1 REVERT JUMPDEST PUSH1 0x20 DUP4 ADD SWAP3 POP PUSH1 0x1 DUP3 MUL CALLDATASIZE SUB DUP4 SGT ISZERO PUSH2 0x12D8 JUMPI PUSH1 0x0 DUP1 REVERT JUMPDEST POP SWAP3 POP SWAP3 SWAP1 POP JUMP JUMPDEST PUSH1 0x0 DUP3 CALLDATALOAD PUSH1 0x1 PUSH1 0x80 SUB DUP4 CALLDATASIZE SUB SUB DUP2 SLT PUSH2 0x12F8 JUMPI PUSH1 0x0 DUP1 REVERT JUMPDEST DUP1 DUP4 ADD SWAP2 POP POP SWAP3 SWAP2 POP POP JUMP JUMPDEST PUSH1 0x0 DUP2 SWAP1 POP DUP2 PUSH1 0x0 MSTORE PUSH1 0x20 PUSH1 0x0 KECCAK256 SWAP1 POP SWAP2 SWAP1 POP JUMP JUMPDEST PUSH1 0x0 DUP3 SWAP1 POP SWAP3 SWAP2 POP POP JUMP JUMPDEST PUSH1 0x0 DUP2 MLOAD SWAP1 POP SWAP2 SWAP1 POP JUMP JUMPDEST PUSH1 0x0 DUP3 DUP3 MSTORE PUSH1 0x20 DUP3 ADD SWAP1 POP SWAP3 SWAP2 POP POP JUMP JUMPDEST PUSH1 0x0 PUSH2 0x134B DUP3 PUSH2 0x1476 JUMP JUMPDEST SWAP2 POP PUSH2 0x1356 DUP4 PUSH2 0x1476 JUMP JUMPDEST SWAP3 POP DUP2 PUSH4 0x7FFFFFFF SUB DUP4 SGT PUSH1 0x0 DUP4 SLT ISZERO AND ISZERO PUSH2 0x1375 JUMPI PUSH2 0x1374 PUSH2 0x17F1 JUMP JUMPDEST JUMPDEST DUP2 PUSH32 0xFFFFFFFFFFFFFFFFFFFFFFFFFFFFFFFFFFFFFFFFFFFFFFFFFFFFFFFF80000000 SUB DUP4 SLT PUSH1 0x0 DUP4 SLT AND ISZERO PUSH2 0x13AD JUMPI PUSH2 0x13AC PUSH2 0x17F1 JUMP JUMPDEST JUMPDEST DUP3 DUP3 ADD SWAP1 POP SWAP3 SWAP2 POP POP JUMP JUMPDEST PUSH1 0x0 PUSH2 0x13C3 DUP3 PUSH2 0x1476 JUMP JUMPDEST SWAP2 POP PUSH2 0x13CE DUP4 PUSH2 0x1476 JUMP JUMPDEST SWAP3 POP DUP3 PUSH32 0xFFFFFFFFFFFFFFFFFFFFFFFFFFFFFFFFFFFFFFFFFFFFFFFFFFFFFFFF80000000 ADD DUP3 SLT PUSH1 0x0 DUP5 SLT ISZERO AND ISZERO PUSH2 0x1409 JUMPI PUSH2 0x1408 PUSH2 0x17F1 JUMP JUMPDEST JUMPDEST DUP3 PUSH4 0x7FFFFFFF ADD DUP3 SGT PUSH1 0x0 DUP5 SLT AND ISZERO PUSH2 0x1425 JUMPI PUSH2 0x1424 PUSH2 0x17F1 JUMP JUMPDEST JUMPDEST DUP3 DUP3 SUB SWAP1 POP SWAP3 SWAP2 POP POP JUMP JUMPDEST PUSH1 0x0 PUSH2 0x143B DUP3 PUSH2 0x14A3 JUMP JUMPDEST SWAP2 POP PUSH2 0x1446 DUP4 PUSH2 0x14A3 JUMP JUMPDEST SWAP3 POP DUP3 DUP3 LT ISZERO PUSH2 0x1459 JUMPI PUSH2 0x1458 PUSH2 0x17F1 JUMP JUMPDEST JUMPDEST DUP3 DUP3 SUB SWAP1 POP SWAP3 SWAP2 POP POP JUMP JUMPDEST PUSH1 0x0 PUSH2 0x146F DUP3 PUSH2 0x1483 JUMP JUMPDEST SWAP1 POP SWAP2 SWAP1 POP JUMP JUMPDEST PUSH1 0x0 DUP2 PUSH1 0x3 SIGNEXTEND SWAP1 POP SWAP2 SWAP1 POP JUMP JUMPDEST PUSH1 0x0 PUSH20 0xFFFFFFFFFFFFFFFFFFFFFFFFFFFFFFFFFFFFFFFF DUP3 AND SWAP1 POP SWAP2 SWAP1 POP JUMP JUMPDEST PUSH1 0x0 DUP2 SWAP1 POP SWAP2 SWAP1 POP JUMP JUMPDEST JUMPDEST DUP2 DUP2 LT ISZERO PUSH2 0x14CC JUMPI PUSH2 0x14C1 PUSH1 0x0 DUP3 PUSH2 0x193C JUMP JUMPDEST PUSH1 0x1 DUP2 ADD SWAP1 POP PUSH2 0x14AE JUMP JUMPDEST POP POP JUMP JUMPDEST PUSH1 0x0 PUSH2 0x14DB DUP3 PUSH2 0x14F4 JUMP JUMPDEST SWAP1 POP SWAP2 SWAP1 POP JUMP JUMPDEST PUSH1 0x0 PUSH2 0x14ED DUP3 PUSH2 0x1476 JUMP JUMPDEST SWAP1 POP SWAP2 SWAP1 POP JUMP JUMPDEST PUSH1 0x0 PUSH2 0x14FF DUP3 PUSH2 0x1506 JUMP JUMPDEST SWAP1 POP SWAP2 SWAP1 POP JUMP JUMPDEST PUSH1 0x0 PUSH2 0x1511 DUP3 PUSH2 0x1483 JUMP JUMPDEST SWAP1 POP SWAP2 SWAP1 POP JUMP JUMPDEST PUSH1 0x0 PUSH2 0x1523 DUP3 PUSH2 0x14A3 JUMP JUMPDEST SWAP1 POP SWAP2 SWAP1 POP JUMP JUMPDEST PUSH2 0x1534 DUP4 DUP4 PUSH2 0x1319 JUMP JUMPDEST PUSH8 0xFFFFFFFFFFFFFFFF DUP2 GT ISZERO PUSH2 0x154D JUMPI PUSH2 0x154C PUSH2 0x187E JUMP JUMPDEST JUMPDEST PUSH2 0x1557 DUP3 SLOAD PUSH2 0x170B JUMP JUMPDEST PUSH1 0x0 DUP1 PUSH1 0x1F DUP5 GT PUSH1 0x1F DUP5 GT OR ISZERO PUSH2 0x1574 JUMPI PUSH2 0x1571 DUP6 PUSH2 0x1304 JUMP JUMPDEST SWAP1 POP JUMPDEST PUSH1 0x1F DUP4 GT ISZERO PUSH2 0x15A7 JUMPI PUSH1 0x20 PUSH1 0x1F DUP6 ADD DIV DUP2 ADD PUSH1 0x20 DUP6 LT ISZERO PUSH2 0x1593 JUMPI DUP2 SWAP1 POP JUMPDEST PUSH2 0x15A5 PUSH1 0x20 PUSH1 0x1F DUP7 ADD DIV DUP4 ADD DUP3 PUSH2 0x14AD JUMP JUMPDEST POP JUMPDEST PUSH1 0x1F DUP5 GT PUSH1 0x1 DUP2 EQ PUSH2 0x15D4 JUMPI PUSH1 0x0 DUP6 ISZERO PUSH2 0x15C2 JUMPI DUP4 DUP9 ADD CALLDATALOAD SWAP1 POP JUMPDEST PUSH2 0x15CC DUP7 DUP3 PUSH2 0x173D JUMP JUMPDEST DUP8 SSTORE POP PUSH2 0x162C JUMP JUMPDEST PUSH1 0x1F NOT DUP6 AND DUP3 PUSH1 0x0 JUMPDEST DUP3 DUP2 LT ISZERO PUSH2 0x1602 JUMPI DUP6 DUP11 ADD CALLDATALOAD DUP3 SSTORE PUSH1 0x1 DUP3 ADD SWAP2 POP PUSH1 0x20 DUP7 ADD SWAP6 POP PUSH1 0x20 DUP2 ADD SWAP1 POP PUSH2 0x15DD JUMP JUMPDEST DUP8 DUP4 LT ISZERO PUSH2 0x161F JUMPI DUP6 DUP11 ADD CALLDATALOAD PUSH2 0x161B PUSH1 0x1F DUP11 AND DUP3 PUSH2 0x17A2 JUMP JUMPDEST DUP4 SSTORE POP JUMPDEST PUSH1 0x1 PUSH1 0x2 DUP10 MUL ADD DUP10 SSTORE POP POP POP JUMPDEST POP POP POP POP POP POP POP POP JUMP JUMPDEST PUSH1 0x0 JUMPDEST DUP4 DUP2 LT ISZERO PUSH2 0x1654 JUMPI DUP1 DUP3 ADD MLOAD DUP2 DUP5 ADD MSTORE PUSH1 0x20 DUP2 ADD SWAP1 POP PUSH2 0x1639 JUMP JUMPDEST DUP4 DUP2 GT ISZERO PUSH2 0x1663 JUMPI PUSH1 0x0 DUP5 DUP5 ADD MSTORE JUMPDEST POP POP POP POP JUMP JUMPDEST PUSH1 0x0 DUP2 ADD PUSH1 0x0 DUP4 ADD DUP1 PUSH2 0x167B DUP2 PUSH2 0x18CB JUMP JUMPDEST SWAP1 POP PUSH2 0x1687 DUP2 DUP5 PUSH2 0x1AF6 JUMP JUMPDEST POP POP POP PUSH1 0x1 DUP2 ADD PUSH1 0x20 DUP4 ADD PUSH2 0x169C DUP2 DUP6 PUSH2 0x1289 JUMP JUMPDEST PUSH2 0x16A7 DUP2 DUP4 DUP7 PUSH2 0x1B3C JUMP JUMPDEST POP POP POP POP PUSH1 0x2 DUP2 ADD PUSH1 0x40 DUP4 ADD DUP1 PUSH2 0x16BE DUP2 DUP5 PUSH2 0x1B5A JUMP JUMPDEST POP POP POP POP POP JUMP JUMPDEST PUSH1 0x0 DUP2 ADD PUSH1 0x0 DUP4 ADD DUP1 PUSH2 0x16D7 DUP2 PUSH2 0x18E1 JUMP JUMPDEST SWAP1 POP PUSH2 0x16E3 DUP2 DUP5 PUSH2 0x1B19 JUMP JUMPDEST POP POP POP PUSH1 0x0 DUP2 ADD PUSH1 0x20 DUP4 ADD DUP1 PUSH2 0x16F8 DUP2 PUSH2 0x18E1 JUMP JUMPDEST SWAP1 POP PUSH2 0x1704 DUP2 DUP5 PUSH2 0x1B68 JUMP JUMPDEST POP POP POP POP POP JUMP JUMPDEST PUSH1 0x0 PUSH1 0x2 DUP3 DIV SWAP1 POP PUSH1 0x1 DUP3 AND DUP1 PUSH2 0x1723 JUMPI PUSH1 0x7F DUP3 AND SWAP2 POP JUMPDEST PUSH1 0x20 DUP3 LT DUP2 EQ ISZERO PUSH2 0x1737 JUMPI PUSH2 0x1736 PUSH2 0x184F JUMP JUMPDEST JUMPDEST POP SWAP2 SWAP1 POP JUMP JUMPDEST PUSH1 0x0 PUSH2 0x1749 DUP4 DUP4 PUSH2 0x17A2 JUMP JUMPDEST SWAP2 POP DUP3 PUSH1 0x2 MUL DUP3 OR SWAP1 POP SWAP3 SWAP2 POP POP JUMP JUMPDEST PUSH1 0x0 PUSH2 0x1764 DUP3 PUSH2 0x14A3 JUMP JUMPDEST SWAP2 POP PUSH32 0xFFFFFFFFFFFFFFFFFFFFFFFFFFFFFFFFFFFFFFFFFFFFFFFFFFFFFFFFFFFFFFFF DUP3 EQ ISZERO PUSH2 0x1797 JUMPI PUSH2 0x1796 PUSH2 0x17F1 JUMP JUMPDEST JUMPDEST PUSH1 0x1 DUP3 ADD SWAP1 POP SWAP2 SWAP1 POP JUMP JUMPDEST PUSH1 0x0 PUSH2 0x17B3 PUSH1 0x0 NOT DUP5 PUSH1 0x8 MUL PUSH2 0x192F JUMP JUMPDEST NOT DUP1 DUP4 AND SWAP2 POP POP SWAP3 SWAP2 POP POP JUMP JUMPDEST PUSH1 0x0 PUSH2 0x17CB DUP3 PUSH2 0x1476 JUMP JUMPDEST SWAP2 POP PUSH2 0x17D6 DUP4 PUSH2 0x1476 JUMP JUMPDEST SWAP3 POP DUP3 PUSH2 0x17E6 JUMPI PUSH2 0x17E5 PUSH2 0x1820 JUMP JUMPDEST JUMPDEST DUP3 DUP3 SMOD SWAP1 POP SWAP3 SWAP2 POP POP JUMP JUMPDEST PUSH32 0x4E487B7100000000000000000000000000000000000000000000000000000000 PUSH1 0x0 MSTORE PUSH1 0x11 PUSH1 0x4 MSTORE PUSH1 0x24 PUSH1 0x0 REVERT JUMPDEST PUSH32 0x4E487B7100000000000000000000000000000000000000000000000000000000 PUSH1 0x0 MSTORE PUSH1 0x12 PUSH1 0x4 MSTORE PUSH1 0x24 PUSH1 0x0 REVERT JUMPDEST PUSH32 0x4E487B7100000000000000000000000000000000000000000000000000000000 PUSH1 0x0 MSTORE PUSH1 0x22 PUSH1 0x4 MSTORE PUSH1 0x24 PUSH1 0x0 REVERT JUMPDEST PUSH32 0x4E487B7100000000000000000000000000000000000000000000000000000000 PUSH1 0x0 MSTORE PUSH1 0x41 PUSH1 0x4 MSTORE PUSH1 0x24 PUSH1 0x0 REVERT JUMPDEST PUSH1 0x0 DUP2 SWAP1 POP SWAP2 SWAP1 POP JUMP JUMPDEST PUSH1 0x0 DUP2 SWAP1 POP SWAP2 SWAP1 POP JUMP JUMPDEST PUSH1 0x0 DUP2 SWAP1 POP SWAP2 SWAP1 POP JUMP JUMPDEST PUSH1 0x0 DUP2 CALLDATALOAD PUSH2 0x18D8 DUP2 PUSH2 0x1BB0 JUMP JUMPDEST DUP1 SWAP2 POP POP SWAP2 SWAP1 POP JUMP JUMPDEST PUSH1 0x0 DUP2 CALLDATALOAD PUSH2 0x18EE DUP2 PUSH2 0x1BC7 JUMP JUMPDEST DUP1 SWAP2 POP POP SWAP2 SWAP1 POP JUMP JUMPDEST PUSH1 0x0 PUSH1 0x1F NOT PUSH1 0x1F DUP4 ADD AND SWAP1 POP SWAP2 SWAP1 POP JUMP JUMPDEST PUSH1 0x0 DUP2 PUSH1 0x0 SHL SWAP1 POP SWAP2 SWAP1 POP JUMP JUMPDEST PUSH1 0x0 DUP2 PUSH1 0x20 SHL SWAP1 POP SWAP2 SWAP1 POP JUMP JUMPDEST PUSH1 0x0 DUP3 DUP3 SHL SWAP1 POP SWAP3 SWAP2 POP POP JUMP JUMPDEST PUSH1 0x0 DUP3 DUP3 SHR SWAP1 POP SWAP3 SWAP2 POP POP JUMP JUMPDEST PUSH2 0x1944 PUSH2 0x1BF5 JUMP JUMPDEST PUSH2 0x194F DUP2 DUP5 DUP5 PUSH2 0x1B8B JUMP JUMPDEST POP POP POP JUMP JUMPDEST PUSH32 0x4F776E61626C653A206E6577206F776E657220697320746865207A65726F2061 PUSH1 0x0 DUP3 ADD MSTORE PUSH32 0x6464726573730000000000000000000000000000000000000000000000000000 PUSH1 0x20 DUP3 ADD MSTORE POP JUMP JUMPDEST PUSH32 0x546F6F2073686F72740000000000000000000000000000000000000000000000 PUSH1 0x0 DUP3 ADD MSTORE POP JUMP JUMPDEST PUSH32 0x4F776E61626C653A2063616C6C6572206973206E6F7420746865206F776E6572 PUSH1 0x0 DUP3 ADD MSTORE POP JUMP JUMPDEST PUSH32 0x4E6F206C616E6400000000000000000000000000000000000000000000000000 PUSH1 0x0 DUP3 ADD MSTORE POP JUMP JUMPDEST PUSH1 0x0 PUSH20 0xFFFFFFFFFFFFFFFFFFFFFFFFFFFFFFFFFFFFFFFF PUSH2 0x1A3E DUP5 PUSH2 0x1908 JUMP JUMPDEST SWAP4 POP DUP1 NOT DUP4 AND SWAP3 POP DUP1 DUP5 AND DUP4 OR SWAP2 POP POP SWAP3 SWAP2 POP POP JUMP JUMPDEST PUSH1 0x0 PUSH4 0xFFFFFFFF PUSH2 0x1A64 DUP5 PUSH2 0x1908 JUMP JUMPDEST SWAP4 POP DUP1 NOT DUP4 AND SWAP3 POP DUP1 DUP5 AND DUP4 OR SWAP2 POP POP SWAP3 SWAP2 POP POP JUMP JUMPDEST PUSH1 0x0 PUSH8 0xFFFFFFFF00000000 PUSH2 0x1A8E DUP5 PUSH2 0x1915 JUMP JUMPDEST SWAP4 POP DUP1 NOT DUP4 AND SWAP3 POP DUP1 DUP5 AND DUP4 OR SWAP2 POP POP SWAP3 SWAP2 POP POP JUMP JUMPDEST PUSH1 0x0 PUSH1 0x8 DUP4 MUL PUSH2 0x1AD4 PUSH32 0xFFFFFFFFFFFFFFFFFFFFFFFFFFFFFFFFFFFFFFFFFFFFFFFFFFFFFFFFFFFFFFFF DUP3 PUSH2 0x1922 JUMP JUMPDEST PUSH2 0x1ADE DUP7 DUP4 PUSH2 0x1922 JUMP JUMPDEST SWAP6 POP DUP1 NOT DUP5 AND SWAP4 POP DUP1 DUP7 AND DUP5 OR SWAP3 POP POP POP SWAP4 SWAP3 POP POP POP JUMP JUMPDEST PUSH2 0x1AFF DUP3 PUSH2 0x14D0 JUMP JUMPDEST PUSH2 0x1B12 PUSH2 0x1B0B DUP3 PUSH2 0x18AD JUMP JUMPDEST DUP4 SLOAD PUSH2 0x1A1E JUMP JUMPDEST DUP3 SSTORE POP POP POP JUMP JUMPDEST PUSH2 0x1B22 DUP3 PUSH2 0x14E2 JUMP JUMPDEST PUSH2 0x1B35 PUSH2 0x1B2E DUP3 PUSH2 0x18B7 JUMP JUMPDEST DUP4 SLOAD PUSH2 0x1A54 JUMP JUMPDEST DUP3 SSTORE POP POP POP JUMP JUMPDEST PUSH2 0x1B47 DUP4 DUP4 DUP4 PUSH2 0x152A JUMP JUMPDEST POP POP POP JUMP JUMPDEST PUSH2 0x1B56 DUP3 DUP3 PUSH2 0x1669 JUMP JUMPDEST POP POP JUMP JUMPDEST PUSH2 0x1B64 DUP3 DUP3 PUSH2 0x16C5 JUMP JUMPDEST POP POP JUMP JUMPDEST PUSH2 0x1B71 DUP3 PUSH2 0x14E2 JUMP JUMPDEST PUSH2 0x1B84 PUSH2 0x1B7D DUP3 PUSH2 0x18B7 JUMP JUMPDEST DUP4 SLOAD PUSH2 0x1A7A JUMP JUMPDEST DUP3 SSTORE POP POP POP JUMP JUMPDEST PUSH2 0x1B94 DUP4 PUSH2 0x1518 JUMP JUMPDEST PUSH2 0x1BA8 PUSH2 0x1BA0 DUP3 PUSH2 0x18C1 JUMP JUMPDEST DUP5 DUP5 SLOAD PUSH2 0x1AA4 JUMP JUMPDEST DUP3 SSTORE POP POP POP POP JUMP JUMPDEST PUSH2 0x1BB9 DUP2 PUSH2 0x1464 JUMP JUMPDEST DUP2 EQ PUSH2 0x1BC4 JUMPI PUSH1 0x0 DUP1 REVERT JUMPDEST POP JUMP JUMPDEST PUSH2 0x1BD0 DUP2 PUSH2 0x1476 JUMP JUMPDEST DUP2 EQ PUSH2 0x1BDB JUMPI PUSH1 0x0 DUP1 REVERT JUMPDEST POP JUMP JUMPDEST PUSH2 0x1BE7 DUP2 PUSH2 0x14A3 JUMP JUMPDEST DUP2 EQ PUSH2 0x1BF2 JUMPI PUSH1 0x0 DUP1 REVERT JUMPDEST POP JUMP JUMPDEST PUSH1 0x0 SWAP1 JUMP INVALID LOG2 PUSH5 0x6970667358 0x22 SLT KECCAK256 MSTORE INVALID 0x2A 0x2D PUSH30 0x9562EBEAF7B3502FE4925EEED6F56B37C3AB3E41EFB04EB8BDA00E64736F PUSH13 0x63430008030033000000000000 "
        },
        "methodIdentifiers": {
          "addLocation((address,string,(int32,int32))[])": "1018e77c",
          "hasLocation(int32,int32)": "adba9b80",
          "lastLight(address)": "69f4f5ec",
          "lightLocation((int32,int32))": "8199eb21",
          "locations(uint256)": "b9e0db35",
          "ownedLocations(address,uint256)": "aa577d72",
          "owner()": "8da5cb5b",
          "renounceOwnership()": "715018a6",
          "transferOwnership(address)": "f2fde38b"
        }
      }
    }
  }
}